{
  "address": "0x553447E91C4dd1F634D6dc787485ac52987035C5",
  "abi": [
    {
      "inputs": [
        {
          "internalType": "address",
          "name": "_uniswapV3Factory",
          "type": "address"
        }
      ],
      "stateMutability": "nonpayable",
      "type": "constructor"
    },
    {
      "anonymous": false,
      "inputs": [
        {
          "indexed": true,
          "internalType": "address",
          "name": "previousManager",
          "type": "address"
        },
        {
          "indexed": true,
          "internalType": "address",
          "name": "newManager",
          "type": "address"
        }
      ],
      "name": "OwnershipTransferred",
      "type": "event"
    },
    {
      "anonymous": false,
      "inputs": [
        {
          "indexed": true,
          "internalType": "address",
          "name": "uniPool",
          "type": "address"
        },
        {
          "indexed": true,
          "internalType": "address",
          "name": "manager",
          "type": "address"
        },
        {
          "indexed": true,
          "internalType": "address",
          "name": "pool",
          "type": "address"
        }
      ],
      "name": "PoolCreated",
      "type": "event"
    },
    {
      "anonymous": false,
      "inputs": [
        {
          "indexed": false,
          "internalType": "address",
          "name": "previosGelatoDeployer",
          "type": "address"
        },
        {
          "indexed": false,
          "internalType": "address",
          "name": "newGelatoDeployer",
          "type": "address"
        }
      ],
      "name": "UpdateGelatoDeployer",
      "type": "event"
    },
    {
      "anonymous": false,
      "inputs": [
        {
          "indexed": false,
          "internalType": "address",
          "name": "previousImplementation",
          "type": "address"
        },
        {
          "indexed": false,
          "internalType": "address",
          "name": "newImplementation",
          "type": "address"
        }
      ],
      "name": "UpdatePoolImplementation",
      "type": "event"
    },
    {
      "inputs": [
        {
          "internalType": "address",
          "name": "tokenA",
          "type": "address"
        },
        {
          "internalType": "address",
          "name": "tokenB",
          "type": "address"
        },
        {
          "internalType": "uint24",
          "name": "uniFee",
          "type": "uint24"
        },
        {
          "internalType": "uint16",
          "name": "managerFee",
          "type": "uint16"
        },
        {
          "internalType": "int24",
          "name": "lowerTick",
          "type": "int24"
        },
        {
          "internalType": "int24",
          "name": "upperTick",
          "type": "int24"
        }
      ],
      "name": "createPool",
      "outputs": [
        {
          "internalType": "address",
          "name": "pool",
          "type": "address"
        }
      ],
      "stateMutability": "nonpayable",
      "type": "function"
    },
    {
      "inputs": [],
      "name": "factory",
      "outputs": [
        {
          "internalType": "address",
          "name": "",
          "type": "address"
        }
      ],
      "stateMutability": "view",
      "type": "function"
    },
    {
      "inputs": [],
      "name": "gelatoDeployer",
      "outputs": [
        {
          "internalType": "address",
          "name": "",
          "type": "address"
        }
      ],
      "stateMutability": "view",
      "type": "function"
    },
    {
      "inputs": [],
      "name": "getDeployers",
      "outputs": [
        {
          "internalType": "address[]",
          "name": "",
          "type": "address[]"
        }
      ],
      "stateMutability": "view",
      "type": "function"
    },
    {
      "inputs": [],
      "name": "getGelatoPools",
      "outputs": [
        {
          "internalType": "address[]",
          "name": "",
          "type": "address[]"
        }
      ],
      "stateMutability": "view",
      "type": "function"
    },
    {
      "inputs": [
        {
          "internalType": "address",
          "name": "deployer",
          "type": "address"
        }
      ],
      "name": "getPools",
      "outputs": [
        {
          "internalType": "address[]",
          "name": "",
          "type": "address[]"
        }
      ],
      "stateMutability": "view",
      "type": "function"
    },
    {
      "inputs": [
        {
          "internalType": "address",
          "name": "pool",
          "type": "address"
        }
      ],
      "name": "getProxyAdmin",
      "outputs": [
        {
          "internalType": "address",
          "name": "",
          "type": "address"
        }
      ],
      "stateMutability": "view",
      "type": "function"
    },
    {
      "inputs": [
        {
          "internalType": "address",
          "name": "_implementation",
          "type": "address"
        },
        {
          "internalType": "address",
          "name": "_gelatoDeployer",
          "type": "address"
        },
        {
          "internalType": "address",
          "name": "_manager_",
          "type": "address"
        }
      ],
      "name": "initialize",
      "outputs": [],
      "stateMutability": "nonpayable",
      "type": "function"
    },
    {
      "inputs": [
        {
          "internalType": "address",
          "name": "pool",
          "type": "address"
        }
      ],
      "name": "isPoolImmutable",
      "outputs": [
        {
          "internalType": "bool",
          "name": "",
          "type": "bool"
        }
      ],
      "stateMutability": "view",
      "type": "function"
    },
    {
      "inputs": [
        {
          "internalType": "address[]",
          "name": "pools",
          "type": "address[]"
        }
      ],
      "name": "makePoolsImmutable",
      "outputs": [],
      "stateMutability": "nonpayable",
      "type": "function"
    },
    {
      "inputs": [],
      "name": "manager",
      "outputs": [
        {
          "internalType": "address",
          "name": "",
          "type": "address"
        }
      ],
      "stateMutability": "view",
      "type": "function"
    },
    {
      "inputs": [],
      "name": "numDeployers",
      "outputs": [
        {
          "internalType": "uint256",
          "name": "",
          "type": "uint256"
        }
      ],
      "stateMutability": "view",
      "type": "function"
    },
    {
      "inputs": [],
      "name": "numPools",
      "outputs": [
        {
          "internalType": "uint256",
          "name": "result",
          "type": "uint256"
        }
      ],
      "stateMutability": "view",
      "type": "function"
    },
    {
      "inputs": [
        {
          "internalType": "address",
          "name": "deployer",
          "type": "address"
        }
      ],
      "name": "numPools",
      "outputs": [
        {
          "internalType": "uint256",
          "name": "",
          "type": "uint256"
        }
      ],
      "stateMutability": "view",
      "type": "function"
    },
    {
      "inputs": [],
      "name": "poolImplementation",
      "outputs": [
        {
          "internalType": "address",
          "name": "",
          "type": "address"
        }
      ],
      "stateMutability": "view",
      "type": "function"
    },
    {
      "inputs": [],
      "name": "renounceOwnership",
      "outputs": [],
      "stateMutability": "nonpayable",
      "type": "function"
    },
    {
      "inputs": [
        {
          "internalType": "address",
          "name": "nextGelatoDeployer",
          "type": "address"
        }
      ],
      "name": "setGelatoDeployer",
      "outputs": [],
      "stateMutability": "nonpayable",
      "type": "function"
    },
    {
      "inputs": [
        {
          "internalType": "address",
          "name": "nextImplementation",
          "type": "address"
        }
      ],
      "name": "setPoolImplementation",
      "outputs": [],
      "stateMutability": "nonpayable",
      "type": "function"
    },
    {
      "inputs": [
        {
          "internalType": "address",
          "name": "newOwner",
          "type": "address"
        }
      ],
      "name": "transferOwnership",
      "outputs": [],
      "stateMutability": "nonpayable",
      "type": "function"
    },
    {
      "inputs": [
        {
          "internalType": "address[]",
          "name": "pools",
          "type": "address[]"
        }
      ],
      "name": "upgradePools",
      "outputs": [],
      "stateMutability": "nonpayable",
      "type": "function"
    },
    {
      "inputs": [
        {
          "internalType": "address[]",
          "name": "pools",
          "type": "address[]"
        },
        {
          "internalType": "bytes[]",
          "name": "datas",
          "type": "bytes[]"
        }
      ],
      "name": "upgradePoolsAndCall",
      "outputs": [],
      "stateMutability": "nonpayable",
      "type": "function"
    },
    {
      "inputs": [],
      "name": "version",
      "outputs": [
        {
          "internalType": "string",
          "name": "",
          "type": "string"
        }
      ],
      "stateMutability": "view",
      "type": "function"
    }
  ],
  "transactionHash": "0xb2ea3776dcd38198c6adaffb5ec2c6f60b94691e5f133481c91b526e031a238b",
  "args": [
    "0x273Edaa13C845F605b5886Dd66C89AB497A6B17b"
  ],
  "solcInputHash": "07200b0d23a751835ce93ba1686cbb62",
  "bytecode": "0x60a060405234801561001057600080fd5b506040516124f03803806124f083398101604081905261002f91610044565b60601b6001600160601b031916608052610072565b600060208284031215610055578081fd5b81516001600160a01b038116811461006b578182fd5b9392505050565b60805160601c612459610097600039600081816102cc0152610a5b01526124596000f3fe60806040523480156200001157600080fd5b50600436106200012a5760003560e01c806308893328146200012f578063098eddb114620001485780630dfc574b1462000165578063260fc2b8146200017c57806335c62bc2146200019357806340aee041146200019d57806342f5de9914620001b4578063481c6a7514620001cb578063483248ca14620001e457806354fd4d5014620001fb578063562b8103146200022f5780635c39f4671462000248578063607c12b5146200025f578063715018a6146200026957806386238765146200027357806395d807f11462000287578063c0c53b8b14620002af578063c45a015514620002c6578063cefa779914620002ee578063d6f748981462000302578063f2fde38b1462000319578063f3b7dead1462000330575b600080fd5b620001466200014036600462001476565b62000347565b005b62000152620003ef565b6040519081526020015b60405180910390f35b6200014662000176366004620015d6565b62000402565b620001466200018d36600462001598565b62000582565b6200015262000668565b62000146620001ae36600462001598565b620006df565b62000152620001c536600462001476565b620007c9565b620001d5620007f2565b6040516200015c9190620017ae565b620001d5620001f536600462001505565b62000801565b62000220604051806040016040528060058152602001640312e302e360dc1b81525081565b6040516200015c91906200186b565b6200023962000c1a565b6040516200015c91906200181c565b620002396200025936600462001476565b62000c2f565b6200023962000d04565b6200014662000dd6565b600254620001d5906001600160a01b031681565b6200029e6200029836600462001476565b62000e43565b60405190151581526020016200015c565b62000146620002c0366004620014b4565b62000e60565b620001d57f000000000000000000000000000000000000000000000000000000000000000081565b600154620001d5906001600160a01b031681565b620001466200031336600462001476565b62000f6a565b620001466200032a36600462001476565b62001009565b620001d56200034136600462001476565b620010f0565b3362000352620007f2565b6001600160a01b031614620003845760405162461bcd60e51b81526004016200037b90620018f5565b60405180910390fd5b6002546040517fb316078581b0eaf0714b47d13192560506acc3e23b5bf3b72d27248f173c908591620003c5916001600160a01b03909116908490620017c2565b60405180910390a1600280546001600160a01b0319166001600160a01b0392909216919091179055565b6000620003fd600362001167565b905090565b336200040d620007f2565b6001600160a01b031614620004365760405162461bcd60e51b81526004016200037b90620018f5565b82518114620004835760405162461bcd60e51b81526020600482015260186024820152770dad2e6dac2e8c6d0d2dcce40c2e4e4c2f240d8cadccee8d60431b60448201526064016200037b565b60005b83518110156200057c57838181518110620004b157634e487b7160e01b600052603260045260246000fd5b60200260200101516001600160a01b0316634f1ef286600160009054906101000a90046001600160a01b0316858585818110620004fe57634e487b7160e01b600052603260045260246000fd5b905060200281019062000512919062001937565b6040518463ffffffff1660e01b81526004016200053293929190620017dc565b600060405180830381600087803b1580156200054d57600080fd5b505af115801562000562573d6000803e3d6000fd5b5050505080806200057390620019fb565b91505062000486565b50505050565b336200058d620007f2565b6001600160a01b031614620005b65760405162461bcd60e51b81526004016200037b90620018f5565b60005b81518110156200066457818181518110620005e457634e487b7160e01b600052603260045260246000fd5b60200260200101516001600160a01b0316638356ca4f60006040518263ffffffff1660e01b81526004016200061a9190620017ae565b600060405180830381600087803b1580156200063557600080fd5b505af11580156200064a573d6000803e3d6000fd5b5050505080806200065b90620019fb565b915050620005b9565b5050565b6000806200067562000d04565b905060005b8151811015620006da57620006b7828281518110620006a957634e487b7160e01b600052603260045260246000fd5b6020026020010151620007c9565b620006c39084620019b1565b925080620006d181620019fb565b9150506200067a565b505090565b33620006ea620007f2565b6001600160a01b031614620007135760405162461bcd60e51b81526004016200037b90620018f5565b60005b815181101562000664578181815181106200074157634e487b7160e01b600052603260045260246000fd5b6020908102919091010151600154604051631b2ce7f360e11b81526001600160a01b0392831692633659cfe6926200077f92911690600401620017ae565b600060405180830381600087803b1580156200079a57600080fd5b505af1158015620007af573d6000803e3d6000fd5b505050508080620007c090620019fb565b91505062000716565b6001600160a01b0381166000908152600560205260408120620007ec9062001167565b92915050565b6000546001600160a01b031690565b600080600062000812898962001172565b6001546040519294509092506001600160a01b03169030906200083590620013ba565b6001600160a01b03928316815291166020820152606060408201819052600090820152608001604051809103906000f08015801562000878573d6000803e3d6000fd5b5092506000604051806040016040528060018152602001603f60f81b81525090506000604051806040016040528060018152602001603f60f81b8152509050836001600160a01b03166395d89b416040518163ffffffff1660e01b815260040160006040518083038186803b158015620008f157600080fd5b505afa9250505080156200092957506040513d6000823e601f3d908101601f1916820160405262000926919081019062001671565b60015b620009345762000937565b91505b826001600160a01b03166395d89b416040518163ffffffff1660e01b815260040160006040518083038186803b1580156200097157600080fd5b505afa925050508015620009a957506040513d6000823e601f3d908101601f19168201604052620009a6919081019062001671565b60015b620009b457620009b7565b90505b600062000a236040518060400160405280600f81526020016e023b2b630ba37902ab734b9bbb0b81608d1b81525084604051806040016040528060018152602001602f60f81b81525085604051806040016040528060038152602001620204c560ec1b81525062001241565b604051630b4c774160e11b81526001600160a01b038781166004830152868116602483015262ffffff8d1660448301529192506000917f00000000000000000000000000000000000000000000000000000000000000001690631698ee829060640160206040518083038186803b15801562000a9e57600080fd5b505afa15801562000ab3573d6000803e3d6000fd5b505050506040513d601f19601f8201168201806040525081019062000ad9919062001495565b90506001600160a01b03811662000b315760405162461bcd60e51b815260206004820152601b60248201527a1d5b9a5cddd85c081c1bdbdb08191bd95cc81b9bdd08195e1a5cdd602a1b60448201526064016200037b565b60405163e25e15e360e01b81526001600160a01b0388169063e25e15e39062000b6990859085908f908f908f90339060040162001880565b600060405180830381600087803b15801562000b8457600080fd5b505af115801562000b99573d6000803e3d6000fd5b5050505062000bb33360036200127890919063ffffffff16565b5033600090815260056020526040902062000bcf908862001278565b506040516001600160a01b038089169133918416907f9c5d829b9b23efc461f9aeef91979ec04bb903feb3bee4f26d22114abfc7335b90600090a45050505050509695505050505050565b600254606090620003fd906001600160a01b03165b6060600062000c3e83620007c9565b90506000816001600160401b0381111562000c6957634e487b7160e01b600052604160045260246000fd5b60405190808252806020026020018201604052801562000c93578160200160208202803683370190505b50905060005b8281101562000cfc5762000cae858262001296565b82828151811062000ccf57634e487b7160e01b600052603260045260246000fd5b6001600160a01b03909216602092830291909101909101528062000cf381620019fb565b91505062000c99565b509392505050565b6060600062000d12620003ef565b90506000816001600160401b0381111562000d3d57634e487b7160e01b600052604160045260246000fd5b60405190808252806020026020018201604052801562000d67578160200160208202803683370190505b50905060005b8281101562000dcf5762000d8181620012ba565b82828151811062000da257634e487b7160e01b600052603260045260246000fd5b6001600160a01b03909216602092830291909101909101528062000dc681620019fb565b91505062000d6d565b5092915050565b3362000de1620007f2565b6001600160a01b03161462000e0a5760405162461bcd60e51b81526004016200037b90620018f5565b600080546040516001600160a01b039091169060008051602062002404833981519152908390a3600080546001600160a01b0319169055565b600062000e5082620010f0565b6001600160a01b03161592915050565b600054600160a81b900460ff168062000e835750600054600160a01b900460ff16155b62000ee85760405162461bcd60e51b815260206004820152602e60248201527f496e697469616c697a61626c653a20636f6e747261637420697320616c72656160448201526d191e481a5b9a5d1a585b1a5e995960921b60648201526084016200037b565b600054600160a81b900460ff1615801562000f13576000805461ffff60a01b191661010160a01b1790555b600180546001600160a01b038087166001600160a01b03199283161790925560028054868416908316179055600080549285169290911691909117905580156200057c576000805460ff60a81b1916905550505050565b3362000f75620007f2565b6001600160a01b03161462000f9e5760405162461bcd60e51b81526004016200037b90620018f5565b6001546040517f0617fd31aa5ab95ec80eefc1eb61a2c477aa419d1d761b4e46f5f077e47852aa9162000fdf916001600160a01b03909116908490620017c2565b60405180910390a1600180546001600160a01b0319166001600160a01b0392909216919091179055565b3362001014620007f2565b6001600160a01b0316146200103d5760405162461bcd60e51b81526004016200037b90620018f5565b6001600160a01b038116620010a65760405162461bcd60e51b815260206004820152602860248201527f4f776e61626c653a206e6577206d616e6167657220697320746865207a65726f604482015267206164647265737360c01b60648201526084016200037b565b600080546040516001600160a01b03808516939216916000805160206200240483398151915291a3600080546001600160a01b0319166001600160a01b0392909216919091179055565b6000816001600160a01b0316633e47158c6040518163ffffffff1660e01b815260040160206040518083038186803b1580156200112c57600080fd5b505afa15801562001141573d6000803e3d6000fd5b505050506040513d601f19601f82011682018060405250810190620007ec919062001495565b6000620007ec825490565b600080826001600160a01b0316846001600160a01b03161415620011c65760405162461bcd60e51b815260206004820152600a60248201526939b0b6b2903a37b5b2b760b11b60448201526064016200037b565b826001600160a01b0316846001600160a01b031610620011e8578284620011eb565b83835b90925090506001600160a01b0382166200123a5760405162461bcd60e51b815260206004820152600f60248201526e6e6f2061646472657373207a65726f60881b60448201526064016200037b565b9250929050565b606085858585856040516020016200125e95949392919062001739565b604051602081830303815290604052905095945050505050565b60006200128f836001600160a01b038416620012c9565b9392505050565b6001600160a01b03821660009081526005602052604081206200128f90836200131b565b6000620007ec6003836200131b565b60008181526001830160205260408120546200131257508154600181810184556000848152602080822090930184905584548482528286019093526040902091909155620007ec565b506000620007ec565b60006200128f838381546000908210620013835760405162461bcd60e51b815260206004820152602260248201527f456e756d657261626c655365743a20696e646578206f7574206f6620626f756e604482015261647360f01b60648201526084016200037b565b826000018281548110620013a757634e487b7160e01b600052603260045260246000fd5b9060005260206000200154905092915050565b6109a58062001a5f83390190565b600082601f830112620013d9578081fd5b813560206001600160401b03821115620013f757620013f762001a2f565b8160051b620014088282016200197e565b83815282810190868401838801850189101562001423578687fd5b8693505b85841015620014525780356200143d8162001a45565b83526001939093019291840191840162001427565b50979650505050505050565b8035600281900b81146200147157600080fd5b919050565b60006020828403121562001488578081fd5b81356200128f8162001a45565b600060208284031215620014a7578081fd5b81516200128f8162001a45565b600080600060608486031215620014c9578182fd5b8335620014d68162001a45565b92506020840135620014e88162001a45565b91506040840135620014fa8162001a45565b809150509250925092565b60008060008060008060c087890312156200151e578182fd5b86356200152b8162001a45565b955060208701356200153d8162001a45565b9450604087013562ffffff8116811462001555578283fd5b9350606087013561ffff811681146200156c578283fd5b92506200157c608088016200145e565b91506200158c60a088016200145e565b90509295509295509295565b600060208284031215620015aa578081fd5b81356001600160401b03811115620015c0578182fd5b620015ce84828501620013c8565b949350505050565b600080600060408486031215620015eb578283fd5b83356001600160401b038082111562001602578485fd5b6200161087838801620013c8565b9450602086013591508082111562001626578384fd5b818601915086601f8301126200163a578384fd5b81358181111562001649578485fd5b8760208260051b85010111156200165e578485fd5b6020830194508093505050509250925092565b60006020828403121562001683578081fd5b81516001600160401b03808211156200169a578283fd5b818401915084601f830112620016ae578283fd5b815181811115620016c357620016c362001a2f565b620016d8601f8201601f19166020016200197e565b9150808252856020828501011115620016ef578384fd5b62001702816020840160208601620019cc565b50949350505050565b6000815180845262001725816020860160208601620019cc565b601f01601f19169290920160200192915050565b600086516200174d818460208b01620019cc565b86519083019062001763818360208b01620019cc565b865191019062001778818360208a01620019cc565b85519101906200178d818360208901620019cc565b8451910190620017a2818360208801620019cc565b01979650505050505050565b6001600160a01b0391909116815260200190565b6001600160a01b0392831681529116602082015260400190565b6001600160a01b03841681526040602082018190528101829052818360608301376000818301606090810191909152601f909201601f1916010192915050565b6020808252825182820181905260009190848201906040850190845b818110156200185f5783516001600160a01b03168352928401929184019160010162001838565b50909695505050505050565b6020815260006200128f60208301846200170b565b60e0815260006200189560e08301896200170b565b82810360208401526005815264472d554e4960d81b60208201526040810191505060018060a01b03808816604084015261ffff871660608401528560020b60808401528460020b60a084015280841660c084015250979650505050505050565b60208082526022908201527f4f776e61626c653a2063616c6c6572206973206e6f7420746865206d616e616760408201526132b960f11b606082015260800190565b6000808335601e198436030181126200194e578283fd5b8301803591506001600160401b0382111562001968578283fd5b6020019150368190038213156200123a57600080fd5b604051601f8201601f191681016001600160401b0381118282101715620019a957620019a962001a2f565b604052919050565b60008219821115620019c757620019c762001a19565b500190565b60005b83811015620019e9578181015183820152602001620019cf565b838111156200057c5750506000910152565b600060001982141562001a125762001a1262001a19565b5060010190565b634e487b7160e01b600052601160045260246000fd5b634e487b7160e01b600052604160045260246000fd5b6001600160a01b038116811462001a5b57600080fd5b5056fe60806040526040516109a53803806109a5833981016040819052610022916101a4565b61002c838261003d565b61003582610119565b5050506102ce565b7f360894a13ba1a3210667c828492db98dca3e2076cc3735a920a3ca505d382bbc8054908390556040516001600160a01b0380851691908316907f5570d70a002632a7b0b3c9304cc89efb62d8da9eca0dbd7752c83b737906829690600090a3815115610114576000836001600160a01b0316836040516100be9190610270565b600060405180830381855af49150503d80600081146100f9576040519150601f19603f3d011682016040523d82523d6000602084013e6100fe565b606091505b5050905080610112573d806000803e806000fd5b505b505050565b60006101316000805160206109858339815191525490565b90508160008051602061098583398151915255816001600160a01b0316816001600160a01b03167fdf435d422321da6b195902d70fc417c06a32f88379c20dd8f2a8da07088cec2960405160405180910390a35050565b80516001600160a01b038116811461019f57600080fd5b919050565b6000806000606084860312156101b8578283fd5b6101c184610188565b92506101cf60208501610188565b60408501519092506001600160401b03808211156101eb578283fd5b818601915086601f8301126101fe578283fd5b815181811115610210576102106102b8565b604051601f8201601f19908116603f01168101908382118183101715610238576102386102b8565b81604052828152896020848701011115610250578586fd5b61026183602083016020880161028c565b80955050505050509250925092565b6000825161028281846020870161028c565b9190910192915050565b60005b838110156102a757818101518382015260200161028f565b838111156101125750506000910152565b634e487b7160e01b600052604160045260246000fd5b6106a8806102dd6000396000f3fe60806040526004361061004e5760003560e01c806301ffc9a71461009b5780633659cfe6146100d05780633e47158c146100f05780634f1ef2861461011d5780638356ca4f1461013057610091565b366100915760405162461bcd60e51b815260206004820152600e60248201526d115512115497d491529150d5115160921b60448201526064015b60405180910390fd5b610099610150565b005b3480156100a757600080fd5b506100bb6100b63660046105a9565b610189565b60405190151581526020015b60405180910390f35b3480156100dc57600080fd5b506100996100eb3660046104f2565b61027e565b3480156100fc57600080fd5b506101056102d2565b6040516001600160a01b0390911681526020016100c7565b61009961012b36600461050c565b6102e1565b34801561013c57600080fd5b5061009961014b3660046104f2565b61035e565b6000805160206106538339815191525460003681823780813683855af491503d8082833e82801561017f578183f35b8183fd5b50505050565b60006301ffc9a760e01b6001600160e01b0319831614806101ba57506307f5828d60e41b6001600160e01b03198316145b156101c757506001919050565b6001600160e01b031980831614156101e157506000919050565b600080516020610653833981519152546040516301ffc9a760e01b81526001600160e01b0319841660048201526001600160a01b038216906301ffc9a79060240160206040518083038186803b15801561023a57600080fd5b505afa92505050801561026a575060408051601f3d908101601f1916820190925261026791810190610589565b60015b6102775750600092915050565b9392505050565b61028661039f565b6001600160a01b0316336001600160a01b0316146102b65760405162461bcd60e51b81526004016100889061060a565b6102cf81604051806020016040528060008152506103b2565b50565b60006102dc61039f565b905090565b6102e961039f565b6001600160a01b0316336001600160a01b0316146103195760405162461bcd60e51b81526004016100889061060a565b6103598383838080601f0160208091040260200160405190810160405280939291908181526020018383808284376000920191909152506103b292505050565b505050565b61036661039f565b6001600160a01b0316336001600160a01b0316146103965760405162461bcd60e51b81526004016100889061060a565b6102cf81610475565b6000805160206106338339815191525490565b6000805160206106538339815191528054908390556040516001600160a01b0380851691908316907f5570d70a002632a7b0b3c9304cc89efb62d8da9eca0dbd7752c83b737906829690600090a3815115610359576000836001600160a01b03168360405161042191906105d1565b600060405180830381855af49150503d806000811461045c576040519150601f19603f3d011682016040523d82523d6000602084013e610461565b606091505b5050905080610183573d806000803e806000fd5b600061047f61039f565b90508160008051602061063383398151915255816001600160a01b0316816001600160a01b03167fdf435d422321da6b195902d70fc417c06a32f88379c20dd8f2a8da07088cec2960405160405180910390a35050565b80356001600160a01b03811681146104ed57600080fd5b919050565b600060208284031215610503578081fd5b610277826104d6565b600080600060408486031215610520578182fd5b610529846104d6565b925060208401356001600160401b0380821115610544578384fd5b818601915086601f830112610557578384fd5b813581811115610565578485fd5b876020828501011115610576578485fd5b6020830194508093505050509250925092565b60006020828403121561059a578081fd5b81518015158114610277578182fd5b6000602082840312156105ba578081fd5b81356001600160e01b031981168114610277578182fd5b60008251815b818110156105f157602081860181015185830152016105d7565b818111156105ff5782828501525b509190910192915050565b6020808252600e908201526d1393d517d055551213d49256915160921b60408201526060019056feb53127684a568b3173ae13b9f8a6016e243e63b6e8ee1178d6a717850b5d6103360894a13ba1a3210667c828492db98dca3e2076cc3735a920a3ca505d382bbca2646970667358221220730effc08e7ae1c19f69ae08dd52de483b649ded49db9428e4ced9875431474364736f6c63430008040033b53127684a568b3173ae13b9f8a6016e243e63b6e8ee1178d6a717850b5d61038be0079c531659141344cd1fd0a4f28419497f9722a3daafe3b4186f6b6457e0a26469706673582212207c6179e464a0c317191f9da090adad7dcf9f58cae09d904a5c2fe10e8f2dd90164736f6c63430008040033",
  "devdoc": {
    "kind": "dev",
    "methods": {
      "createPool(address,address,uint24,uint16,int24,int24)": {
        "params": {
          "lowerTick": "initial lower bound of the Uniswap V3 position",
          "managerFee": "proportion of earned fees that go to pool manager in Basis Points",
          "tokenA": "one of the tokens in the uniswap pair",
          "tokenB": "the other token in the uniswap pair",
          "uniFee": "fee tier of the uniswap pair",
          "upperTick": "initial upper bound of the Uniswap V3 position"
        },
        "returns": {
          "pool": "the address of the newly created G-UNI pool (proxy)"
        }
      },
      "getDeployers()": {
        "returns": {
          "_0": "deployers the list of deployer addresses"
        }
      },
      "getGelatoPools()": {
        "returns": {
          "_0": "list of Gelato managed G-UNI pool addresses"
        }
      },
      "getPools(address)": {
        "params": {
          "deployer": "address that has potentially deployed G-UNI pools (can return empty array)"
        },
        "returns": {
          "_0": "pools the list of G-UNI pool addresses deployed by `deployer`"
        }
      },
      "getProxyAdmin(address)": {
        "params": {
          "pool": "address of the G-UNI pool"
        },
        "returns": {
          "_0": "address that controls the G-UNI implementation (has power to upgrade it)"
        }
      },
      "isPoolImmutable(address)": {
        "params": {
          "pool": "address of the G-UNI pool"
        },
        "returns": {
          "_0": "bool signaling if pool is immutable (true) or not (false)"
        }
      },
      "manager()": {
        "details": "Returns the address of the current manager."
      },
      "numDeployers()": {
        "returns": {
          "_0": "total number of G-UNI pool deployer addresses"
        }
      },
      "numPools()": {
        "returns": {
          "result": "total number of G-UNI pools deployed"
        }
      },
      "numPools(address)": {
        "params": {
          "deployer": "deployer address"
        },
        "returns": {
          "_0": "total number of G-UNI pools deployed by `deployer`"
        }
      },
      "renounceOwnership()": {
        "details": "Leaves the contract without manager. It will not be possible to call `onlyManager` functions anymore. Can only be called by the current manager. NOTE: Renouncing ownership will leave the contract without an manager, thereby removing any functionality that is only available to the manager."
      },
      "transferOwnership(address)": {
        "details": "Transfers ownership of the contract to a new account (`newOwner`). Can only be called by the current manager."
      }
    },
    "version": 1
  },
  "userdoc": {
    "kind": "user",
    "methods": {
      "createPool(address,address,uint24,uint16,int24,int24)": {
        "notice": "createPool creates a new instance of a G-UNI token on a specified UniswapV3 pool. The msg.sender is the initial manager of the pool and will forever be associated with the G-UNI pool as it's `deployer`"
      },
      "getDeployers()": {
        "notice": "getDeployers fetches all addresses that have deployed a G-UNI pool"
      },
      "getGelatoPools()": {
        "notice": "getGelatoPools gets all the G-UNI pools deployed by Gelato's default deployer address (since anyone can deploy and manage G-UNI pools)"
      },
      "getPools(address)": {
        "notice": "getPools fetches all the G-UNI pool addresses deployed by `deployer`"
      },
      "getProxyAdmin(address)": {
        "notice": "getProxyAdmin gets the current address who controls the underlying implementation of a G-UNI pool. For most all pools either this contract address or the zero address will be the proxyAdmin. If the admin is the zero address the pool's implementation is naturally no longer upgradable (no one owns the zero address)."
      },
      "isPoolImmutable(address)": {
        "notice": "isPoolImmutable checks if a certain G-UNI pool is \"immutable\" i.e. that the proxyAdmin is the zero address and thus the underlying implementation cannot be upgraded"
      },
      "numDeployers()": {
        "notice": "numDeployers counts the total number of G-UNI pool deployer addresses"
      },
      "numPools()": {
        "notice": "numPools counts the total number of G-UNI pools in existence"
      },
      "numPools(address)": {
        "notice": "numPools counts the total number of G-UNI pools deployed by `deployer`"
      }
    },
    "version": 1
  },
  "storageLayout": {
    "storage": [
      {
        "astId": 6087,
        "contract": "contracts/GUniFactory.sol:GUniFactory",
        "label": "_manager",
        "offset": 0,
        "slot": "0",
        "type": "t_address"
      },
      {
        "astId": 791,
        "contract": "contracts/GUniFactory.sol:GUniFactory",
        "label": "_initialized",
        "offset": 20,
        "slot": "0",
        "type": "t_bool"
      },
      {
        "astId": 794,
        "contract": "contracts/GUniFactory.sol:GUniFactory",
        "label": "_initializing",
        "offset": 21,
        "slot": "0",
        "type": "t_bool"
      },
      {
        "astId": 5563,
        "contract": "contracts/GUniFactory.sol:GUniFactory",
        "label": "poolImplementation",
        "offset": 0,
        "slot": "1",
        "type": "t_address"
      },
      {
        "astId": 5565,
        "contract": "contracts/GUniFactory.sol:GUniFactory",
        "label": "gelatoDeployer",
        "offset": 0,
        "slot": "2",
        "type": "t_address"
      },
      {
        "astId": 5568,
        "contract": "contracts/GUniFactory.sol:GUniFactory",
        "label": "_deployers",
        "offset": 0,
        "slot": "3",
        "type": "t_struct(AddressSet)1740_storage"
      },
      {
        "astId": 5573,
        "contract": "contracts/GUniFactory.sol:GUniFactory",
        "label": "_pools",
        "offset": 0,
        "slot": "5",
        "type": "t_mapping(t_address,t_struct(AddressSet)1740_storage)"
      }
    ],
    "types": {
      "t_address": {
        "encoding": "inplace",
        "label": "address",
        "numberOfBytes": "20"
      },
      "t_array(t_bytes32)dyn_storage": {
        "base": "t_bytes32",
        "encoding": "dynamic_array",
        "label": "bytes32[]",
        "numberOfBytes": "32"
      },
      "t_bool": {
        "encoding": "inplace",
        "label": "bool",
        "numberOfBytes": "1"
      },
      "t_bytes32": {
        "encoding": "inplace",
        "label": "bytes32",
        "numberOfBytes": "32"
      },
      "t_mapping(t_address,t_struct(AddressSet)1740_storage)": {
        "encoding": "mapping",
        "key": "t_address",
        "label": "mapping(address => struct EnumerableSet.AddressSet)",
        "numberOfBytes": "32",
        "value": "t_struct(AddressSet)1740_storage"
      },
      "t_mapping(t_bytes32,t_uint256)": {
        "encoding": "mapping",
        "key": "t_bytes32",
        "label": "mapping(bytes32 => uint256)",
        "numberOfBytes": "32",
        "value": "t_uint256"
      },
      "t_struct(AddressSet)1740_storage": {
        "encoding": "inplace",
        "label": "struct EnumerableSet.AddressSet",
        "members": [
          {
            "astId": 1739,
            "contract": "contracts/GUniFactory.sol:GUniFactory",
            "label": "_inner",
            "offset": 0,
            "slot": "0",
            "type": "t_struct(Set)1465_storage"
          }
        ],
        "numberOfBytes": "64"
      },
      "t_struct(Set)1465_storage": {
        "encoding": "inplace",
        "label": "struct EnumerableSet.Set",
        "members": [
          {
            "astId": 1460,
            "contract": "contracts/GUniFactory.sol:GUniFactory",
            "label": "_values",
            "offset": 0,
            "slot": "0",
            "type": "t_array(t_bytes32)dyn_storage"
          },
          {
            "astId": 1464,
            "contract": "contracts/GUniFactory.sol:GUniFactory",
            "label": "_indexes",
            "offset": 0,
            "slot": "1",
            "type": "t_mapping(t_bytes32,t_uint256)"
          }
        ],
        "numberOfBytes": "64"
      },
      "t_uint256": {
        "encoding": "inplace",
        "label": "uint256",
        "numberOfBytes": "32"
      }
    }
  }
}