{
  "address": "0xE6dbcC12016005f3a199BDFF8bee3e3b3C48Cfc5",
  "abi": [
    {
      "inputs": [
        {
          "internalType": "address payable",
          "name": "_gelato",
          "type": "address"
        }
      ],
      "stateMutability": "nonpayable",
      "type": "constructor"
    },
    {
      "anonymous": false,
      "inputs": [
        {
          "indexed": true,
          "internalType": "address",
          "name": "owner",
          "type": "address"
        },
        {
          "indexed": true,
          "internalType": "address",
          "name": "spender",
          "type": "address"
        },
        {
          "indexed": false,
          "internalType": "uint256",
          "name": "value",
          "type": "uint256"
        }
      ],
      "name": "Approval",
      "type": "event"
    },
    {
      "anonymous": false,
      "inputs": [
        {
          "indexed": false,
          "internalType": "address",
          "name": "receiver",
          "type": "address"
        },
        {
          "indexed": false,
          "internalType": "uint256",
          "name": "burnAmount",
          "type": "uint256"
        },
        {
          "indexed": false,
          "internalType": "uint256",
          "name": "amount0Out",
          "type": "uint256"
        },
        {
          "indexed": false,
          "internalType": "uint256",
          "name": "amount1Out",
          "type": "uint256"
        },
        {
          "indexed": false,
          "internalType": "uint128",
          "name": "liquidityBurned",
          "type": "uint128"
        }
      ],
      "name": "Burned",
      "type": "event"
    },
    {
      "anonymous": false,
      "inputs": [
        {
          "indexed": false,
          "internalType": "address",
          "name": "receiver",
          "type": "address"
        },
        {
          "indexed": false,
          "internalType": "uint256",
          "name": "mintAmount",
          "type": "uint256"
        },
        {
          "indexed": false,
          "internalType": "uint256",
          "name": "amount0In",
          "type": "uint256"
        },
        {
          "indexed": false,
          "internalType": "uint256",
          "name": "amount1In",
          "type": "uint256"
        },
        {
          "indexed": false,
          "internalType": "uint128",
          "name": "liquidityMinted",
          "type": "uint128"
        }
      ],
      "name": "Minted",
      "type": "event"
    },
    {
      "anonymous": false,
      "inputs": [
        {
          "indexed": true,
          "internalType": "address",
          "name": "previousManager",
          "type": "address"
        },
        {
          "indexed": true,
          "internalType": "address",
          "name": "newManager",
          "type": "address"
        }
      ],
      "name": "OwnershipTransferred",
      "type": "event"
    },
    {
      "anonymous": false,
      "inputs": [
        {
          "indexed": false,
          "internalType": "int24",
          "name": "lowerTick_",
          "type": "int24"
        },
        {
          "indexed": false,
          "internalType": "int24",
          "name": "upperTick_",
          "type": "int24"
        }
      ],
      "name": "Rebalance",
      "type": "event"
    },
    {
      "anonymous": false,
      "inputs": [
        {
          "indexed": true,
          "internalType": "address",
          "name": "from",
          "type": "address"
        },
        {
          "indexed": true,
          "internalType": "address",
          "name": "to",
          "type": "address"
        },
        {
          "indexed": false,
          "internalType": "uint256",
          "name": "value",
          "type": "uint256"
        }
      ],
      "name": "Transfer",
      "type": "event"
    },
    {
      "anonymous": false,
      "inputs": [
        {
          "indexed": false,
          "internalType": "address",
          "name": "oldAdminTreasury",
          "type": "address"
        },
        {
          "indexed": false,
          "internalType": "address",
          "name": "newAdminTreasury",
          "type": "address"
        }
      ],
      "name": "UpdateAdminTreasury",
      "type": "event"
    },
    {
      "anonymous": false,
      "inputs": [
        {
          "indexed": false,
          "internalType": "uint16",
          "name": "gelatoRebalanceBPS",
          "type": "uint16"
        },
        {
          "indexed": false,
          "internalType": "uint16",
          "name": "gelatoWithdrawBPS",
          "type": "uint16"
        },
        {
          "indexed": false,
          "internalType": "uint16",
          "name": "gelatoSlippageBPS",
          "type": "uint16"
        },
        {
          "indexed": false,
          "internalType": "uint32",
          "name": "gelatoSlippageInterval",
          "type": "uint32"
        }
      ],
      "name": "UpdateGelatoParams",
      "type": "event"
    },
    {
      "inputs": [],
      "name": "GELATO",
      "outputs": [
        {
          "internalType": "address payable",
          "name": "",
          "type": "address"
        }
      ],
      "stateMutability": "view",
      "type": "function"
    },
    {
      "inputs": [
        {
          "internalType": "address",
          "name": "owner",
          "type": "address"
        },
        {
          "internalType": "address",
          "name": "spender",
          "type": "address"
        }
      ],
      "name": "allowance",
      "outputs": [
        {
          "internalType": "uint256",
          "name": "",
          "type": "uint256"
        }
      ],
      "stateMutability": "view",
      "type": "function"
    },
    {
      "inputs": [
        {
          "internalType": "address",
          "name": "spender",
          "type": "address"
        },
        {
          "internalType": "uint256",
          "name": "amount",
          "type": "uint256"
        }
      ],
      "name": "approve",
      "outputs": [
        {
          "internalType": "bool",
          "name": "",
          "type": "bool"
        }
      ],
      "stateMutability": "nonpayable",
      "type": "function"
    },
    {
      "inputs": [
        {
          "internalType": "address",
          "name": "account",
          "type": "address"
        }
      ],
      "name": "balanceOf",
      "outputs": [
        {
          "internalType": "uint256",
          "name": "",
          "type": "uint256"
        }
      ],
      "stateMutability": "view",
      "type": "function"
    },
    {
      "inputs": [
        {
          "internalType": "uint256",
          "name": "burnAmount",
          "type": "uint256"
        },
        {
          "internalType": "address",
          "name": "receiver",
          "type": "address"
        }
      ],
      "name": "burn",
      "outputs": [
        {
          "internalType": "uint256",
          "name": "amount0",
          "type": "uint256"
        },
        {
          "internalType": "uint256",
          "name": "amount1",
          "type": "uint256"
        },
        {
          "internalType": "uint128",
          "name": "liquidityBurned",
          "type": "uint128"
        }
      ],
      "stateMutability": "nonpayable",
      "type": "function"
    },
    {
      "inputs": [],
      "name": "decimals",
      "outputs": [
        {
          "internalType": "uint8",
          "name": "",
          "type": "uint8"
        }
      ],
      "stateMutability": "view",
      "type": "function"
    },
    {
      "inputs": [
        {
          "internalType": "address",
          "name": "spender",
          "type": "address"
        },
        {
          "internalType": "uint256",
          "name": "subtractedValue",
          "type": "uint256"
        }
      ],
      "name": "decreaseAllowance",
      "outputs": [
        {
          "internalType": "bool",
          "name": "",
          "type": "bool"
        }
      ],
      "stateMutability": "nonpayable",
      "type": "function"
    },
    {
      "inputs": [
        {
          "internalType": "int24",
          "name": "newLowerTick",
          "type": "int24"
        },
        {
          "internalType": "int24",
          "name": "newUpperTick",
          "type": "int24"
        },
        {
          "internalType": "uint160",
          "name": "swapThresholdPrice",
          "type": "uint160"
        },
        {
          "internalType": "uint256",
          "name": "swapAmountBPS",
          "type": "uint256"
        },
        {
          "internalType": "bool",
          "name": "zeroForOne",
          "type": "bool"
        }
      ],
      "name": "executiveRebalance",
      "outputs": [],
      "stateMutability": "nonpayable",
      "type": "function"
    },
    {
      "inputs": [],
      "name": "gelatoBalance0",
      "outputs": [
        {
          "internalType": "uint256",
          "name": "",
          "type": "uint256"
        }
      ],
      "stateMutability": "view",
      "type": "function"
    },
    {
      "inputs": [],
      "name": "gelatoBalance1",
      "outputs": [
        {
          "internalType": "uint256",
          "name": "",
          "type": "uint256"
        }
      ],
      "stateMutability": "view",
      "type": "function"
    },
    {
      "inputs": [],
      "name": "gelatoFeeBPS",
      "outputs": [
        {
          "internalType": "uint16",
          "name": "",
          "type": "uint16"
        }
      ],
      "stateMutability": "view",
      "type": "function"
    },
    {
      "inputs": [],
      "name": "gelatoRebalanceBPS",
      "outputs": [
        {
          "internalType": "uint16",
          "name": "",
          "type": "uint16"
        }
      ],
      "stateMutability": "view",
      "type": "function"
    },
    {
      "inputs": [],
      "name": "gelatoSlippageBPS",
      "outputs": [
        {
          "internalType": "uint16",
          "name": "",
          "type": "uint16"
        }
      ],
      "stateMutability": "view",
      "type": "function"
    },
    {
      "inputs": [],
      "name": "gelatoSlippageInterval",
      "outputs": [
        {
          "internalType": "uint32",
          "name": "",
          "type": "uint32"
        }
      ],
      "stateMutability": "view",
      "type": "function"
    },
    {
      "inputs": [],
      "name": "gelatoWithdrawBPS",
      "outputs": [
        {
          "internalType": "uint16",
          "name": "",
          "type": "uint16"
        }
      ],
      "stateMutability": "view",
      "type": "function"
    },
    {
      "inputs": [
        {
          "internalType": "uint256",
          "name": "amount0Max",
          "type": "uint256"
        },
        {
          "internalType": "uint256",
          "name": "amount1Max",
          "type": "uint256"
        }
      ],
      "name": "getMintAmounts",
      "outputs": [
        {
          "internalType": "uint256",
          "name": "amount0",
          "type": "uint256"
        },
        {
          "internalType": "uint256",
          "name": "amount1",
          "type": "uint256"
        },
        {
          "internalType": "uint256",
          "name": "mintAmount",
          "type": "uint256"
        }
      ],
      "stateMutability": "view",
      "type": "function"
    },
    {
      "inputs": [],
      "name": "getPositionID",
      "outputs": [
        {
          "internalType": "bytes32",
          "name": "positionID",
          "type": "bytes32"
        }
      ],
      "stateMutability": "view",
      "type": "function"
    },
    {
      "inputs": [],
      "name": "getUnderlyingBalances",
      "outputs": [
        {
          "internalType": "uint256",
          "name": "amount0Current",
          "type": "uint256"
        },
        {
          "internalType": "uint256",
          "name": "amount1Current",
          "type": "uint256"
        }
      ],
      "stateMutability": "view",
      "type": "function"
    },
    {
      "inputs": [
        {
          "internalType": "address",
          "name": "spender",
          "type": "address"
        },
        {
          "internalType": "uint256",
          "name": "addedValue",
          "type": "uint256"
        }
      ],
      "name": "increaseAllowance",
      "outputs": [
        {
          "internalType": "bool",
          "name": "",
          "type": "bool"
        }
      ],
      "stateMutability": "nonpayable",
      "type": "function"
    },
    {
      "inputs": [
        {
          "internalType": "string",
          "name": "_name",
          "type": "string"
        },
        {
          "internalType": "string",
          "name": "_symbol",
          "type": "string"
        },
        {
          "internalType": "address",
          "name": "_pool",
          "type": "address"
        },
        {
          "internalType": "uint16",
          "name": "_managerFeeBPS",
          "type": "uint16"
        },
        {
          "internalType": "int24",
          "name": "_lowerTick",
          "type": "int24"
        },
        {
          "internalType": "int24",
          "name": "_upperTick",
          "type": "int24"
        },
        {
          "internalType": "address",
          "name": "_manager_",
          "type": "address"
        }
      ],
      "name": "initialize",
      "outputs": [],
      "stateMutability": "nonpayable",
      "type": "function"
    },
    {
      "inputs": [
        {
          "internalType": "uint16",
          "name": "_managerFeeBPS",
          "type": "uint16"
        }
      ],
      "name": "initializeManagerFee",
      "outputs": [],
      "stateMutability": "nonpayable",
      "type": "function"
    },
    {
      "inputs": [],
      "name": "lowerTick",
      "outputs": [
        {
          "internalType": "int24",
          "name": "",
          "type": "int24"
        }
      ],
      "stateMutability": "view",
      "type": "function"
    },
    {
      "inputs": [],
      "name": "manager",
      "outputs": [
        {
          "internalType": "address",
          "name": "",
          "type": "address"
        }
      ],
      "stateMutability": "view",
      "type": "function"
    },
    {
      "inputs": [],
      "name": "managerBalance0",
      "outputs": [
        {
          "internalType": "uint256",
          "name": "",
          "type": "uint256"
        }
      ],
      "stateMutability": "view",
      "type": "function"
    },
    {
      "inputs": [],
      "name": "managerBalance1",
      "outputs": [
        {
          "internalType": "uint256",
          "name": "",
          "type": "uint256"
        }
      ],
      "stateMutability": "view",
      "type": "function"
    },
    {
      "inputs": [],
      "name": "managerFeeBPS",
      "outputs": [
        {
          "internalType": "uint16",
          "name": "",
          "type": "uint16"
        }
      ],
      "stateMutability": "view",
      "type": "function"
    },
    {
      "inputs": [],
      "name": "managerTreasury",
      "outputs": [
        {
          "internalType": "address",
          "name": "",
          "type": "address"
        }
      ],
      "stateMutability": "view",
      "type": "function"
    },
    {
      "inputs": [
        {
          "internalType": "uint256",
          "name": "mintAmount",
          "type": "uint256"
        },
        {
          "internalType": "address",
          "name": "receiver",
          "type": "address"
        }
      ],
      "name": "mint",
      "outputs": [
        {
          "internalType": "uint256",
          "name": "amount0",
          "type": "uint256"
        },
        {
          "internalType": "uint256",
          "name": "amount1",
          "type": "uint256"
        },
        {
          "internalType": "uint128",
          "name": "liquidityMinted",
          "type": "uint128"
        }
      ],
      "stateMutability": "nonpayable",
      "type": "function"
    },
    {
      "inputs": [],
      "name": "name",
      "outputs": [
        {
          "internalType": "string",
          "name": "",
          "type": "string"
        }
      ],
      "stateMutability": "view",
      "type": "function"
    },
    {
      "inputs": [],
      "name": "pool",
      "outputs": [
        {
          "internalType": "contract IUniswapV3Pool",
          "name": "",
          "type": "address"
        }
      ],
      "stateMutability": "view",
      "type": "function"
    },
    {
      "inputs": [
        {
          "internalType": "uint160",
          "name": "swapThresholdPrice",
          "type": "uint160"
        },
        {
          "internalType": "uint256",
          "name": "swapAmountBPS",
          "type": "uint256"
        },
        {
          "internalType": "bool",
          "name": "zeroForOne",
          "type": "bool"
        },
        {
          "internalType": "uint256",
          "name": "feeAmount",
          "type": "uint256"
        },
        {
          "internalType": "address",
          "name": "paymentToken",
          "type": "address"
        }
      ],
      "name": "rebalance",
      "outputs": [],
      "stateMutability": "nonpayable",
      "type": "function"
    },
    {
      "inputs": [],
      "name": "renounceOwnership",
      "outputs": [],
      "stateMutability": "nonpayable",
      "type": "function"
    },
    {
      "inputs": [],
      "name": "symbol",
      "outputs": [
        {
          "internalType": "string",
          "name": "",
          "type": "string"
        }
      ],
      "stateMutability": "view",
      "type": "function"
    },
    {
      "inputs": [],
      "name": "token0",
      "outputs": [
        {
          "internalType": "contract IERC20",
          "name": "",
          "type": "address"
        }
      ],
      "stateMutability": "view",
      "type": "function"
    },
    {
      "inputs": [],
      "name": "token1",
      "outputs": [
        {
          "internalType": "contract IERC20",
          "name": "",
          "type": "address"
        }
      ],
      "stateMutability": "view",
      "type": "function"
    },
    {
      "inputs": [],
      "name": "totalSupply",
      "outputs": [
        {
          "internalType": "uint256",
          "name": "",
          "type": "uint256"
        }
      ],
      "stateMutability": "view",
      "type": "function"
    },
    {
      "inputs": [
        {
          "internalType": "address",
          "name": "recipient",
          "type": "address"
        },
        {
          "internalType": "uint256",
          "name": "amount",
          "type": "uint256"
        }
      ],
      "name": "transfer",
      "outputs": [
        {
          "internalType": "bool",
          "name": "",
          "type": "bool"
        }
      ],
      "stateMutability": "nonpayable",
      "type": "function"
    },
    {
      "inputs": [
        {
          "internalType": "address",
          "name": "sender",
          "type": "address"
        },
        {
          "internalType": "address",
          "name": "recipient",
          "type": "address"
        },
        {
          "internalType": "uint256",
          "name": "amount",
          "type": "uint256"
        }
      ],
      "name": "transferFrom",
      "outputs": [
        {
          "internalType": "bool",
          "name": "",
          "type": "bool"
        }
      ],
      "stateMutability": "nonpayable",
      "type": "function"
    },
    {
      "inputs": [
        {
          "internalType": "address",
          "name": "newOwner",
          "type": "address"
        }
      ],
      "name": "transferOwnership",
      "outputs": [],
      "stateMutability": "nonpayable",
      "type": "function"
    },
    {
      "inputs": [
        {
          "internalType": "uint256",
          "name": "amount0Owed",
          "type": "uint256"
        },
        {
          "internalType": "uint256",
          "name": "amount1Owed",
          "type": "uint256"
        },
        {
          "internalType": "bytes",
          "name": "",
          "type": "bytes"
        }
      ],
      "name": "uniswapV3MintCallback",
      "outputs": [],
      "stateMutability": "nonpayable",
      "type": "function"
    },
    {
      "inputs": [
        {
          "internalType": "int256",
          "name": "amount0Delta",
          "type": "int256"
        },
        {
          "internalType": "int256",
          "name": "amount1Delta",
          "type": "int256"
        },
        {
          "internalType": "bytes",
          "name": "",
          "type": "bytes"
        }
      ],
      "name": "uniswapV3SwapCallback",
      "outputs": [],
      "stateMutability": "nonpayable",
      "type": "function"
    },
    {
      "inputs": [
        {
          "internalType": "uint16",
          "name": "newRebalanceBPS",
          "type": "uint16"
        },
        {
          "internalType": "uint16",
          "name": "newWithdrawBPS",
          "type": "uint16"
        },
        {
          "internalType": "uint16",
          "name": "newSlippageBPS",
          "type": "uint16"
        },
        {
          "internalType": "uint32",
          "name": "newSlippageInterval",
          "type": "uint32"
        },
        {
          "internalType": "address",
          "name": "newTreasury",
          "type": "address"
        }
      ],
      "name": "updateGelatoParams",
      "outputs": [],
      "stateMutability": "nonpayable",
      "type": "function"
    },
    {
      "inputs": [],
      "name": "upperTick",
      "outputs": [
        {
          "internalType": "int24",
          "name": "",
          "type": "int24"
        }
      ],
      "stateMutability": "view",
      "type": "function"
    },
    {
      "inputs": [],
      "name": "version",
      "outputs": [
        {
          "internalType": "string",
          "name": "",
          "type": "string"
        }
      ],
      "stateMutability": "view",
      "type": "function"
    },
    {
      "inputs": [
        {
          "internalType": "uint256",
          "name": "feeAmount",
          "type": "uint256"
        },
        {
          "internalType": "address",
          "name": "feeToken",
          "type": "address"
        }
      ],
      "name": "withdrawGelatoBalance",
      "outputs": [],
      "stateMutability": "nonpayable",
      "type": "function"
    },
    {
      "inputs": [
        {
          "internalType": "uint256",
          "name": "feeAmount",
          "type": "uint256"
        },
        {
          "internalType": "address",
          "name": "feeToken",
          "type": "address"
        }
      ],
      "name": "withdrawManagerBalance",
      "outputs": [],
      "stateMutability": "nonpayable",
      "type": "function"
    }
  ],
  "transactionHash": "0xf3c969c640c13c6e6f6ec84ff005fcfaaacceeb132da37b18b35542134cfecfb",
  "args": [
    "0xCc4CcD69D31F9FfDBD3BFfDe49c6aA886DaB98d9"
  ],
  "solcInputHash": "0cce3fad8f3de16d15d2c077c292658d",
  "bytecode": "0x60a06040523480156200001157600080fd5b50604051620060d4380380620060d483398101604081905262000034916200004a565b60601b6001600160601b0319166080526200007a565b6000602082840312156200005c578081fd5b81516001600160a01b038116811462000073578182fd5b9392505050565b60805160601c615ffc620000d8600039600081816105e101528181610f1401528181610ffd015281816110370152818161183c0152818161190a015281816119440152818161197f015281816119f60152611a330152615ffc6000f3fe608060405234801561001057600080fd5b506004361061021a5760003560e01c8063065756db1461021f57806306fdde031461023b578063095ea7b3146102505780630dfe1681146102735780631322d9541461029357806316f0115b146102b057806318160ddd146102c357806323b872dd146102cb57806324b8fd1b146102de57806331366be4146102f3578063313ce5671461030e578063395093511461031d5780633d8b30e11461033057806342fb9d4414610345578063481c6a751461034e57806354fd4d5014610356578063672152bd1461037a57806370a082311461039f578063715018a6146103c8578063727dd228146103d057806378ac6357146103f157806394bf804d1461040457806395d89b411461043b5780639894f21a1461044357806399fd808c146104715780639b1344ac14610484578063a457c2d714610498578063a50b1fe7146104ab578063a9059cbb146104c0578063b135c99f146104d3578063b536bd12146104e6578063be93dd5f146104ef578063c345445914610502578063cc95353e1461050b578063ccdf7a0214610525578063d21220a71461053a578063d34879971461054d578063d6e7ff3914610560578063dd62ed3e14610575578063df28408a146105ae578063e25e15e3146105b6578063e4077894146105c9578063eff557a7146105dc578063f2fde38b14610603578063fa461e3314610616578063fcd3533c14610629575b600080fd5b61022860995481565b6040519081526020015b60405180910390f35b61024361063c565b6040516102329190615a54565b61026361025e366004615370565b6106ce565b6040519015158152602001610232565b609e54610286906001600160a01b031681565b604051610232919061590c565b61029b6106e4565b60408051928352602083019190915201610232565b609d54610286906001600160a01b031681565b603554610228565b6102636102d9366004615330565b610a26565b6102f16102ec36600461547a565b610ade565b005b6102fb606481565b60405161ffff9091168152602001610232565b60405160128152602001610232565b61026361032b366004615370565b610e6b565b6097546102fb90600160e01b900461ffff1681565b610228609a5481565b610286610ea2565b610243604051806040016040528060058152602001640312e302e360dc1b81525081565b60985461038a9063ffffffff1681565b60405163ffffffff9091168152602001610232565b6102286103ad3660046152c0565b6001600160a01b031660009081526033602052604090205490565b6102f1610eb1565b6097546103e490600160b81b900460020b81565b6040516102329190615a20565b6102f16103ff3660046158ab565b610f07565b6104176104123660046158ab565b611062565b6040805193845260208401929092526001600160801b031690820152606001610232565b610243611466565b6104566104513660046158cf565b611475565b60408051938452602084019290925290820152606001610232565b6102f161047f366004615831565b6115c7565b6097546103e490600160a01b900460020b81565b6102636104a6366004615370565b611787565b6097546102fb90600160d01b900461ffff1681565b6102636104ce366004615370565b611822565b6102f16104e13660046157e1565b61182f565b610228609b5481565b6102f16104fd3660046158ab565b611972565b610228609c5481565b60985461028690600160301b90046001600160a01b031681565b6098546102fb90600160201b900461ffff1681565b609f54610286906001600160a01b031681565b6102f161055b366004615504565b611a58565b6097546102fb90600160f01b900461ffff1681565b6102286105833660046152f8565b6001600160a01b03918216600090815260346020908152604080832093909416825291909152205490565b610228611aa9565b6102f16105c4366004615554565b611ab8565b6102f16105d7366004615735565b611d55565b6102867f000000000000000000000000000000000000000000000000000000000000000081565b6102f16106113660046152c0565b611e2b565b6102f1610624366004615504565b611f0b565b6104176106373660046158ab565b611f62565b60606036805461064b90615e2b565b80601f016020809104026020016040519081016040528092919081815260200182805461067790615e2b565b80156106c45780601f10610699576101008083540402835291602001916106c4565b820191906000526020600020905b8154815290600101906020018083116106a757829003601f168201915b5050505050905090565b60006106db3384846123e0565b50600192915050565b609d546000908190819081908190819081906001600160a01b031663514ea4bf61070c612505565b6040518263ffffffff1660e01b815260040161072a91815260200190565b60a06040518083038186803b15801561074257600080fd5b505afa158015610756573d6000803e3d6000fd5b505050506040513d601f19601f8201168201806040525081019061077a91906156df565b94509450945094509450600080609d60009054906101000a90046001600160a01b03166001600160a01b0316633850c7bd6040518163ffffffff1660e01b815260040160e06040518083038186803b1580156107d557600080fd5b505afa1580156107e9573d6000803e3d6000fd5b505050506040513d601f19601f8201168201806040525081019061080d9190615751565b50505050509150915061085582610835609760149054906101000a900460020b60020b61256b565b60975461084f90600160b81b9004600290810b900b61256b565b8a61297d565b909950975060006001600160801b038516610873600189858c612a1a565b61087d9190615cc6565b90506000846001600160801b0316610898600089868d612a1a565b6108a29190615cc6565b90506108ae8282612e26565b609b54609954609e546040516370a0823160e01b8152949650929450909290916001600160a01b0316906370a08231906108ec90309060040161590c565b60206040518083038186803b15801561090457600080fd5b505afa158015610918573d6000803e3d6000fd5b505050506040513d601f19601f8201168201806040525081019061093c9190615893565b6109469085615cc6565b6109509190615de8565b61095a9190615de8565b610964908c615cc6565b609c54609a54609f546040516370a0823160e01b8152939e50919290916001600160a01b0316906370a082319061099f90309060040161590c565b60206040518083038186803b1580156109b757600080fd5b505afa1580156109cb573d6000803e3d6000fd5b505050506040513d601f19601f820116820180604052508101906109ef9190615893565b6109f99084615cc6565b610a039190615de8565b610a0d9190615de8565b610a17908b615cc6565b99505050505050505050509091565b6000610a33848484612ec1565b6001600160a01b038416600090815260346020908152604080832033845290915290205482811015610abd5760405162461bcd60e51b815260206004820152602860248201527f45524332303a207472616e7366657220616d6f756e74206578636565647320616044820152676c6c6f77616e636560c01b60648201526084015b60405180910390fd5b610ad18533610acc8685615de8565b6123e0565b60019150505b9392505050565b33610ae7610ea2565b6001600160a01b031614610b0d5760405162461bcd60e51b8152600401610ab490615b92565b609d546000906001600160a01b031663514ea4bf610b29612505565b6040518263ffffffff1660e01b8152600401610b4791815260200190565b60a06040518083038186803b158015610b5f57600080fd5b505afa158015610b73573d6000803e3d6000fd5b505050506040513d601f19601f82011682018060405250810190610b9791906156df565b5050609754929350600092839250610bc69150600160a01b8104600290810b91600160b81b9004900b85613087565b609854919350915061271090610be790600160201b900461ffff1684615d47565b610bf19190615d04565b60996000828254610c029190615cc6565b909155505060985461271090610c2390600160201b900461ffff1683615d47565b610c2d9190615d04565b609a6000828254610c3e9190615cc6565b909155506127109050610c52606484615d47565b610c5c9190615d04565b609b6000828254610c6d9190615cc6565b909155506127109050610c81606483615d47565b610c8b9190615d04565b609c6000828254610c9c9190615cc6565b909155505060978054600289810b62ffffff908116600160b81b0262ffffff60b81b19928d900b909116600160a01b029190911665ffffffffffff60a01b1990921691909117179055609b54609954609e546040516370a0823160e01b815260009392916001600160a01b0316906370a0823190610d1e90309060040161590c565b60206040518083038186803b158015610d3657600080fd5b505afa158015610d4a573d6000803e3d6000fd5b505050506040513d601f19601f82011682018060405250810190610d6e9190615893565b610d789190615de8565b610d829190615de8565b609c54609a54609f546040516370a0823160e01b81529394506000936001600160a01b03909116906370a0823190610dbe90309060040161590c565b60206040518083038186803b158015610dd657600080fd5b505afa158015610dea573d6000803e3d6000fd5b505050506040513d601f19601f82011682018060405250810190610e0e9190615893565b610e189190615de8565b610e229190615de8565b9050610e338a8a84848c8c8c6133f2565b6040805160028c810b82528b900b6020820152600080516020615f67833981519152910160405180910390a150505050505050505050565b3360008181526034602090815260408083206001600160a01b038716845290915281205490916106db918590610acc908690615cc6565b6097546001600160a01b031690565b33610eba610ea2565b6001600160a01b031614610ee05760405162461bcd60e51b8152600401610ab490615b92565b60988054600160201b600160d01b031916905560006099819055609a55610f056135a9565b565b8181336001600160a01b037f00000000000000000000000000000000000000000000000000000000000000001614610f515760405162461bcd60e51b8152600401610ab490615a87565b600080610f64609954609a548888613610565b60006099819055609a5590925090508115610f9e57609854609e54610f9e916001600160a01b0391821691600160301b909104168461372b565b8015610fc957609854609f54610fc9916001600160a01b0391821691600160301b909104168361372b565b50506001600160a01b03811673eeeeeeeeeeeeeeeeeeeeeeeeeeeeeeeeeeeeeeee1415611028576110236001600160a01b037f00000000000000000000000000000000000000000000000000000000000000001683613793565b61105c565b61105c6001600160a01b0382167f00000000000000000000000000000000000000000000000000000000000000008461372b565b50505050565b60008060006002606554141561108a5760405162461bcd60e51b8152600401610ab490615bf4565b6002606555846110ac5760405162461bcd60e51b8152600401610ab490615bd4565b60006110b760355490565b90506000609d60009054906101000a90046001600160a01b03166001600160a01b0316633850c7bd6040518163ffffffff1660e01b815260040160e06040518083038186803b15801561110957600080fd5b505afa15801561111d573d6000803e3d6000fd5b505050506040513d601f19601f820116820180604052508101906111419190615751565b505050505050905060008211156111825760008061115d6106e4565b9150915061116c828a866138a9565b9650611179818a866138a9565b955050506111bb565b6001600160801b0387111561119657600080fd5b6111b581610835609760149054906101000a900460020b60020b61256b565b90955093505b84156111d957609e546111d9906001600160a01b0316333088613900565b83156111f757609f546111f7906001600160a01b0316333087613900565b61136981611216609760149054906101000a900460020b60020b61256b565b60975461123090600160b81b9004600290810b900b61256b565b609b54609954609e546040516370a0823160e01b81526001600160a01b03909116906370a082319061126690309060040161590c565b60206040518083038186803b15801561127e57600080fd5b505afa158015611292573d6000803e3d6000fd5b505050506040513d601f19601f820116820180604052508101906112b69190615893565b6112c09190615de8565b6112ca9190615de8565b609c54609a54609f546040516370a0823160e01b81526001600160a01b03909116906370a082319061130090309060040161590c565b60206040518083038186803b15801561131857600080fd5b505afa15801561132c573d6000803e3d6000fd5b505050506040513d601f19601f820116820180604052508101906113509190615893565b61135a9190615de8565b6113649190615de8565b613938565b609d54609754604051633c8a7d8d60e01b81529295506001600160a01b0390911691633c8a7d8d916113b9913091600160a01b8104600290810b92600160b81b909204900b908990600401615920565b6040805180830381600087803b1580156113d257600080fd5b505af11580156113e6573d6000803e3d6000fd5b505050506040513d601f19601f8201168201806040525081019061140a91906154e1565b505061141686886139fb565b7f55801cfe493000b734571da1694b21e7f66b11e8ce9fdaa0524ecb59105e73e7868887878760405161144d95949392919061599f565b60405180910390a1505060016065819055509250925092565b60606037805461064b90615e2b565b60008060008061148460355490565b905080156114a357611497818787613ac8565b919550935091506115bf565b609d5460408051633850c7bd60e01b815290516000926001600160a01b031691633850c7bd9160048083019260e0929190829003018186803b1580156114e857600080fd5b505afa1580156114fc573d6000803e3d6000fd5b505050506040513d601f19601f820116820180604052508101906115209190615751565b5050505050509050600061156a82611549609760149054906101000a900460020b60020b61256b565b60975461156390600160b81b9004600290810b900b61256b565b8b8b613938565b9050806001600160801b031693506115b782611597609760149054906101000a900460020b60020b61256b565b6097546115b190600160b81b9004600290810b900b61256b565b8461297d565b909650945050505b509250925092565b336115d0610ea2565b6001600160a01b0316146115f65760405162461bcd60e51b8152600401610ab490615b92565b6127108461ffff16111561161c5760405162461bcd60e51b8152600401610ab490615b75565b6127108561ffff1611156116425760405162461bcd60e51b8152600401610ab490615b75565b6127108361ffff1611156116685760405162461bcd60e51b8152600401610ab490615b75565b6040805161ffff8781168252868116602083015285168183015263ffffffff8416606082015290517f0b7615006627cf7664941bc288d4641731f895e102f95cb8690583ad7508faa89181900360800190a161ffff8516156116df576097805461ffff60d01b1916600160d01b61ffff8816021790555b61ffff841615611704576097805461ffff60e01b1916600160e01b61ffff8716021790555b61ffff83161561172a57609780546001600160f01b0316600160f01b61ffff8616021790555b63ffffffff82161561174c576098805463ffffffff191663ffffffff84161790555b6001600160a01b038116156117805760988054600160301b600160d01b031916600160301b6001600160a01b038416021790555b5050505050565b3360009081526034602090815260408083206001600160a01b0386168452909152812054828110156118095760405162461bcd60e51b815260206004820152602560248201527f45524332303a2064656372656173656420616c6c6f77616e63652062656c6f77604482015264207a65726f60d81b6064820152608401610ab4565b6118183385610acc8685615de8565b5060019392505050565b60006106db338484612ec1565b8181336001600160a01b037f000000000000000000000000000000000000000000000000000000000000000016146118795760405162461bcd60e51b8152600401610ab490615a87565b8515611889576118898786613bd7565b6118968787878787613e88565b60975460408051600160a01b8304600290810b810b8252600160b81b909304830b90920b6020830152600080516020615f67833981519152910160405180910390a16001600160a01b03811673eeeeeeeeeeeeeeeeeeeeeeeeeeeeeeeeeeeeeeee1415611935576119306001600160a01b037f00000000000000000000000000000000000000000000000000000000000000001683613793565b611969565b6119696001600160a01b0382167f00000000000000000000000000000000000000000000000000000000000000008461372b565b50505050505050565b8181336001600160a01b037f000000000000000000000000000000000000000000000000000000000000000016146119bc5760405162461bcd60e51b8152600401610ab490615a87565b6000806119cf609b54609c548888613610565b6000609b819055609c5590925090508115611a1b57609e54611a1b906001600160a01b03167f00000000000000000000000000000000000000000000000000000000000000008461372b565b8015610fc957609f54610fc9906001600160a01b03167f00000000000000000000000000000000000000000000000000000000000000008361372b565b609d546001600160a01b03163314611a6f57600080fd5b8315611a8c57609e54611a8c906001600160a01b0316338661372b565b821561105c57609f5461105c906001600160a01b0316338561372b565b6000611ab3612505565b905090565b600054610100900460ff1680611ad1575060005460ff16155b611aed5760405162461bcd60e51b8152600401610ab490615b05565b600054610100900460ff16158015611b0f576000805461ffff19166101011790555b611b1c6064612710615da5565b61ffff168561ffff161115611b435760405162461bcd60e51b8152600401610ab490615ab8565b609d80546001600160a01b0319166001600160a01b03881690811790915560408051630dfe168160e01b81529051630dfe168191600480820192602092909190829003018186803b158015611b9757600080fd5b505afa158015611bab573d6000803e3d6000fd5b505050506040513d601f19601f82011682018060405250810190611bcf91906152dc565b609e80546001600160a01b0319166001600160a01b03928316179055609d546040805163d21220a760e01b81529051919092169163d21220a7916004808301926020929190829003018186803b158015611c2857600080fd5b505afa158015611c3c573d6000803e3d6000fd5b505050506040513d601f19601f82011682018060405250810190611c6091906152dc565b609f80546001600160a01b03199081166001600160a01b0393841617909155609880546097805461012c65ffffffffffff19909316600160201b61ffff8d160263ffffffff19161792909217600160301b600160d01b031916600160301b95881695860217909255643e800c801960d31b600165ffffff00000160a01b03909116600160a01b60028a810b62ffffff908116929092029290921792909217600165ffffff00000160a01b031916600160b81b9189900b9290921602909216919091179091179055611d31888861447b565b611d396144fa565b8015611d4b576000805461ff00191690555b5050505050505050565b33611d5e610ea2565b6001600160a01b031614611d845760405162461bcd60e51b8152600401610ab490615b92565b609854600160201b900461ffff1615611dc55760405162461bcd60e51b815260206004820152600360248201526266656560e81b6044820152606401610ab4565b60008161ffff16118015611ded5750611de16064612710615da5565b61ffff168161ffff1611155b611e095760405162461bcd60e51b8152600401610ab490615ab8565b6098805461ffff909216600160201b0261ffff60201b19909216919091179055565b33611e34610ea2565b6001600160a01b031614611e5a5760405162461bcd60e51b8152600401610ab490615b92565b6001600160a01b038116611ec15760405162461bcd60e51b815260206004820152602860248201527f4f776e61626c653a206e6577206d616e6167657220697320746865207a65726f604482015267206164647265737360c01b6064820152608401610ab4565b6097546040516001600160a01b03808416921690600080516020615f8783398151915290600090a3609780546001600160a01b0319166001600160a01b0392909216919091179055565b609d546001600160a01b03163314611f2257600080fd5b6000841315611f4257609e54611023906001600160a01b0316338661372b565b600083131561105c57609f5461105c906001600160a01b0316338561372b565b600080600060026065541415611f8a5760405162461bcd60e51b8152600401610ab490615bf4565b600260655584611fc55760405162461bcd60e51b815260206004820152600660248201526506275726e20360d41b6044820152606401610ab4565b6000611fd060355490565b609d549091506000906001600160a01b031663514ea4bf611fef612505565b6040518263ffffffff1660e01b815260040161200d91815260200190565b60a06040518083038186803b15801561202557600080fd5b505afa158015612039573d6000803e3d6000fd5b505050506040513d601f19601f8201168201806040525081019061205d91906156df565b50505050905061206d338861456e565b600061208388836001600160801b0316856146ab565b90506001600160801b03811061209857600080fd5b609e546040516370a0823160e01b815291945084916000916001600160a01b0316906370a08231906120ce90309060040161590c565b60206040518083038186803b1580156120e657600080fd5b505afa1580156120fa573d6000803e3d6000fd5b505050506040513d601f19601f8201168201806040525081019061211e9190615893565b609f546040516370a0823160e01b81529192506000916001600160a01b03909116906370a082319061215490309060040161590c565b60206040518083038186803b15801561216c57600080fd5b505afa158015612180573d6000803e3d6000fd5b505050506040513d601f19601f820116820180604052508101906121a49190615893565b905060006121cd8b609b54609954866121bd9190615de8565b6121c79190615de8565b886146ab565b905060006121f68c609c54609a54866121e69190615de8565b6121f09190615de8565b896146ab565b60975490915061221e90600160a01b8104600290810b91600160b81b9004900b8e8a8c61475a565b609e546040516370a0823160e01b8152839186916001600160a01b03909116906370a082319061225290309060040161590c565b60206040518083038186803b15801561226a57600080fd5b505afa15801561227e573d6000803e3d6000fd5b505050506040513d601f19601f820116820180604052508101906122a29190615893565b6122ac9190615de8565b6122b69190615cc6565b609f546040516370a0823160e01b8152919b50829185916001600160a01b0316906370a08231906122eb90309060040161590c565b60206040518083038186803b15801561230357600080fd5b505afa158015612317573d6000803e3d6000fd5b505050506040513d601f19601f8201168201806040525081019061233b9190615893565b6123459190615de8565b61234f9190615cc6565b9850891561236e57609e5461236e906001600160a01b03168c8c61372b565b881561238b57609f5461238b906001600160a01b03168c8b61372b565b7f7239dff1718b550db7f36cbf69c665cfeb56d0e96b4fb76a5cba712961b655098b8d8c8c8c6040516123c295949392919061599f565b60405180910390a15050505050505060016065819055509250925092565b6001600160a01b0383166124425760405162461bcd60e51b8152602060048201526024808201527f45524332303a20617070726f76652066726f6d20746865207a65726f206164646044820152637265737360e01b6064820152608401610ab4565b6001600160a01b0382166124a35760405162461bcd60e51b815260206004820152602260248201527f45524332303a20617070726f766520746f20746865207a65726f206164647265604482015261737360f01b6064820152608401610ab4565b6001600160a01b0383811660008181526034602090815260408083209487168084529482529182902085905590518481527f8c5be1e5ebec7d5bd14f71427d1e84f3dd0314c0f7b2291e5b200ac8c7c3b92591015b60405180910390a3505050565b6097546040516001600160601b03193060601b166020820152600160a01b8204600290810b810b60e890811b6034840152600160b81b909304810b900b90911b6037820152600090603a0160405160208183030381529060405280519060200120905090565b60008060008360020b12612582578260020b61258f565b8260020b61258f90615eb6565b905061259e620d89e719615e95565b60020b8111156125d45760405162461bcd60e51b81526020600482015260016024820152601560fa1b6044820152606401610ab4565b6000600182166125e857600160801b6125fa565b6ffffcb933bd6fad37aa2d162d1a5940015b6001600160881b03169050600282161561262f57608061262a826ffff97272373d413259a46990580e213a615d47565b901c90505b6004821615612659576080612654826ffff2e50f5f656932ef12357cf3c7fdcc615d47565b901c90505b600882161561268357608061267e826fffe5caca7e10e4e61c3624eaa0941cd0615d47565b901c90505b60108216156126ad5760806126a8826fffcb9843d60f6159c9db58835c926644615d47565b901c90505b60208216156126d75760806126d2826fff973b41fa98c081472e6896dfb254c0615d47565b901c90505b60408216156127015760806126fc826fff2ea16466c96a3843ec78b326b52861615d47565b901c90505b608082161561272b576080612726826ffe5dee046a99a2a811c461f1969c3053615d47565b901c90505b610100821615612756576080612751826ffcbe86c7900a88aedcffc83b479aa3a4615d47565b901c90505b61020082161561278157608061277c826ff987a7253ac413176f2b074cf7815e54615d47565b901c90505b6104008216156127ac5760806127a7826ff3392b0822b70005940c7a398e4b70f3615d47565b901c90505b6108008216156127d75760806127d2826fe7159475a2c29b7443b29c7fa6e889d9615d47565b901c90505b6110008216156128025760806127fd826fd097f3bdfd2022b8845ad8f792aa5825615d47565b901c90505b61200082161561282d576080612828826fa9f746462d870fdf8a65dc1f90e061e5615d47565b901c90505b614000821615612858576080612853826f70d869a156d2a1b890bb3df62baf32f7615d47565b901c90505b61800082161561288357608061287e826f31be135f97d08fd981231505542fcfa6615d47565b901c90505b620100008216156128af5760806128aa826f09aa508b5b7a84e1c677de54f3e99bc9615d47565b901c90505b620200008216156128da5760806128d5826e5d6af8dedb81196699c329225ee604615d47565b901c90505b620400008216156129045760806128ff826d2216e584f5fa1ea926041bedfe98615d47565b901c90505b6208000082161561292c576080612927826b048a170391f7dc42444e8fa2615d47565b901c90505b60008460020b13156129475761294481600019615d04565b90505b612955600160201b82615e81565b15612961576001612964565b60005b6129759060ff16602083901c615cc6565b949350505050565b600080836001600160a01b0316856001600160a01b0316111561299e579293925b846001600160a01b0316866001600160a01b031610156129ca576129c3858585614980565b9150612a11565b836001600160a01b0316866001600160a01b03161015612a03576129ef868585614980565b91506129fc8587856149ea565b9050612a11565b612a0e8585856149ea565b90505b94509492505050565b6000806000808715612be757609d60009054906101000a90046001600160a01b03166001600160a01b031663f30583996040518163ffffffff1660e01b815260040160206040518083038186803b158015612a7457600080fd5b505afa158015612a88573d6000803e3d6000fd5b505050506040513d601f19601f82011682018060405250810190612aac9190615893565b609d5460975460405163f30dba9360e01b81529293506001600160a01b039091169163f30dba9391612aec91600160a01b90910460020b90600401615a20565b6101006040518083038186803b158015612b0557600080fd5b505afa158015612b19573d6000803e3d6000fd5b505050506040513d601f19601f82011682018060405250810190612b3d9190615613565b5050609d5460975460405163f30dba9360e01b8152959a506001600160a01b03909116965063f30dba939550612b8694600160b81b90910460020b93506004019150615a209050565b6101006040518083038186803b158015612b9f57600080fd5b505afa158015612bb3573d6000803e3d6000fd5b505050506040513d601f19601f82011682018060405250810190612bd79190615613565b50939750612da295505050505050565b609d60009054906101000a90046001600160a01b03166001600160a01b031663461413196040518163ffffffff1660e01b815260040160206040518083038186803b158015612c3557600080fd5b505afa158015612c49573d6000803e3d6000fd5b505050506040513d601f19601f82011682018060405250810190612c6d9190615893565b609d5460975460405163f30dba9360e01b81529293506001600160a01b039091169163f30dba9391612cad91600160a01b90910460020b90600401615a20565b6101006040518083038186803b158015612cc657600080fd5b505afa158015612cda573d6000803e3d6000fd5b505050506040513d601f19601f82011682018060405250810190612cfe9190615613565b5050609d5460975460405163f30dba9360e01b8152949a506001600160a01b03909116965063f30dba939550612d469450600160b81b900460020b926004019150615a209050565b6101006040518083038186803b158015612d5f57600080fd5b505afa158015612d73573d6000803e3d6000fd5b505050506040513d601f19601f82011682018060405250810190612d979190615613565b509297505050505050505b6000609760149054906101000a900460020b60020b8760020b12612dc7575082612dcc565b508281035b6000609760179054906101000a900460020b60020b8860020b1215612df2575082612df7565b508282035b818303819003612e176001600160801b0389168b8303600160801b6146ab565b9b9a5050505050505050505050565b6000806000612710609860049054906101000a900461ffff166064612e4b9190615c7e565b612e599061ffff1687615d47565b612e639190615d04565b60985490915060009061271090612e8690600160201b900461ffff166064615c7e565b612e949061ffff1687615d47565b612e9e9190615d04565b9050612eaa8287615de8565b9350612eb68186615de8565b925050509250929050565b6001600160a01b038316612f255760405162461bcd60e51b815260206004820152602560248201527f45524332303a207472616e736665722066726f6d20746865207a65726f206164604482015264647265737360d81b6064820152608401610ab4565b6001600160a01b038216612f875760405162461bcd60e51b815260206004820152602360248201527f45524332303a207472616e7366657220746f20746865207a65726f206164647260448201526265737360e81b6064820152608401610ab4565b6001600160a01b03831660009081526033602052604090205481811015612fff5760405162461bcd60e51b815260206004820152602660248201527f45524332303a207472616e7366657220616d6f756e7420657863656564732062604482015265616c616e636560d01b6064820152608401610ab4565b6130098282615de8565b6001600160a01b03808616600090815260336020526040808220939093559085168152908120805484929061303f908490615cc6565b92505081905550826001600160a01b0316846001600160a01b0316600080516020615fa78339815191528460405161307991815260200190565b60405180910390a350505050565b609e546040516370a0823160e01b8152600091829182916001600160a01b0316906370a08231906130bc90309060040161590c565b60206040518083038186803b1580156130d457600080fd5b505afa1580156130e8573d6000803e3d6000fd5b505050506040513d601f19601f8201168201806040525081019061310c9190615893565b609f546040516370a0823160e01b81529192506000916001600160a01b03909116906370a082319061314290309060040161590c565b60206040518083038186803b15801561315a57600080fd5b505afa15801561316e573d6000803e3d6000fd5b505050506040513d601f19601f820116820180604052508101906131929190615893565b609d5460405163a34123a760e01b815291925060009182916001600160a01b03169063a34123a7906131cc908c908c908c90600401615a2e565b6040805180830381600087803b1580156131e557600080fd5b505af11580156131f9573d6000803e3d6000fd5b505050506040513d601f19601f8201168201806040525081019061321d91906154e1565b609d546040516309e3d67b60e31b81529294509092506001600160a01b031690634f1eb3d8906132609030908d908d906001600160801b03908190600401615962565b6040805180830381600087803b15801561327957600080fd5b505af115801561328d573d6000803e3d6000fd5b505050506040513d601f19601f820116820180604052508101906132b191906156ad565b5050609e546040516370a0823160e01b8152839186916001600160a01b03909116906370a08231906132e790309060040161590c565b60206040518083038186803b1580156132ff57600080fd5b505afa158015613313573d6000803e3d6000fd5b505050506040513d601f19601f820116820180604052508101906133379190615893565b6133419190615de8565b61334b9190615de8565b609f546040516370a0823160e01b8152919750829185916001600160a01b0316906370a082319061338090309060040161590c565b60206040518083038186803b15801561339857600080fd5b505afa1580156133ac573d6000803e3d6000fd5b505050506040513d601f19601f820116820180604052508101906133d09190615893565b6133da9190615de8565b6133e49190615de8565b945050505050935093915050565b609d5460408051633850c7bd60e01b815290516000926001600160a01b031691633850c7bd9160048083019260e0929190829003018186803b15801561343757600080fd5b505afa15801561344b573d6000803e3d6000fd5b505050506040513d601f19601f8201168201806040525081019061346f9190615751565b5050505050509050600061349c826134898b60020b61256b565b6134958b60020b61256b565b8a8a613938565b90506001600160801b0381161561355957609d54604051633c8a7d8d60e01b815260009182916001600160a01b0390911690633c8a7d8d906134e89030908f908f908990600401615920565b6040805180830381600087803b15801561350157600080fd5b505af1158015613515573d6000803e3d6000fd5b505050506040513d601f19601f8201168201806040525081019061353991906154e1565b9092509050613548828a615de8565b98506135548189615de8565b975050505b6000612710858561356a578861356c565b895b6135769190615d47565b6135809190615d04565b9050600081131561359d5761359a8a8a8a8a858b8a614a34565b50505b50505050505050505050565b336135b2610ea2565b6001600160a01b0316146135d85760405162461bcd60e51b8152600401610ab490615b92565b6097546040516000916001600160a01b031690600080516020615f87833981519152908390a3609780546001600160a01b0319169055565b609e5460009081906001600160a01b03848116911614156136855760975484906127109061364990600160e01b900461ffff1689615d47565b6136539190615d04565b10156136715760405162461bcd60e51b8152600401610ab490615b53565b61367b8487615de8565b9150849050612a11565b609f546001600160a01b03848116911614156136f5576097548490612710906136b990600160e01b900461ffff1688615d47565b6136c39190615d04565b10156136e15760405162461bcd60e51b8152600401610ab490615b53565b6136eb8486615de8565b9050859150612a11565b60405162461bcd60e51b815260206004820152600b60248201526a3bb937b733903a37b5b2b760a91b6044820152606401610ab4565b6040516001600160a01b03831660248201526044810182905261378e90849063a9059cbb60e01b906064015b60408051601f198184030181529190526020810180516001600160e01b03166001600160e01b031990931692909217909152614c6a565b505050565b804710156137e35760405162461bcd60e51b815260206004820152601d60248201527f416464726573733a20696e73756666696369656e742062616c616e63650000006044820152606401610ab4565b6000826001600160a01b03168260405160006040518083038185875af1925050503d8060008114613830576040519150601f19603f3d011682016040523d82523d6000602084013e613835565b606091505b505090508061378e5760405162461bcd60e51b815260206004820152603a60248201527f416464726573733a20756e61626c6520746f2073656e642076616c75652c20726044820152791958da5c1a595b9d081b585e481a185d99481c995d995c9d195960321b6064820152608401610ab4565b60006138b68484846146ab565b9050600082806138d657634e487b7160e01b600052601260045260246000fd5b8486091115610ad75760001981106138ed57600080fd5b806138f781615e66565b95945050505050565b6040516001600160a01b038085166024830152831660448201526064810182905261105c9085906323b872dd60e01b90608401613757565b6000836001600160a01b0316856001600160a01b03161115613958579293925b846001600160a01b0316866001600160a01b031610156139845761397d858585614d3c565b90506138f7565b836001600160a01b0316866001600160a01b031610156139e65760006139ab878686614d3c565b905060006139ba878986614da6565b9050806001600160801b0316826001600160801b0316106139db57806139dd565b815b925050506138f7565b6139f1858584614da6565b9695505050505050565b6001600160a01b038216613a515760405162461bcd60e51b815260206004820152601f60248201527f45524332303a206d696e7420746f20746865207a65726f2061646472657373006044820152606401610ab4565b8060356000828254613a639190615cc6565b90915550506001600160a01b03821660009081526033602052604081208054839290613a90908490615cc6565b90915550506040518181526001600160a01b03831690600090600080516020615fa78339815191529060200160405180910390a35050565b6000806000806000613ad86106e4565b91509150816000148015613aec5750600081115b15613b0357613afc8689836146ab565b9250613bb2565b80158015613b115750600082115b15613b2157613afc8789846146ab565b81158015613b2d575080155b15613b545760405162461bcd60e51b81526020600482015260006024820152604401610ab4565b6000613b61888a856146ab565b90506000613b70888b856146ab565b9050600082118015613b825750600081115b613b9e5760405162461bcd60e51b8152600401610ab490615bd4565b808210613bab5780613bad565b815b945050505b613bbd83838a6138a9565b9450613bca83828a6138a9565b9350505093509350939050565b6040805160028082526060820183526000926020830190803683375050609854825192935063ffffffff1691839150600090613c2357634e487b7160e01b600052603260045260246000fd5b602002602001019063ffffffff16908163ffffffff1681525050600081600181518110613c6057634e487b7160e01b600052603260045260246000fd5b63ffffffff90921660209283029190910190910152609d5460405163883bdbfd60e01b81526000916001600160a01b03169063883bdbfd90613ca69085906004016159d6565b60006040518083038186803b158015613cbe57600080fd5b505afa158015613cd2573d6000803e3d6000fd5b505050506040513d6000823e601f3d908101601f19168201604052613cfa919081019061539b565b5090508051600214613d3d5760405162461bcd60e51b815260206004820152600c60248201526b0c2e4e4c2f240d8cadccee8d60a31b6044820152606401610ab4565b6098548151600091829163ffffffff90911660060b9084908390613d7157634e487b7160e01b600052603260045260246000fd5b602002602001015184600181518110613d9a57634e487b7160e01b600052603260045260246000fd5b60200260200101510360060b81613dc157634e487b7160e01b600052601260045260246000fd5b059050613dd08160020b61256b565b6097549092506000915061271090613df390600160f01b900461ffff1684615d18565b613dfd9190615cde565b90508415613e4557613e0f8183615dc8565b6001600160a01b0316866001600160a01b03161015613e405760405162461bcd60e51b8152600401610ab490615ad6565b613e80565b613e4f8183615ca4565b6001600160a01b0316866001600160a01b03161115613e805760405162461bcd60e51b8152600401610ab490615ad6565b505050505050565b609d546000906001600160a01b031663514ea4bf613ea4612505565b6040518263ffffffff1660e01b8152600401613ec291815260200190565b60a06040518083038186803b158015613eda57600080fd5b505afa158015613eee573d6000803e3d6000fd5b505050506040513d601f19601f82011682018060405250810190613f1291906156df565b5050609754929350600092839250613f419150600160a01b8104600290810b91600160b81b9004900b85613087565b609e54919350915060009081906001600160a01b03878116911614156141de57609754879061271090613f7f90600160d01b900461ffff1687615d47565b613f899190615d04565b1015613fa75760405162461bcd60e51b8152600401610ab490615b53565b60985461271090600160201b900461ffff16613fc38987615de8565b613fcd9190615d47565b613fd79190615d04565b60996000828254613fe89190615cc6565b90915550506098546127109061400990600160201b900461ffff1685615d47565b6140139190615d04565b609a60008282546140249190615cc6565b90915550612710905060646140398987615de8565b6140439190615d47565b61404d9190615d04565b609b600082825461405e9190615cc6565b909155506127109050614072606485615d47565b61407c9190615d04565b609c600082825461408d9190615cc6565b9091555050609b54609954609e546040516370a0823160e01b81528a9392916001600160a01b0316906370a08231906140ca90309060040161590c565b60206040518083038186803b1580156140e257600080fd5b505afa1580156140f6573d6000803e3d6000fd5b505050506040513d601f19601f8201168201806040525081019061411a9190615893565b6141249190615de8565b61412e9190615de8565b6141389190615de8565b609c54609a54609f546040516370a0823160e01b8152939550919290916001600160a01b0316906370a082319061417390309060040161590c565b60206040518083038186803b15801561418b57600080fd5b505afa15801561419f573d6000803e3d6000fd5b505050506040513d601f19601f820116820180604052508101906141c39190615893565b6141cd9190615de8565b6141d79190615de8565b9050614454565b609f546001600160a01b03878116911614156136f55760975487906127109061421290600160d01b900461ffff1686615d47565b61421c9190615d04565b101561423a5760405162461bcd60e51b8152600401610ab490615b53565b6098546127109061425690600160201b900461ffff1686615d47565b6142609190615d04565b609960008282546142719190615cc6565b909155505060985461271090600160201b900461ffff166142928986615de8565b61429c9190615d47565b6142a69190615d04565b609a60008282546142b79190615cc6565b9091555061271090506142cb606486615d47565b6142d59190615d04565b609b60008282546142e69190615cc6565b90915550612710905060646142fb8986615de8565b6143059190615d47565b61430f9190615d04565b609c60008282546143209190615cc6565b9091555050609b54609954609e546040516370a0823160e01b81526001600160a01b03909116906370a082319061435b90309060040161590c565b60206040518083038186803b15801561437357600080fd5b505afa158015614387573d6000803e3d6000fd5b505050506040513d601f19601f820116820180604052508101906143ab9190615893565b6143b59190615de8565b6143bf9190615de8565b609c54609a54609f546040516370a0823160e01b81529395508a936001600160a01b03909116906370a08231906143fa90309060040161590c565b60206040518083038186803b15801561441257600080fd5b505afa158015614426573d6000803e3d6000fd5b505050506040513d601f19601f8201168201806040525081019061444a9190615893565b6141c39190615de8565b60975461359d90600160a01b8104600290810b91600160b81b9004900b84848e8e8e6133f2565b600054610100900460ff1680614494575060005460ff16155b6144b05760405162461bcd60e51b8152600401610ab490615b05565b600054610100900460ff161580156144d2576000805461ffff19166101011790555b6144da614ddc565b6144e48383614e46565b801561378e576000805461ff0019169055505050565b600054610100900460ff1680614513575060005460ff16155b61452f5760405162461bcd60e51b8152600401610ab490615b05565b600054610100900460ff16158015614551576000805461ffff19166101011790555b614559614edb565b801561456b576000805461ff00191690555b50565b6001600160a01b0382166145ce5760405162461bcd60e51b815260206004820152602160248201527f45524332303a206275726e2066726f6d20746865207a65726f206164647265736044820152607360f81b6064820152608401610ab4565b6001600160a01b038216600090815260336020526040902054818110156146425760405162461bcd60e51b815260206004820152602260248201527f45524332303a206275726e20616d6f756e7420657863656564732062616c616e604482015261636560f01b6064820152608401610ab4565b61464c8282615de8565b6001600160a01b0384166000908152603360205260408120919091556035805484929061467a908490615de8565b90915550506040518281526000906001600160a01b03851690600080516020615fa7833981519152906020016124f8565b6000808060001985870985870292508281108382030391505080600014156146e557600084116146da57600080fd5b508290049050610ad7565b8084116146f157600080fd5b60008486880960026001871981018816978890046003810283188082028403028082028403028082028403028082028403028082028403029081029092039091026000889003889004909101858311909403939093029303949094049190911702949350505050565b609d5460405163a34123a760e01b815260009182916001600160a01b039091169063a34123a790614793908a908a908890600401615a2e565b6040805180830381600087803b1580156147ac57600080fd5b505af11580156147c0573d6000803e3d6000fd5b505050506040513d601f19601f820116820180604052508101906147e491906154e1565b609d54919350915060009081906001600160a01b031663514ea4bf614807612505565b6040518263ffffffff1660e01b815260040161482591815260200190565b60a06040518083038186803b15801561483d57600080fd5b505afa158015614851573d6000803e3d6000fd5b505050506040513d601f19601f8201168201806040525081019061487591906156df565b94509450505050600084836001600160801b03166148939190615de8565b905060006148aa856001600160801b038516615de8565b90506148b68282612e26565b90925090506148c689838a6146ab565b6148d09087615cc6565b95506148dd89828a6146ab565b6148e79086615cc6565b609d546040516309e3d67b60e31b81529196506001600160a01b031690634f1eb3d8906149209030908f908f908c908c90600401615962565b6040805180830381600087803b15801561493957600080fd5b505af115801561494d573d6000803e3d6000fd5b505050506040513d601f19601f8201168201806040525081019061497191906156ad565b50505050505050505050505050565b6000826001600160a01b0316846001600160a01b031611156149a0579192915b6001600160a01b0384166149e0600160601b600160e01b03606085901b166149c88787615dc8565b6001600160a01b0316866001600160a01b03166146ab565b6129759190615d04565b6000826001600160a01b0316846001600160a01b03161115614a0a579192915b6129756001600160801b038316614a218686615dc8565b6001600160a01b0316600160601b6146ab565b609d54604051630251596160e31b81523060048201528215156024820152604481018590526001600160a01b03848116606483015260a06084830152600060a4830181905292839283928392169063128acb089060c4016040805180830381600087803b158015614aa457600080fd5b505af1158015614ab8573d6000803e3d6000fd5b505050506040513d601f19601f82011682018060405250810190614adc91906154e1565b9092509050614aeb828a615d66565b9350614af78189615d66565b92506000609d60009054906101000a90046001600160a01b03166001600160a01b0316633850c7bd6040518163ffffffff1660e01b815260040160e06040518083038186803b158015614b4957600080fd5b505afa158015614b5d573d6000803e3d6000fd5b505050506040513d601f19601f82011682018060405250810190614b819190615751565b50505050505090506000614bae82614b9b8f60020b61256b565b614ba78f60020b61256b565b8989613938565b90506001600160801b03811615614c5a57609d60009054906101000a90046001600160a01b03166001600160a01b0316633c8a7d8d308f8f856040518563ffffffff1660e01b8152600401614c069493929190615920565b6040805180830381600087803b158015614c1f57600080fd5b505af1158015614c33573d6000803e3d6000fd5b505050506040513d601f19601f82011682018060405250810190614c5791906154e1565b50505b5050505097509795505050505050565b6000614cbf826040518060400160405280602081526020017f5361666545524332303a206c6f772d6c6576656c2063616c6c206661696c6564815250856001600160a01b0316614f4b9092919063ffffffff16565b80519091501561378e5780806020019051810190614cdd919061545e565b61378e5760405162461bcd60e51b815260206004820152602a60248201527f5361666545524332303a204552433230206f7065726174696f6e20646964206e6044820152691bdd081cdd58d8d9595960b21b6064820152608401610ab4565b6000826001600160a01b0316846001600160a01b03161115614d5c579192915b6000614d7f856001600160a01b0316856001600160a01b0316600160601b6146ab565b90506138f7614da18483614d938989615dc8565b6001600160a01b03166146ab565b614f5a565b6000826001600160a01b0316846001600160a01b03161115614dc6579192915b612975614da183600160601b614d938888615dc8565b600054610100900460ff1680614df5575060005460ff16155b614e115760405162461bcd60e51b8152600401610ab490615b05565b600054610100900460ff16158015614559576000805461ffff1916610101179055801561456b576000805461ff001916905550565b600054610100900460ff1680614e5f575060005460ff16155b614e7b5760405162461bcd60e51b8152600401610ab490615b05565b600054610100900460ff16158015614e9d576000805461ffff19166101011790555b8251614eb09060369060208601906150d6565b508151614ec49060379060208501906150d6565b50801561378e576000805461ff0019169055505050565b600054610100900460ff1680614ef4575060005460ff16155b614f105760405162461bcd60e51b8152600401610ab490615b05565b600054610100900460ff16158015614f32576000805461ffff19166101011790555b6001606555801561456b576000805461ff001916905550565b60606129758484600085614f75565b806001600160801b0381168114614f7057600080fd5b919050565b606082471015614fd65760405162461bcd60e51b815260206004820152602660248201527f416464726573733a20696e73756666696369656e742062616c616e636520666f6044820152651c8818d85b1b60d21b6064820152608401610ab4565b843b6150245760405162461bcd60e51b815260206004820152601d60248201527f416464726573733a2063616c6c20746f206e6f6e2d636f6e74726163740000006044820152606401610ab4565b600080866001600160a01b0316858760405161504091906158f0565b60006040518083038185875af1925050503d806000811461507d576040519150601f19603f3d011682016040523d82523d6000602084013e615082565b606091505b509150915061509282828661509d565b979650505050505050565b606083156150ac575081610ad7565b8251156150bc5782518084602001fd5b8160405162461bcd60e51b8152600401610ab49190615a54565b8280546150e290615e2b565b90600052602060002090601f016020900481019282615104576000855561514a565b82601f1061511d57805160ff191683800117855561514a565b8280016001018555821561514a579182015b8281111561514a57825182559160200191906001019061512f565b5061515692915061515a565b5090565b5b80821115615156576000815560010161515b565b600082601f83011261517f578081fd5b8151602061519461518f83615c5b565b615c2b565b80838252828201915082860187848660051b89010111156151b3578586fd5b855b858110156151da5781516151c881615f12565b845292840192908401906001016151b5565b5090979650505050505050565b60008083601f8401126151f8578182fd5b5081356001600160401b0381111561520e578182fd5b60208301915083602082850101111561522657600080fd5b9250929050565b8051600681900b8114614f7057600080fd5b600082601f83011261524f578081fd5b81356001600160401b0381111561526857615268615efc565b61527b601f8201601f1916602001615c2b565b81815284602083860101111561528f578283fd5b816020850160208301379081016020019190915292915050565b80516001600160801b0381168114614f7057600080fd5b6000602082840312156152d1578081fd5b8135610ad781615f12565b6000602082840312156152ed578081fd5b8151610ad781615f12565b6000806040838503121561530a578081fd5b823561531581615f12565b9150602083013561532581615f12565b809150509250929050565b600080600060608486031215615344578081fd5b833561534f81615f12565b9250602084013561535f81615f12565b929592945050506040919091013590565b60008060408385031215615382578182fd5b823561538d81615f12565b946020939093013593505050565b600080604083850312156153ad578182fd5b82516001600160401b03808211156153c3578384fd5b818501915085601f8301126153d6578384fd5b815160206153e661518f83615c5b565b8083825282820191508286018a848660051b8901011115615405578889fd5b8896505b8487101561542e5761541a8161522d565b835260019690960195918301918301615409565b5091880151919650909350505080821115615447578283fd5b506154548582860161516f565b9150509250929050565b60006020828403121561546f578081fd5b8151610ad781615f27565b600080600080600060a08688031215615491578283fd5b853561549c81615f35565b945060208601356154ac81615f35565b935060408601356154bc81615f12565b92506060860135915060808601356154d381615f27565b809150509295509295909350565b600080604083850312156154f3578182fd5b505080516020909101519092909150565b60008060008060608587031215615519578182fd5b843593506020850135925060408501356001600160401b0381111561553c578283fd5b615548878288016151e7565b95989497509550505050565b600080600080600080600060e0888a03121561556e578485fd5b87356001600160401b0380821115615584578687fd5b6155908b838c0161523f565b985060208a01359150808211156155a5578687fd5b506155b28a828b0161523f565b96505060408801356155c381615f12565b945060608801356155d381615f44565b935060808801356155e381615f35565b925060a08801356155f381615f35565b915060c088013561560381615f12565b8091505092959891949750929550565b600080600080600080600080610100898b03121561562f578182fd5b615638896152a9565b9750602089015180600f0b811461564d578283fd5b60408a015160608b01519198509650945061566a60808a0161522d565b935060a089015161567a81615f12565b60c08a015190935061568b81615f54565b60e08a015190925061569c81615f27565b809150509295985092959890939650565b600080604083850312156156bf578182fd5b6156c8836152a9565b91506156d6602084016152a9565b90509250929050565b600080600080600060a086880312156156f6578283fd5b6156ff866152a9565b9450602086015193506040860151925061571b606087016152a9565b9150615729608087016152a9565b90509295509295909350565b600060208284031215615746578081fd5b8135610ad781615f44565b600080600080600080600060e0888a03121561576b578081fd5b875161577681615f12565b602089015190975061578781615f35565b604089015190965061579881615f44565b60608901519095506157a981615f44565b60808901519094506157ba81615f44565b60a089015190935060ff811681146157d0578182fd5b60c089015190925061560381615f27565b600080600080600060a086880312156157f8578283fd5b853561580381615f12565b945060208601359350604086013561581a81615f27565b92506060860135915060808601356154d381615f12565b600080600080600060a08688031215615848578283fd5b853561585381615f44565b9450602086013561586381615f44565b9350604086013561587381615f44565b9250606086013561588381615f54565b915060808601356154d381615f12565b6000602082840312156158a4578081fd5b5051919050565b600080604083850312156158bd578182fd5b82359150602083013561532581615f12565b600080604083850312156158e1578182fd5b50508035926020909101359150565b60008251615902818460208701615dff565b9190910192915050565b6001600160a01b0391909116815260200190565b6001600160a01b03949094168452600292830b6020850152910b60408301526001600160801b0316606082015260a06080820181905260009082015260c00190565b6001600160a01b03959095168552600293840b60208601529190920b60408401526001600160801b03918216606084015216608082015260a00190565b6001600160a01b039590951685526020850193909352604084019190915260608301526001600160801b0316608082015260a00190565b6020808252825182820181905260009190848201906040850190845b81811015615a1457835163ffffffff16835292840192918401916001016159f2565b50909695505050505050565b60029190910b815260200190565b600293840b81529190920b60208201526001600160801b03909116604082015260600190565b6020815260008251806020840152615a73816040850160208701615dff565b601f01601f19169190910160400192915050565b60208082526017908201527647656c61746f666965643a204f6e6c792067656c61746f60481b604082015260600190565b6020808252600490820152636d42505360e01b604082015260600190565b602080825260159082015274756e61636365707461626c6520736c69707061676560581b604082015260600190565b6020808252602e908201527f496e697469616c697a61626c653a20636f6e747261637420697320616c72656160408201526d191e481a5b9a5d1a585b1a5e995960921b606082015260800190565b602080825260089082015267686967682066656560c01b604082015260600190565b60208082526003908201526242505360e81b604082015260600190565b60208082526022908201527f4f776e61626c653a2063616c6c6572206973206e6f7420746865206d616e616760408201526132b960f11b606082015260800190565b60208082526006908201526506d696e7420360d41b604082015260600190565b6020808252601f908201527f5265656e7472616e637947756172643a207265656e7472616e742063616c6c00604082015260600190565b604051601f8201601f191681016001600160401b0381118282101715615c5357615c53615efc565b604052919050565b60006001600160401b03821115615c7457615c74615efc565b5060051b60200190565b600061ffff808316818516808303821115615c9b57615c9b615ed0565b01949350505050565b60006001600160a01b03828116848216808303821115615c9b57615c9b615ed0565b60008219821115615cd957615cd9615ed0565b500190565b60006001600160a01b0383811680615cf857615cf8615ee6565b92169190910492915050565b600082615d1357615d13615ee6565b500490565b60006001600160a01b0382811684821681151582840482111615615d3e57615d3e615ed0565b02949350505050565b6000816000190483118215151615615d6157615d61615ed0565b500290565b60008083128015600160ff1b850184121615615d8457615d84615ed0565b6001600160ff1b0384018313811615615d9f57615d9f615ed0565b50500390565b600061ffff83811690831681811015615dc057615dc0615ed0565b039392505050565b60006001600160a01b0383811690831681811015615dc057615dc0615ed0565b600082821015615dfa57615dfa615ed0565b500390565b60005b83811015615e1a578181015183820152602001615e02565b8381111561105c5750506000910152565b600181811c90821680615e3f57607f821691505b60208210811415615e6057634e487b7160e01b600052602260045260246000fd5b50919050565b6000600019821415615e7a57615e7a615ed0565b5060010190565b600082615e9057615e90615ee6565b500690565b60008160020b627fffff19811415615eaf57615eaf615ed0565b9003919050565b6000600160ff1b821415615ecc57615ecc615ed0565b0390565b634e487b7160e01b600052601160045260246000fd5b634e487b7160e01b600052601260045260246000fd5b634e487b7160e01b600052604160045260246000fd5b6001600160a01b038116811461456b57600080fd5b801515811461456b57600080fd5b8060020b811461456b57600080fd5b61ffff8116811461456b57600080fd5b63ffffffff8116811461456b57600080fdfea40d93a72f8af7b904f2e4a60095955bfcaa3c724969f731bd8bc1fda226a1718be0079c531659141344cd1fd0a4f28419497f9722a3daafe3b4186f6b6457e0ddf252ad1be2c89b69c2b068fc378daa952ba7f163c4a11628f55a4df523b3efa2646970667358221220b3da908b505a5534b959b8272126080a608704282cb04ad50559eecb89a982ac64736f6c63430008040033",
  "devdoc": {
    "kind": "dev",
    "methods": {
      "allowance(address,address)": {
        "details": "See {IERC20-allowance}."
      },
      "approve(address,uint256)": {
        "details": "See {IERC20-approve}. Requirements: - `spender` cannot be the zero address."
      },
      "balanceOf(address)": {
        "details": "See {IERC20-balanceOf}."
      },
      "burn(uint256,address)": {
        "params": {
          "burnAmount": "The number of G-UNI tokens to burn",
          "receiver": "The account to receive the underlying amounts of token0 and token1"
        },
        "returns": {
          "amount0": "amount of token0 transferred to receiver for burning `burnAmount`",
          "amount1": "amount of token1 transferred to receiver for burning `burnAmount`",
          "liquidityBurned": "amount of liquidity removed from the underlying Uniswap V3 position"
        }
      },
      "decimals()": {
        "details": "Returns the number of decimals used to get its user representation. For example, if `decimals` equals `2`, a balance of `505` tokens should be displayed to a user as `5,05` (`505 / 10 ** 2`). Tokens usually opt for a value of 18, imitating the relationship between Ether and Wei. This is the value {ERC20} uses, unless this function is overridden; NOTE: This information is only used for _display_ purposes: it in no way affects any of the arithmetic of the contract, including {IERC20-balanceOf} and {IERC20-transfer}."
      },
      "decreaseAllowance(address,uint256)": {
        "details": "Atomically decreases the allowance granted to `spender` by the caller. This is an alternative to {approve} that can be used as a mitigation for problems described in {IERC20-approve}. Emits an {Approval} event indicating the updated allowance. Requirements: - `spender` cannot be the zero address. - `spender` must have allowance for the caller of at least `subtractedValue`."
      },
      "executiveRebalance(int24,int24,uint160,uint256,bool)": {
        "details": "When changing the range the inventory of token0 and token1 may be rebalanced with a swap to deposit as much liquidity as possible into the new position. Swap parameters can be computed by simulating the whole operation: remove all liquidity, deposit as much as possible into new position, then observe how much of token0 or token1 is leftover. Swap a proportion of this leftover to deposit more liquidity into the position, since any leftover will be unused and sit idle until the next rebalance.",
        "params": {
          "newLowerTick": "The new lower bound of the position's range",
          "newUpperTick": "The new upper bound of the position's range",
          "swapAmountBPS": "amount of token to swap as proportion of total. Pass 0 to ignore swap.",
          "swapThresholdPrice": "slippage parameter on the swap as a max or min sqrtPriceX96",
          "zeroForOne": "Which token to input into the swap (true = token0, false = token1)"
        }
      },
      "getMintAmounts(uint256,uint256)": {
        "params": {
          "amount0Max": "The maximum amount of token1 to forward on mint"
        },
        "returns": {
          "amount0": "actual amount of token0 to forward when minting `mintAmount`",
          "amount1": "actual amount of token1 to forward when minting `mintAmount`",
          "mintAmount": "maximum number of G-UNI tokens to mint"
        }
      },
      "getUnderlyingBalances()": {
        "returns": {
          "amount0Current": "current total underlying balance of token0",
          "amount1Current": "current total underlying balance of token1"
        }
      },
      "increaseAllowance(address,uint256)": {
        "details": "Atomically increases the allowance granted to `spender` by the caller. This is an alternative to {approve} that can be used as a mitigation for problems described in {IERC20-approve}. Emits an {Approval} event indicating the updated allowance. Requirements: - `spender` cannot be the zero address."
      },
      "initialize(string,string,address,uint16,int24,int24,address)": {
        "params": {
          "_lowerTick": "initial upperTick (only changeable with executiveRebalance)",
          "_managerFeeBPS": "proportion of fees earned that go to manager treasury note that the 4 above params are NOT UPDATEABLE AFTER INILIALIZATION",
          "_manager_": "address of manager (ownership can be transferred)",
          "_name": "name of G-UNI token",
          "_pool": "address of Uniswap V3 pool",
          "_symbol": "symbol of G-UNI token"
        }
      },
      "initializeManagerFee(uint16)": {
        "params": {
          "_managerFeeBPS": "proportion of fees earned that are credited to manager in Basis Points"
        }
      },
      "manager()": {
        "details": "Returns the address of the current manager."
      },
      "mint(uint256,address)": {
        "details": "to compute the amouint of tokens necessary to mint `mintAmount` see getMintAmounts",
        "params": {
          "mintAmount": "The number of G-UNI tokens to mint",
          "receiver": "The account to receive the minted tokens"
        },
        "returns": {
          "amount0": "amount of token0 transferred from msg.sender to mint `mintAmount`",
          "amount1": "amount of token1 transferred from msg.sender to mint `mintAmount`",
          "liquidityMinted": "amount of liquidity added to the underlying Uniswap V3 position"
        }
      },
      "name()": {
        "details": "Returns the name of the token."
      },
      "renounceOwnership()": {
        "details": "Leaves the contract without manager. It will not be possible to call `onlyManager` functions anymore. Can only be called by the current manager. NOTE: Renouncing ownership will leave the contract without an manager, thereby removing any functionality that is only available to the manager."
      },
      "symbol()": {
        "details": "Returns the symbol of the token, usually a shorter version of the name."
      },
      "totalSupply()": {
        "details": "See {IERC20-totalSupply}."
      },
      "transfer(address,uint256)": {
        "details": "See {IERC20-transfer}. Requirements: - `recipient` cannot be the zero address. - the caller must have a balance of at least `amount`."
      },
      "transferFrom(address,address,uint256)": {
        "details": "See {IERC20-transferFrom}. Emits an {Approval} event indicating the updated allowance. This is not required by the EIP. See the note at the beginning of {ERC20}. Requirements: - `sender` and `recipient` cannot be the zero address. - `sender` must have a balance of at least `amount`. - the caller must have allowance for ``sender``'s tokens of at least `amount`."
      },
      "transferOwnership(address)": {
        "details": "Transfers ownership of the contract to a new account (`newOwner`). Can only be called by the current manager."
      },
      "updateGelatoParams(uint16,uint16,uint16,uint32,address)": {
        "params": {
          "newRebalanceBPS": "controls frequency of gelato rebalances: gas fee to execute rebalance can be gelatoRebalanceBPS proportion of fees earned since last rebalance",
          "newSlippageBPS": "maximum slippage on swaps during gelato rebalance",
          "newSlippageInterval": "length of time for TWAP used in computing slippage on swaps",
          "newTreasury": "address where managerFee withdrawals are sent",
          "newWithdrawBPS": "controls frequency of gelato withdrawals: gas fee to execute withdrawal can be gelatoWithdrawBPS proportion of fees accrued since last withdraw"
        }
      }
    },
    "version": 1
  },
  "userdoc": {
    "kind": "user",
    "methods": {
      "burn(uint256,address)": {
        "notice": "burn G-UNI tokens (fractional shares of a Uniswap V3 position) and receive tokens"
      },
      "executiveRebalance(int24,int24,uint160,uint256,bool)": {
        "notice": "Change the range of underlying UniswapV3 position, only manager can call"
      },
      "getMintAmounts(uint256,uint256)": {
        "notice": "compute maximum G-UNI tokens that can be minted from `amount0Max` and `amount1Max`"
      },
      "getUnderlyingBalances()": {
        "notice": "compute total underlying holdings of the G-UNI token supply includes current liquidity invested in uniswap position, current fees earned and any uninvested leftover (but does not include manager or gelato fees accrued)"
      },
      "initialize(string,string,address,uint16,int24,int24,address)": {
        "notice": "initialize storage variables on a new G-UNI pool, only called once"
      },
      "initializeManagerFee(uint16)": {
        "notice": "initializeManagerFee sets a managerFee, only manager can call. If a manager fee was not set in the initialize function it can be set here but ONLY ONCE- after it is set to a non-zero value, managerFee can never be set again."
      },
      "mint(uint256,address)": {
        "notice": "mint fungible G-UNI tokens, fractional shares of a Uniswap V3 position"
      },
      "rebalance(uint160,uint256,bool,uint256,address)": {
        "notice": "Reinvest fees earned into underlying position, only gelato executors can call Position bounds CANNOT be altered by gelato, only manager may via executiveRebalance. Frequency of rebalance configured with gelatoRebalanceBPS, alterable by manager."
      },
      "uniswapV3MintCallback(uint256,uint256,bytes)": {
        "notice": "Uniswap V3 callback fn, called back on pool.mint"
      },
      "uniswapV3SwapCallback(int256,int256,bytes)": {
        "notice": "Uniswap v3 callback fn, called back on pool.swap"
      },
      "updateGelatoParams(uint16,uint16,uint16,uint32,address)": {
        "notice": "change configurable parameters, only manager can call"
      },
      "withdrawGelatoBalance(uint256,address)": {
        "notice": "withdraw gelato fees accrued, only gelato executors can call. Frequency of withdrawals configured with gelatoWithdrawBPS, alterable by manager."
      },
      "withdrawManagerBalance(uint256,address)": {
        "notice": "withdraw manager fees accrued, only gelato executors can call. Target account to receive fees is managerTreasury, alterable by manager. Frequency of withdrawals configured with gelatoWithdrawBPS, alterable by manager."
      }
    },
    "version": 1
  },
  "storageLayout": {
    "storage": [
      {
        "astId": 5,
        "contract": "contracts/GUniPool.sol:GUniPool",
        "label": "_initialized",
        "offset": 0,
        "slot": "0",
        "type": "t_bool"
      },
      {
        "astId": 8,
        "contract": "contracts/GUniPool.sol:GUniPool",
        "label": "_initializing",
        "offset": 1,
        "slot": "0",
        "type": "t_bool"
      },
      {
        "astId": 784,
        "contract": "contracts/GUniPool.sol:GUniPool",
        "label": "__gap",
        "offset": 0,
        "slot": "1",
        "type": "t_array(t_uint256)50_storage"
      },
      {
        "astId": 122,
        "contract": "contracts/GUniPool.sol:GUniPool",
        "label": "_balances",
        "offset": 0,
        "slot": "51",
        "type": "t_mapping(t_address,t_uint256)"
      },
      {
        "astId": 128,
        "contract": "contracts/GUniPool.sol:GUniPool",
        "label": "_allowances",
        "offset": 0,
        "slot": "52",
        "type": "t_mapping(t_address,t_mapping(t_address,t_uint256))"
      },
      {
        "astId": 130,
        "contract": "contracts/GUniPool.sol:GUniPool",
        "label": "_totalSupply",
        "offset": 0,
        "slot": "53",
        "type": "t_uint256"
      },
      {
        "astId": 132,
        "contract": "contracts/GUniPool.sol:GUniPool",
        "label": "_name",
        "offset": 0,
        "slot": "54",
        "type": "t_string_storage"
      },
      {
        "astId": 134,
        "contract": "contracts/GUniPool.sol:GUniPool",
        "label": "_symbol",
        "offset": 0,
        "slot": "55",
        "type": "t_string_storage"
      },
      {
        "astId": 636,
        "contract": "contracts/GUniPool.sol:GUniPool",
        "label": "__gap",
        "offset": 0,
        "slot": "56",
        "type": "t_array(t_uint256)45_storage"
      },
      {
        "astId": 59,
        "contract": "contracts/GUniPool.sol:GUniPool",
        "label": "_status",
        "offset": 0,
        "slot": "101",
        "type": "t_uint256"
      },
      {
        "astId": 102,
        "contract": "contracts/GUniPool.sol:GUniPool",
        "label": "__gap",
        "offset": 0,
        "slot": "102",
        "type": "t_array(t_uint256)49_storage"
      },
      {
        "astId": 6093,
        "contract": "contracts/GUniPool.sol:GUniPool",
        "label": "_manager",
        "offset": 0,
        "slot": "151",
        "type": "t_address"
      },
      {
        "astId": 5691,
        "contract": "contracts/GUniPool.sol:GUniPool",
        "label": "lowerTick",
        "offset": 20,
        "slot": "151",
        "type": "t_int24"
      },
      {
        "astId": 5693,
        "contract": "contracts/GUniPool.sol:GUniPool",
        "label": "upperTick",
        "offset": 23,
        "slot": "151",
        "type": "t_int24"
      },
      {
        "astId": 5695,
        "contract": "contracts/GUniPool.sol:GUniPool",
        "label": "gelatoRebalanceBPS",
        "offset": 26,
        "slot": "151",
        "type": "t_uint16"
      },
      {
        "astId": 5697,
        "contract": "contracts/GUniPool.sol:GUniPool",
        "label": "gelatoWithdrawBPS",
        "offset": 28,
        "slot": "151",
        "type": "t_uint16"
      },
      {
        "astId": 5699,
        "contract": "contracts/GUniPool.sol:GUniPool",
        "label": "gelatoSlippageBPS",
        "offset": 30,
        "slot": "151",
        "type": "t_uint16"
      },
      {
        "astId": 5701,
        "contract": "contracts/GUniPool.sol:GUniPool",
        "label": "gelatoSlippageInterval",
        "offset": 0,
        "slot": "152",
        "type": "t_uint32"
      },
      {
        "astId": 5703,
        "contract": "contracts/GUniPool.sol:GUniPool",
        "label": "managerFeeBPS",
        "offset": 4,
        "slot": "152",
        "type": "t_uint16"
      },
      {
        "astId": 5705,
        "contract": "contracts/GUniPool.sol:GUniPool",
        "label": "managerTreasury",
        "offset": 6,
        "slot": "152",
        "type": "t_address"
      },
      {
        "astId": 5707,
        "contract": "contracts/GUniPool.sol:GUniPool",
        "label": "managerBalance0",
        "offset": 0,
        "slot": "153",
        "type": "t_uint256"
      },
      {
        "astId": 5709,
        "contract": "contracts/GUniPool.sol:GUniPool",
        "label": "managerBalance1",
        "offset": 0,
        "slot": "154",
        "type": "t_uint256"
      },
      {
        "astId": 5711,
        "contract": "contracts/GUniPool.sol:GUniPool",
        "label": "gelatoBalance0",
        "offset": 0,
        "slot": "155",
        "type": "t_uint256"
      },
      {
        "astId": 5713,
        "contract": "contracts/GUniPool.sol:GUniPool",
        "label": "gelatoBalance1",
        "offset": 0,
        "slot": "156",
        "type": "t_uint256"
      },
      {
        "astId": 5716,
        "contract": "contracts/GUniPool.sol:GUniPool",
        "label": "pool",
        "offset": 0,
        "slot": "157",
        "type": "t_contract(IUniswapV3Pool)2072"
      },
      {
        "astId": 5719,
        "contract": "contracts/GUniPool.sol:GUniPool",
        "label": "token0",
        "offset": 0,
        "slot": "158",
        "type": "t_contract(IERC20)909"
      },
      {
        "astId": 5722,
        "contract": "contracts/GUniPool.sol:GUniPool",
        "label": "token1",
        "offset": 0,
        "slot": "159",
        "type": "t_contract(IERC20)909"
      }
    ],
    "types": {
      "t_address": {
        "encoding": "inplace",
        "label": "address",
        "numberOfBytes": "20"
      },
      "t_array(t_uint256)45_storage": {
        "base": "t_uint256",
        "encoding": "inplace",
        "label": "uint256[45]",
        "numberOfBytes": "1440"
      },
      "t_array(t_uint256)49_storage": {
        "base": "t_uint256",
        "encoding": "inplace",
        "label": "uint256[49]",
        "numberOfBytes": "1568"
      },
      "t_array(t_uint256)50_storage": {
        "base": "t_uint256",
        "encoding": "inplace",
        "label": "uint256[50]",
        "numberOfBytes": "1600"
      },
      "t_bool": {
        "encoding": "inplace",
        "label": "bool",
        "numberOfBytes": "1"
      },
      "t_contract(IERC20)909": {
        "encoding": "inplace",
        "label": "contract IERC20",
        "numberOfBytes": "20"
      },
      "t_contract(IUniswapV3Pool)2072": {
        "encoding": "inplace",
        "label": "contract IUniswapV3Pool",
        "numberOfBytes": "20"
      },
      "t_int24": {
        "encoding": "inplace",
        "label": "int24",
        "numberOfBytes": "3"
      },
      "t_mapping(t_address,t_mapping(t_address,t_uint256))": {
        "encoding": "mapping",
        "key": "t_address",
        "label": "mapping(address => mapping(address => uint256))",
        "numberOfBytes": "32",
        "value": "t_mapping(t_address,t_uint256)"
      },
      "t_mapping(t_address,t_uint256)": {
        "encoding": "mapping",
        "key": "t_address",
        "label": "mapping(address => uint256)",
        "numberOfBytes": "32",
        "value": "t_uint256"
      },
      "t_string_storage": {
        "encoding": "bytes",
        "label": "string",
        "numberOfBytes": "32"
      },
      "t_uint16": {
        "encoding": "inplace",
        "label": "uint16",
        "numberOfBytes": "2"
      },
      "t_uint256": {
        "encoding": "inplace",
        "label": "uint256",
        "numberOfBytes": "32"
      },
      "t_uint32": {
        "encoding": "inplace",
        "label": "uint32",
        "numberOfBytes": "4"
      }
    }
  }
}