{
  "address": "0x33F054051f2Cd19fD53EAf33e33f7fAad7c15e86",
  "abi": [
    {
      "inputs": [
        {
          "internalType": "address",
          "name": "_uniswapV3Factory",
          "type": "address"
        }
      ],
      "stateMutability": "nonpayable",
      "type": "constructor"
    },
    {
      "anonymous": false,
      "inputs": [
        {
          "indexed": true,
          "internalType": "address",
          "name": "previousManager",
          "type": "address"
        },
        {
          "indexed": true,
          "internalType": "address",
          "name": "newManager",
          "type": "address"
        }
      ],
      "name": "OwnershipTransferred",
      "type": "event"
    },
    {
      "anonymous": false,
      "inputs": [
        {
          "indexed": true,
          "internalType": "address",
          "name": "uniPool",
          "type": "address"
        },
        {
          "indexed": true,
          "internalType": "address",
          "name": "manager",
          "type": "address"
        },
        {
          "indexed": true,
          "internalType": "address",
          "name": "pool",
          "type": "address"
        }
      ],
      "name": "PoolCreated",
      "type": "event"
    },
    {
      "anonymous": false,
      "inputs": [
        {
          "indexed": false,
          "internalType": "address",
          "name": "previosGelatoDeployer",
          "type": "address"
        },
        {
          "indexed": false,
          "internalType": "address",
          "name": "newGelatoDeployer",
          "type": "address"
        }
      ],
      "name": "UpdateGelatoDeployer",
      "type": "event"
    },
    {
      "anonymous": false,
      "inputs": [
        {
          "indexed": false,
          "internalType": "address",
          "name": "previousImplementation",
          "type": "address"
        },
        {
          "indexed": false,
          "internalType": "address",
          "name": "newImplementation",
          "type": "address"
        }
      ],
      "name": "UpdatePoolImplementation",
      "type": "event"
    },
    {
      "inputs": [
        {
          "internalType": "address",
          "name": "tokenA",
          "type": "address"
        },
        {
          "internalType": "address",
          "name": "tokenB",
          "type": "address"
        },
        {
          "internalType": "uint24",
          "name": "uniFee",
          "type": "uint24"
        },
        {
          "internalType": "uint16",
          "name": "managerFee",
          "type": "uint16"
        },
        {
          "internalType": "int24",
          "name": "lowerTick",
          "type": "int24"
        },
        {
          "internalType": "int24",
          "name": "upperTick",
          "type": "int24"
        }
      ],
      "name": "createManagedPool",
      "outputs": [
        {
          "internalType": "address",
          "name": "pool",
          "type": "address"
        }
      ],
      "stateMutability": "nonpayable",
      "type": "function"
    },
    {
      "inputs": [
        {
          "internalType": "address",
          "name": "tokenA",
          "type": "address"
        },
        {
          "internalType": "address",
          "name": "tokenB",
          "type": "address"
        },
        {
          "internalType": "uint24",
          "name": "uniFee",
          "type": "uint24"
        },
        {
          "internalType": "int24",
          "name": "lowerTick",
          "type": "int24"
        },
        {
          "internalType": "int24",
          "name": "upperTick",
          "type": "int24"
        }
      ],
      "name": "createPool",
      "outputs": [
        {
          "internalType": "address",
          "name": "pool",
          "type": "address"
        }
      ],
      "stateMutability": "nonpayable",
      "type": "function"
    },
    {
      "inputs": [],
      "name": "factory",
      "outputs": [
        {
          "internalType": "address",
          "name": "",
          "type": "address"
        }
      ],
      "stateMutability": "view",
      "type": "function"
    },
    {
      "inputs": [],
      "name": "gelatoDeployer",
      "outputs": [
        {
          "internalType": "address",
          "name": "",
          "type": "address"
        }
      ],
      "stateMutability": "view",
      "type": "function"
    },
    {
      "inputs": [],
      "name": "getDeployers",
      "outputs": [
        {
          "internalType": "address[]",
          "name": "",
          "type": "address[]"
        }
      ],
      "stateMutability": "view",
      "type": "function"
    },
    {
      "inputs": [],
      "name": "getGelatoPools",
      "outputs": [
        {
          "internalType": "address[]",
          "name": "",
          "type": "address[]"
        }
      ],
      "stateMutability": "view",
      "type": "function"
    },
    {
      "inputs": [
        {
          "internalType": "address",
          "name": "deployer",
          "type": "address"
        }
      ],
      "name": "getPools",
      "outputs": [
        {
          "internalType": "address[]",
          "name": "",
          "type": "address[]"
        }
      ],
      "stateMutability": "view",
      "type": "function"
    },
    {
      "inputs": [
        {
          "internalType": "address",
          "name": "pool",
          "type": "address"
        }
      ],
      "name": "getProxyAdmin",
      "outputs": [
        {
          "internalType": "address",
          "name": "",
          "type": "address"
        }
      ],
      "stateMutability": "view",
      "type": "function"
    },
    {
      "inputs": [
        {
          "internalType": "address",
          "name": "token0",
          "type": "address"
        },
        {
          "internalType": "address",
          "name": "token1",
          "type": "address"
        }
      ],
      "name": "getTokenName",
      "outputs": [
        {
          "internalType": "string",
          "name": "",
          "type": "string"
        }
      ],
      "stateMutability": "view",
      "type": "function"
    },
    {
      "inputs": [
        {
          "internalType": "address",
          "name": "_implementation",
          "type": "address"
        },
        {
          "internalType": "address",
          "name": "_gelatoDeployer",
          "type": "address"
        },
        {
          "internalType": "address",
          "name": "_manager_",
          "type": "address"
        }
      ],
      "name": "initialize",
      "outputs": [],
      "stateMutability": "nonpayable",
      "type": "function"
    },
    {
      "inputs": [
        {
          "internalType": "address",
          "name": "pool",
          "type": "address"
        }
      ],
      "name": "isPoolImmutable",
      "outputs": [
        {
          "internalType": "bool",
          "name": "",
          "type": "bool"
        }
      ],
      "stateMutability": "view",
      "type": "function"
    },
    {
      "inputs": [
        {
          "internalType": "address[]",
          "name": "pools",
          "type": "address[]"
        }
      ],
      "name": "makePoolsImmutable",
      "outputs": [],
      "stateMutability": "nonpayable",
      "type": "function"
    },
    {
      "inputs": [],
      "name": "manager",
      "outputs": [
        {
          "internalType": "address",
          "name": "",
          "type": "address"
        }
      ],
      "stateMutability": "view",
      "type": "function"
    },
    {
      "inputs": [],
      "name": "numDeployers",
      "outputs": [
        {
          "internalType": "uint256",
          "name": "",
          "type": "uint256"
        }
      ],
      "stateMutability": "view",
      "type": "function"
    },
    {
      "inputs": [],
      "name": "numPools",
      "outputs": [
        {
          "internalType": "uint256",
          "name": "result",
          "type": "uint256"
        }
      ],
      "stateMutability": "view",
      "type": "function"
    },
    {
      "inputs": [
        {
          "internalType": "address",
          "name": "deployer",
          "type": "address"
        }
      ],
      "name": "numPools",
      "outputs": [
        {
          "internalType": "uint256",
          "name": "",
          "type": "uint256"
        }
      ],
      "stateMutability": "view",
      "type": "function"
    },
    {
      "inputs": [],
      "name": "poolImplementation",
      "outputs": [
        {
          "internalType": "address",
          "name": "",
          "type": "address"
        }
      ],
      "stateMutability": "view",
      "type": "function"
    },
    {
      "inputs": [],
      "name": "renounceOwnership",
      "outputs": [],
      "stateMutability": "nonpayable",
      "type": "function"
    },
    {
      "inputs": [
        {
          "internalType": "address",
          "name": "nextGelatoDeployer",
          "type": "address"
        }
      ],
      "name": "setGelatoDeployer",
      "outputs": [],
      "stateMutability": "nonpayable",
      "type": "function"
    },
    {
      "inputs": [
        {
          "internalType": "address",
          "name": "nextImplementation",
          "type": "address"
        }
      ],
      "name": "setPoolImplementation",
      "outputs": [],
      "stateMutability": "nonpayable",
      "type": "function"
    },
    {
      "inputs": [
        {
          "internalType": "address",
          "name": "newOwner",
          "type": "address"
        }
      ],
      "name": "transferOwnership",
      "outputs": [],
      "stateMutability": "nonpayable",
      "type": "function"
    },
    {
      "inputs": [
        {
          "internalType": "address[]",
          "name": "pools",
          "type": "address[]"
        }
      ],
      "name": "upgradePools",
      "outputs": [],
      "stateMutability": "nonpayable",
      "type": "function"
    },
    {
      "inputs": [
        {
          "internalType": "address[]",
          "name": "pools",
          "type": "address[]"
        },
        {
          "internalType": "bytes[]",
          "name": "datas",
          "type": "bytes[]"
        }
      ],
      "name": "upgradePoolsAndCall",
      "outputs": [],
      "stateMutability": "nonpayable",
      "type": "function"
    },
    {
      "inputs": [],
      "name": "version",
      "outputs": [
        {
          "internalType": "string",
          "name": "",
          "type": "string"
        }
      ],
      "stateMutability": "view",
      "type": "function"
    }
  ],
  "transactionHash": "0x754b44e5b01e505e0f37e24367dfe23a964b3d9f782c838fc6dbf39c339ffde4",
  "args": [
    "0x1F98431c8aD98523631AE4a59f267346ea31F984"
  ],
  "solcInputHash": "5b7722421ca04d0a130cd8a2a08f9ec3",
  "bytecode": "0x60a060405234801561001057600080fd5b5060405161281e38038061281e83398101604081905261002f91610044565b60601b6001600160601b031916608052610072565b600060208284031215610055578081fd5b81516001600160a01b038116811461006b578182fd5b9392505050565b60805160601c6127876100976000396000818161031201526110e201526127876000f3fe60806040523480156200001157600080fd5b5060043610620001425760003560e01c8063088933281462000147578063098eddb114620001605780630dfc574b146200017d578063260fc2b8146200019457806335c62bc214620001ab57806340aee04114620001b557806342f5de9914620001cc578063481c6a7514620001e357806354fd4d5014620001fc578063562b810314620002305780635c39f4671462000249578063607c12b51462000260578063715018a6146200026a57806383c60ac4146200027457806386238765146200028b57806395d807f1146200029f578063a958b89514620002c7578063bd30dfb914620002de578063c0c53b8b14620002f5578063c45a0155146200030c578063cefa77991462000334578063d6f748981462000348578063f2fde38b146200035f578063f3b7dead1462000376575b600080fd5b6200015e6200015836600462001692565b6200038d565b005b6200016a62000435565b6040519081526020015b60405180910390f35b6200015e6200018e366004620018a6565b62000448565b6200015e620001a536600462001868565b620005c8565b6200016a620006ae565b6200015e620001c636600462001868565b62000725565b6200016a620001dd36600462001692565b6200080f565b620001ed62000838565b60405162000174919062001a9d565b62000221604051806040016040528060058152602001640312e302e360dc1b81525081565b60405162000174919062001b5a565b6200023a62000847565b60405162000174919062001b0b565b6200023a6200025a36600462001692565b6200085c565b6200023a62000931565b6200015e62000a03565b620001ed62000285366004620017d7565b62000a70565b600254620001ed906001600160a01b031681565b620002b6620002b036600462001692565b62000a8e565b604051901515815260200162000174565b620001ed620002d83660046200175e565b62000aab565b62000221620002ef366004620016d0565b62000aca565b6200015e620003063660046200170d565b62000c39565b620001ed7f000000000000000000000000000000000000000000000000000000000000000081565b600154620001ed906001600160a01b031681565b6200015e6200035936600462001692565b62000d43565b6200015e6200037036600462001692565b62000de2565b620001ed6200038736600462001692565b62000ec9565b336200039862000838565b6001600160a01b031614620003ca5760405162461bcd60e51b8152600401620003c19062001be4565b60405180910390fd5b6002546040517fb316078581b0eaf0714b47d13192560506acc3e23b5bf3b72d27248f173c9085916200040b916001600160a01b0390911690849062001ab1565b60405180910390a1600280546001600160a01b0319166001600160a01b0392909216919091179055565b600062000443600362000f40565b905090565b336200045362000838565b6001600160a01b0316146200047c5760405162461bcd60e51b8152600401620003c19062001be4565b82518114620004c95760405162461bcd60e51b81526020600482015260186024820152770dad2e6dac2e8c6d0d2dcce40c2e4e4c2f240d8cadccee8d60431b6044820152606401620003c1565b60005b8351811015620005c257838181518110620004f757634e487b7160e01b600052603260045260246000fd5b60200260200101516001600160a01b0316634f1ef286600160009054906101000a90046001600160a01b03168585858181106200054457634e487b7160e01b600052603260045260246000fd5b905060200281019062000558919062001c26565b6040518463ffffffff1660e01b8152600401620005789392919062001acb565b600060405180830381600087803b1580156200059357600080fd5b505af1158015620005a8573d6000803e3d6000fd5b505050508080620005b99062001cea565b915050620004cc565b50505050565b33620005d362000838565b6001600160a01b031614620005fc5760405162461bcd60e51b8152600401620003c19062001be4565b60005b8151811015620006aa578181815181106200062a57634e487b7160e01b600052603260045260246000fd5b60200260200101516001600160a01b0316638356ca4f60006040518263ffffffff1660e01b815260040162000660919062001a9d565b600060405180830381600087803b1580156200067b57600080fd5b505af115801562000690573d6000803e3d6000fd5b505050508080620006a19062001cea565b915050620005ff565b5050565b600080620006bb62000931565b905060005b81518110156200072057620006fd828281518110620006ef57634e487b7160e01b600052603260045260246000fd5b60200260200101516200080f565b62000709908462001ca0565b925080620007178162001cea565b915050620006c0565b505090565b336200073062000838565b6001600160a01b031614620007595760405162461bcd60e51b8152600401620003c19062001be4565b60005b8151811015620006aa578181815181106200078757634e487b7160e01b600052603260045260246000fd5b6020908102919091010151600154604051631b2ce7f360e11b81526001600160a01b0392831692633659cfe692620007c59291169060040162001a9d565b600060405180830381600087803b158015620007e057600080fd5b505af1158015620007f5573d6000803e3d6000fd5b505050508080620008069062001cea565b9150506200075c565b6001600160a01b0381166000908152600560205260408120620008329062000f40565b92915050565b6000546001600160a01b031690565b60025460609062000443906001600160a01b03165b606060006200086b836200080f565b90506000816001600160401b038111156200089657634e487b7160e01b600052604160045260246000fd5b604051908082528060200260200182016040528015620008c0578160200160208202803683370190505b50905060005b828110156200092957620008db858262000f4b565b828281518110620008fc57634e487b7160e01b600052603260045260246000fd5b6001600160a01b039092166020928302919091019091015280620009208162001cea565b915050620008c6565b509392505050565b606060006200093f62000435565b90506000816001600160401b038111156200096a57634e487b7160e01b600052604160045260246000fd5b60405190808252806020026020018201604052801562000994578160200160208202803683370190505b50905060005b82811015620009fc57620009ae8162000f76565b828281518110620009cf57634e487b7160e01b600052603260045260246000fd5b6001600160a01b039092166020928302919091019091015280620009f38162001cea565b9150506200099a565b5092915050565b3362000a0e62000838565b6001600160a01b03161462000a375760405162461bcd60e51b8152600401620003c19062001be4565b600080546040516001600160a01b039091169060008051602062002732833981519152908390a3600080546001600160a01b0319169055565b600062000a838787878787873362000f85565b979650505050505050565b600062000a9b8262000ec9565b6001600160a01b03161592915050565b600062000ac086868660008787600062000f85565b9695505050505050565b60606000836001600160a01b03166395d89b416040518163ffffffff1660e01b815260040160006040518083038186803b15801562000b0857600080fd5b505afa15801562000b1d573d6000803e3d6000fd5b505050506040513d6000823e601f3d908101601f1916820160405262000b47919081019062001960565b90506000836001600160a01b03166395d89b416040518163ffffffff1660e01b815260040160006040518083038186803b15801562000b8557600080fd5b505afa15801562000b9a573d6000803e3d6000fd5b505050506040513d6000823e601f3d908101601f1916820160405262000bc4919081019062001960565b905062000c306040518060400160405280600f81526020016e023b2b630ba37902ab734b9bbb0b81608d1b81525083604051806040016040528060018152602001602f60f81b81525084604051806040016040528060038152602001620204c560ec1b81525062001304565b95945050505050565b600054600160a81b900460ff168062000c5c5750600054600160a01b900460ff16155b62000cc15760405162461bcd60e51b815260206004820152602e60248201527f496e697469616c697a61626c653a20636f6e747261637420697320616c72656160448201526d191e481a5b9a5d1a585b1a5e995960921b6064820152608401620003c1565b600054600160a81b900460ff1615801562000cec576000805461ffff60a01b191661010160a01b1790555b600180546001600160a01b038087166001600160a01b0319928316179092556002805486841690831617905560008054928516929091169190911790558015620005c2576000805460ff60a81b1916905550505050565b3362000d4e62000838565b6001600160a01b03161462000d775760405162461bcd60e51b8152600401620003c19062001be4565b6001546040517f0617fd31aa5ab95ec80eefc1eb61a2c477aa419d1d761b4e46f5f077e47852aa9162000db8916001600160a01b0390911690849062001ab1565b60405180910390a1600180546001600160a01b0319166001600160a01b0392909216919091179055565b3362000ded62000838565b6001600160a01b03161462000e165760405162461bcd60e51b8152600401620003c19062001be4565b6001600160a01b03811662000e7f5760405162461bcd60e51b815260206004820152602860248201527f4f776e61626c653a206e6577206d616e6167657220697320746865207a65726f604482015267206164647265737360c01b6064820152608401620003c1565b600080546040516001600160a01b03808516939216916000805160206200273283398151915291a3600080546001600160a01b0319166001600160a01b0392909216919091179055565b6000816001600160a01b0316633e47158c6040518163ffffffff1660e01b815260040160206040518083038186803b15801562000f0557600080fd5b505afa15801562000f1a573d6000803e3d6000fd5b505050506040513d601f19601f82011682018060405250810190620008329190620016b1565b600062000832825490565b6001600160a01b038216600090815260056020526040812062000f6f90836200133b565b9392505050565b6000620008326003836200133b565b600080600062000f968a8a62001349565b6001546040519294509092506001600160a01b031690309062000fb990620015d5565b6001600160a01b03928316815291166020820152606060408201819052600090820152608001604051809103906000f08015801562000ffc573d6000803e3d6000fd5b506040805180820182526011815270047656c61746f20556e6973776170204c5607c1b6020820152905163bd30dfb960e01b815291945090309063bd30dfb9906200104e908690869060040162001ab1565b60006040518083038186803b1580156200106757600080fd5b505afa9250505080156200109f57506040513d6000823e601f3d908101601f191682016040526200109c919081019062001960565b60015b620010aa57620010ad565b90505b604051630b4c774160e11b81526001600160a01b038481166004830152838116602483015262ffffff8b1660448301526000917f000000000000000000000000000000000000000000000000000000000000000090911690631698ee829060640160206040518083038186803b1580156200112757600080fd5b505afa1580156200113c573d6000803e3d6000fd5b505050506040513d601f19601f82011682018060405250810190620011629190620016b1565b90506001600160a01b038116620011ba5760405162461bcd60e51b815260206004820152601b60248201527a1d5b9a5cddd85c081c1bdbdb08191bd95cc81b9bdd08195e1a5cdd602a1b6044820152606401620003c1565b620011c781898962001418565b6200120c5760405162461bcd60e51b81526020600482015260146024820152730e8d2c6d6a6e0c2c6d2dcce40dad2e6dac2e8c6d60631b6044820152606401620003c1565b60405163e25e15e360e01b81526001600160a01b0386169063e25e15e3906200124490859085908e908e908e908e9060040162001b6f565b600060405180830381600087803b1580156200125f57600080fd5b505af115801562001274573d6000803e3d6000fd5b505050506200128e336003620014d590919063ffffffff16565b50336000908152600560205260409020620012aa9086620014d5565b50846001600160a01b0316866001600160a01b0316826001600160a01b03167f9c5d829b9b23efc461f9aeef91979ec04bb903feb3bee4f26d22114abfc7335b60405160405180910390a450505050979650505050505050565b606085858585856040516020016200132195949392919062001a28565b604051602081830303815290604052905095945050505050565b600062000f6f8383620014ec565b600080826001600160a01b0316846001600160a01b031614156200139d5760405162461bcd60e51b815260206004820152600a60248201526939b0b6b2903a37b5b2b760b11b6044820152606401620003c1565b826001600160a01b0316846001600160a01b031610620013bf578284620013c2565b83835b90925090506001600160a01b038216620014115760405162461bcd60e51b815260206004820152600f60248201526e6e6f2061646472657373207a65726f60881b6044820152606401620003c1565b9250929050565b600080846001600160a01b031663d0c93a7c6040518163ffffffff1660e01b815260040160206040518083038186803b1580156200145557600080fd5b505afa1580156200146a573d6000803e3d6000fd5b505050506040513d601f19601f8201168201806040525081019062001490919062001941565b90508260020b8460020b128015620014b45750620014af818562001d08565b60020b155b801562000c305750620014c8818462001d08565b60020b1595945050505050565b600062000f6f836001600160a01b03841662001583565b815460009082106200154c5760405162461bcd60e51b815260206004820152602260248201527f456e756d657261626c655365743a20696e646578206f7574206f6620626f756e604482015261647360f01b6064820152608401620003c1565b8260000182815481106200157057634e487b7160e01b600052603260045260246000fd5b9060005260206000200154905092915050565b6000818152600183016020526040812054620015cc5750815460018181018455600084815260208082209093018490558454848252828601909352604090209190915562000832565b50600062000832565b6109a58062001d8d83390190565b600082601f830112620015f4578081fd5b813560206001600160401b0382111562001612576200161262001d4d565b8160051b6200162382820162001c6d565b8381528281019086840183880185018910156200163e578687fd5b8693505b858410156200166d578035620016588162001d63565b83526001939093019291840191840162001642565b50979650505050505050565b803562ffffff811681146200168d57600080fd5b919050565b600060208284031215620016a4578081fd5b813562000f6f8162001d63565b600060208284031215620016c3578081fd5b815162000f6f8162001d63565b60008060408385031215620016e3578081fd5b8235620016f08162001d63565b91506020830135620017028162001d63565b809150509250929050565b60008060006060848603121562001722578081fd5b83356200172f8162001d63565b92506020840135620017418162001d63565b91506040840135620017538162001d63565b809150509250925092565b600080600080600060a0868803121562001776578081fd5b8535620017838162001d63565b94506020860135620017958162001d63565b9350620017a56040870162001679565b92506060860135620017b78162001d7c565b91506080860135620017c98162001d7c565b809150509295509295909350565b60008060008060008060c08789031215620017f0578081fd5b8635620017fd8162001d63565b955060208701356200180f8162001d63565b94506200181f6040880162001679565b9350606087013561ffff8116811462001836578182fd5b92506080870135620018488162001d7c565b915060a08701356200185a8162001d7c565b809150509295509295509295565b6000602082840312156200187a578081fd5b81356001600160401b0381111562001890578182fd5b6200189e84828501620015e3565b949350505050565b600080600060408486031215620018bb578283fd5b83356001600160401b0380821115620018d2578485fd5b620018e087838801620015e3565b94506020860135915080821115620018f6578384fd5b818601915086601f8301126200190a578384fd5b81358181111562001919578485fd5b8760208260051b85010111156200192e578485fd5b6020830194508093505050509250925092565b60006020828403121562001953578081fd5b815162000f6f8162001d7c565b60006020828403121562001972578081fd5b81516001600160401b038082111562001989578283fd5b818401915084601f8301126200199d578283fd5b815181811115620019b257620019b262001d4d565b620019c7601f8201601f191660200162001c6d565b9150808252856020828501011115620019de578384fd5b620019f181602084016020860162001cbb565b50949350505050565b6000815180845262001a1481602086016020860162001cbb565b601f01601f19169290920160200192915050565b6000865162001a3c818460208b0162001cbb565b86519083019062001a52818360208b0162001cbb565b865191019062001a67818360208a0162001cbb565b855191019062001a7c81836020890162001cbb565b845191019062001a9181836020880162001cbb565b01979650505050505050565b6001600160a01b0391909116815260200190565b6001600160a01b0392831681529116602082015260400190565b6001600160a01b03841681526040602082018190528101829052818360608301376000818301606090810191909152601f909201601f1916010192915050565b6020808252825182820181905260009190848201906040850190845b8181101562001b4e5783516001600160a01b03168352928401929184019160010162001b27565b50909695505050505050565b60208152600062000f6f6020830184620019fa565b60e08152600062001b8460e0830189620019fa565b82810360208401526005815264472d554e4960d81b60208201526040810191505060018060a01b03808816604084015261ffff871660608401528560020b60808401528460020b60a084015280841660c084015250979650505050505050565b60208082526022908201527f4f776e61626c653a2063616c6c6572206973206e6f7420746865206d616e616760408201526132b960f11b606082015260800190565b6000808335601e1984360301811262001c3d578283fd5b8301803591506001600160401b0382111562001c57578283fd5b6020019150368190038213156200141157600080fd5b604051601f8201601f191681016001600160401b038111828210171562001c985762001c9862001d4d565b604052919050565b6000821982111562001cb65762001cb662001d37565b500190565b60005b8381101562001cd857818101518382015260200162001cbe565b83811115620005c25750506000910152565b600060001982141562001d015762001d0162001d37565b5060010190565b60008260020b8062001d2857634e487b7160e01b82526012600452602482fd5b808360020b0791505092915050565b634e487b7160e01b600052601160045260246000fd5b634e487b7160e01b600052604160045260246000fd5b6001600160a01b038116811462001d7957600080fd5b50565b8060020b811462001d7957600080fdfe60806040526040516109a53803806109a5833981016040819052610022916101a4565b61002c838261003d565b61003582610119565b5050506102ce565b7f360894a13ba1a3210667c828492db98dca3e2076cc3735a920a3ca505d382bbc8054908390556040516001600160a01b0380851691908316907f5570d70a002632a7b0b3c9304cc89efb62d8da9eca0dbd7752c83b737906829690600090a3815115610114576000836001600160a01b0316836040516100be9190610270565b600060405180830381855af49150503d80600081146100f9576040519150601f19603f3d011682016040523d82523d6000602084013e6100fe565b606091505b5050905080610112573d806000803e806000fd5b505b505050565b60006101316000805160206109858339815191525490565b90508160008051602061098583398151915255816001600160a01b0316816001600160a01b03167fdf435d422321da6b195902d70fc417c06a32f88379c20dd8f2a8da07088cec2960405160405180910390a35050565b80516001600160a01b038116811461019f57600080fd5b919050565b6000806000606084860312156101b8578283fd5b6101c184610188565b92506101cf60208501610188565b60408501519092506001600160401b03808211156101eb578283fd5b818601915086601f8301126101fe578283fd5b815181811115610210576102106102b8565b604051601f8201601f19908116603f01168101908382118183101715610238576102386102b8565b81604052828152896020848701011115610250578586fd5b61026183602083016020880161028c565b80955050505050509250925092565b6000825161028281846020870161028c565b9190910192915050565b60005b838110156102a757818101518382015260200161028f565b838111156101125750506000910152565b634e487b7160e01b600052604160045260246000fd5b6106a8806102dd6000396000f3fe60806040526004361061004e5760003560e01c806301ffc9a71461009b5780633659cfe6146100d05780633e47158c146100f05780634f1ef2861461011d5780638356ca4f1461013057610091565b366100915760405162461bcd60e51b815260206004820152600e60248201526d115512115497d491529150d5115160921b60448201526064015b60405180910390fd5b610099610150565b005b3480156100a757600080fd5b506100bb6100b63660046105a9565b610189565b60405190151581526020015b60405180910390f35b3480156100dc57600080fd5b506100996100eb3660046104f2565b61027e565b3480156100fc57600080fd5b506101056102d2565b6040516001600160a01b0390911681526020016100c7565b61009961012b36600461050c565b6102e1565b34801561013c57600080fd5b5061009961014b3660046104f2565b61035e565b6000805160206106538339815191525460003681823780813683855af491503d8082833e82801561017f578183f35b8183fd5b50505050565b60006301ffc9a760e01b6001600160e01b0319831614806101ba57506307f5828d60e41b6001600160e01b03198316145b156101c757506001919050565b6001600160e01b031980831614156101e157506000919050565b600080516020610653833981519152546040516301ffc9a760e01b81526001600160e01b0319841660048201526001600160a01b038216906301ffc9a79060240160206040518083038186803b15801561023a57600080fd5b505afa92505050801561026a575060408051601f3d908101601f1916820190925261026791810190610589565b60015b6102775750600092915050565b9392505050565b61028661039f565b6001600160a01b0316336001600160a01b0316146102b65760405162461bcd60e51b81526004016100889061060a565b6102cf81604051806020016040528060008152506103b2565b50565b60006102dc61039f565b905090565b6102e961039f565b6001600160a01b0316336001600160a01b0316146103195760405162461bcd60e51b81526004016100889061060a565b6103598383838080601f0160208091040260200160405190810160405280939291908181526020018383808284376000920191909152506103b292505050565b505050565b61036661039f565b6001600160a01b0316336001600160a01b0316146103965760405162461bcd60e51b81526004016100889061060a565b6102cf81610475565b6000805160206106338339815191525490565b6000805160206106538339815191528054908390556040516001600160a01b0380851691908316907f5570d70a002632a7b0b3c9304cc89efb62d8da9eca0dbd7752c83b737906829690600090a3815115610359576000836001600160a01b03168360405161042191906105d1565b600060405180830381855af49150503d806000811461045c576040519150601f19603f3d011682016040523d82523d6000602084013e610461565b606091505b5050905080610183573d806000803e806000fd5b600061047f61039f565b90508160008051602061063383398151915255816001600160a01b0316816001600160a01b03167fdf435d422321da6b195902d70fc417c06a32f88379c20dd8f2a8da07088cec2960405160405180910390a35050565b80356001600160a01b03811681146104ed57600080fd5b919050565b600060208284031215610503578081fd5b610277826104d6565b600080600060408486031215610520578182fd5b610529846104d6565b925060208401356001600160401b0380821115610544578384fd5b818601915086601f830112610557578384fd5b813581811115610565578485fd5b876020828501011115610576578485fd5b6020830194508093505050509250925092565b60006020828403121561059a578081fd5b81518015158114610277578182fd5b6000602082840312156105ba578081fd5b81356001600160e01b031981168114610277578182fd5b60008251815b818110156105f157602081860181015185830152016105d7565b818111156105ff5782828501525b509190910192915050565b6020808252600e908201526d1393d517d055551213d49256915160921b60408201526060019056feb53127684a568b3173ae13b9f8a6016e243e63b6e8ee1178d6a717850b5d6103360894a13ba1a3210667c828492db98dca3e2076cc3735a920a3ca505d382bbca2646970667358221220730effc08e7ae1c19f69ae08dd52de483b649ded49db9428e4ced9875431474364736f6c63430008040033b53127684a568b3173ae13b9f8a6016e243e63b6e8ee1178d6a717850b5d61038be0079c531659141344cd1fd0a4f28419497f9722a3daafe3b4186f6b6457e0a26469706673582212202e6ff5d3661cc2336a91145498f5e5e835222f3bed72d3235d7e02f381e1b62564736f6c63430008040033",
  "devdoc": {
    "kind": "dev",
    "methods": {
      "createManagedPool(address,address,uint24,uint16,int24,int24)": {
        "params": {
          "lowerTick": "initial lower bound of the Uniswap V3 position",
          "managerFee": "proportion of earned fees that go to pool manager in Basis Points",
          "tokenA": "one of the tokens in the uniswap pair",
          "tokenB": "the other token in the uniswap pair",
          "uniFee": "fee tier of the uniswap pair",
          "upperTick": "initial upper bound of the Uniswap V3 position"
        },
        "returns": {
          "pool": "the address of the newly created G-UNI pool (proxy)"
        }
      },
      "createPool(address,address,uint24,int24,int24)": {
        "params": {
          "lowerTick": "initial lower bound of the Uniswap V3 position",
          "tokenA": "one of the tokens in the uniswap pair",
          "tokenB": "the other token in the uniswap pair",
          "uniFee": "fee tier of the uniswap pair",
          "upperTick": "initial upper bound of the Uniswap V3 position"
        },
        "returns": {
          "pool": "the address of the newly created G-UNI pool (proxy)"
        }
      },
      "getDeployers()": {
        "returns": {
          "_0": "deployers the list of deployer addresses"
        }
      },
      "getGelatoPools()": {
        "returns": {
          "_0": "list of Gelato managed G-UNI pool addresses"
        }
      },
      "getPools(address)": {
        "params": {
          "deployer": "address that has potentially deployed G-UNI pools (can return empty array)"
        },
        "returns": {
          "_0": "pools the list of G-UNI pool addresses deployed by `deployer`"
        }
      },
      "getProxyAdmin(address)": {
        "params": {
          "pool": "address of the G-UNI pool"
        },
        "returns": {
          "_0": "address that controls the G-UNI implementation (has power to upgrade it)"
        }
      },
      "isPoolImmutable(address)": {
        "params": {
          "pool": "address of the G-UNI pool"
        },
        "returns": {
          "_0": "bool signaling if pool is immutable (true) or not (false)"
        }
      },
      "manager()": {
        "details": "Returns the address of the current manager."
      },
      "numDeployers()": {
        "returns": {
          "_0": "total number of G-UNI pool deployer addresses"
        }
      },
      "numPools()": {
        "returns": {
          "result": "total number of G-UNI pools deployed"
        }
      },
      "numPools(address)": {
        "params": {
          "deployer": "deployer address"
        },
        "returns": {
          "_0": "total number of G-UNI pools deployed by `deployer`"
        }
      },
      "renounceOwnership()": {
        "details": "Leaves the contract without manager. It will not be possible to call `onlyManager` functions anymore. Can only be called by the current manager. NOTE: Renouncing ownership will leave the contract without an manager, thereby removing any functionality that is only available to the manager."
      },
      "transferOwnership(address)": {
        "details": "Transfers ownership of the contract to a new account (`newOwner`). Can only be called by the current manager."
      }
    },
    "version": 1
  },
  "userdoc": {
    "kind": "user",
    "methods": {
      "createManagedPool(address,address,uint24,uint16,int24,int24)": {
        "notice": "createManagedPool creates a new instance of a G-UNI token on a specified UniswapV3Pool. The msg.sender is the initial manager of the pool and will forever be associated with the G-UNI pool as it's `deployer`"
      },
      "createPool(address,address,uint24,int24,int24)": {
        "notice": "createPool creates a new instance of a G-UNI token on a specified UniswapV3Pool. Here the manager role is immediately burned, however msg.sender will still forever be associated with the G-UNI pool as it's `deployer`"
      },
      "getDeployers()": {
        "notice": "getDeployers fetches all addresses that have deployed a G-UNI pool"
      },
      "getGelatoPools()": {
        "notice": "getGelatoPools gets all the G-UNI pools deployed by Gelato's default deployer address (since anyone can deploy and manage G-UNI pools)"
      },
      "getPools(address)": {
        "notice": "getPools fetches all the G-UNI pool addresses deployed by `deployer`"
      },
      "getProxyAdmin(address)": {
        "notice": "getProxyAdmin gets the current address who controls the underlying implementation of a G-UNI pool. For most all pools either this contract address or the zero address will be the proxyAdmin. If the admin is the zero address the pool's implementation is naturally no longer upgradable (no one owns the zero address)."
      },
      "isPoolImmutable(address)": {
        "notice": "isPoolImmutable checks if a certain G-UNI pool is \"immutable\" i.e. that the proxyAdmin is the zero address and thus the underlying implementation cannot be upgraded"
      },
      "numDeployers()": {
        "notice": "numDeployers counts the total number of G-UNI pool deployer addresses"
      },
      "numPools()": {
        "notice": "numPools counts the total number of G-UNI pools in existence"
      },
      "numPools(address)": {
        "notice": "numPools counts the total number of G-UNI pools deployed by `deployer`"
      }
    },
    "version": 1
  },
  "storageLayout": {
    "storage": [
      {
        "astId": 6441,
        "contract": "contracts/GUniFactory.sol:GUniFactory",
        "label": "_manager",
        "offset": 0,
        "slot": "0",
        "type": "t_address"
      },
      {
        "astId": 5,
        "contract": "contracts/GUniFactory.sol:GUniFactory",
        "label": "_initialized",
        "offset": 20,
        "slot": "0",
        "type": "t_bool"
      },
      {
        "astId": 8,
        "contract": "contracts/GUniFactory.sol:GUniFactory",
        "label": "_initializing",
        "offset": 21,
        "slot": "0",
        "type": "t_bool"
      },
      {
        "astId": 5909,
        "contract": "contracts/GUniFactory.sol:GUniFactory",
        "label": "poolImplementation",
        "offset": 0,
        "slot": "1",
        "type": "t_address"
      },
      {
        "astId": 5911,
        "contract": "contracts/GUniFactory.sol:GUniFactory",
        "label": "gelatoDeployer",
        "offset": 0,
        "slot": "2",
        "type": "t_address"
      },
      {
        "astId": 5914,
        "contract": "contracts/GUniFactory.sol:GUniFactory",
        "label": "_deployers",
        "offset": 0,
        "slot": "3",
        "type": "t_struct(AddressSet)2007_storage"
      },
      {
        "astId": 5919,
        "contract": "contracts/GUniFactory.sol:GUniFactory",
        "label": "_pools",
        "offset": 0,
        "slot": "5",
        "type": "t_mapping(t_address,t_struct(AddressSet)2007_storage)"
      }
    ],
    "types": {
      "t_address": {
        "encoding": "inplace",
        "label": "address",
        "numberOfBytes": "20"
      },
      "t_array(t_bytes32)dyn_storage": {
        "base": "t_bytes32",
        "encoding": "dynamic_array",
        "label": "bytes32[]",
        "numberOfBytes": "32"
      },
      "t_bool": {
        "encoding": "inplace",
        "label": "bool",
        "numberOfBytes": "1"
      },
      "t_bytes32": {
        "encoding": "inplace",
        "label": "bytes32",
        "numberOfBytes": "32"
      },
      "t_mapping(t_address,t_struct(AddressSet)2007_storage)": {
        "encoding": "mapping",
        "key": "t_address",
        "label": "mapping(address => struct EnumerableSet.AddressSet)",
        "numberOfBytes": "32",
        "value": "t_struct(AddressSet)2007_storage"
      },
      "t_mapping(t_bytes32,t_uint256)": {
        "encoding": "mapping",
        "key": "t_bytes32",
        "label": "mapping(bytes32 => uint256)",
        "numberOfBytes": "32",
        "value": "t_uint256"
      },
      "t_struct(AddressSet)2007_storage": {
        "encoding": "inplace",
        "label": "struct EnumerableSet.AddressSet",
        "members": [
          {
            "astId": 2006,
            "contract": "contracts/GUniFactory.sol:GUniFactory",
            "label": "_inner",
            "offset": 0,
            "slot": "0",
            "type": "t_struct(Set)1732_storage"
          }
        ],
        "numberOfBytes": "64"
      },
      "t_struct(Set)1732_storage": {
        "encoding": "inplace",
        "label": "struct EnumerableSet.Set",
        "members": [
          {
            "astId": 1727,
            "contract": "contracts/GUniFactory.sol:GUniFactory",
            "label": "_values",
            "offset": 0,
            "slot": "0",
            "type": "t_array(t_bytes32)dyn_storage"
          },
          {
            "astId": 1731,
            "contract": "contracts/GUniFactory.sol:GUniFactory",
            "label": "_indexes",
            "offset": 0,
            "slot": "1",
            "type": "t_mapping(t_bytes32,t_uint256)"
          }
        ],
        "numberOfBytes": "64"
      },
      "t_uint256": {
        "encoding": "inplace",
        "label": "uint256",
        "numberOfBytes": "32"
      }
    }
  }
}