{
  "address": "0xB54613678c36DD51e75236060060A13D44597D82",
  "abi": [
    {
      "inputs": [
        {
          "internalType": "address payable",
          "name": "_gelato",
          "type": "address"
        }
      ],
      "stateMutability": "nonpayable",
      "type": "constructor"
    },
    {
      "anonymous": false,
      "inputs": [
        {
          "indexed": true,
          "internalType": "address",
          "name": "owner",
          "type": "address"
        },
        {
          "indexed": true,
          "internalType": "address",
          "name": "spender",
          "type": "address"
        },
        {
          "indexed": false,
          "internalType": "uint256",
          "name": "value",
          "type": "uint256"
        }
      ],
      "name": "Approval",
      "type": "event"
    },
    {
      "anonymous": false,
      "inputs": [
        {
          "indexed": false,
          "internalType": "address",
          "name": "receiver",
          "type": "address"
        },
        {
          "indexed": false,
          "internalType": "uint256",
          "name": "burnAmount",
          "type": "uint256"
        },
        {
          "indexed": false,
          "internalType": "uint256",
          "name": "amount0Out",
          "type": "uint256"
        },
        {
          "indexed": false,
          "internalType": "uint256",
          "name": "amount1Out",
          "type": "uint256"
        },
        {
          "indexed": false,
          "internalType": "uint128",
          "name": "liquidityBurned",
          "type": "uint128"
        }
      ],
      "name": "Burned",
      "type": "event"
    },
    {
      "anonymous": false,
      "inputs": [
        {
          "indexed": false,
          "internalType": "uint256",
          "name": "feesEarned0",
          "type": "uint256"
        },
        {
          "indexed": false,
          "internalType": "uint256",
          "name": "feesEarned1",
          "type": "uint256"
        }
      ],
      "name": "FeesEarned",
      "type": "event"
    },
    {
      "anonymous": false,
      "inputs": [
        {
          "indexed": false,
          "internalType": "address",
          "name": "receiver",
          "type": "address"
        },
        {
          "indexed": false,
          "internalType": "uint256",
          "name": "mintAmount",
          "type": "uint256"
        },
        {
          "indexed": false,
          "internalType": "uint256",
          "name": "amount0In",
          "type": "uint256"
        },
        {
          "indexed": false,
          "internalType": "uint256",
          "name": "amount1In",
          "type": "uint256"
        },
        {
          "indexed": false,
          "internalType": "uint128",
          "name": "liquidityMinted",
          "type": "uint128"
        }
      ],
      "name": "Minted",
      "type": "event"
    },
    {
      "anonymous": false,
      "inputs": [
        {
          "indexed": true,
          "internalType": "address",
          "name": "previousManager",
          "type": "address"
        },
        {
          "indexed": true,
          "internalType": "address",
          "name": "newManager",
          "type": "address"
        }
      ],
      "name": "OwnershipTransferred",
      "type": "event"
    },
    {
      "anonymous": false,
      "inputs": [
        {
          "indexed": false,
          "internalType": "int24",
          "name": "lowerTick_",
          "type": "int24"
        },
        {
          "indexed": false,
          "internalType": "int24",
          "name": "upperTick_",
          "type": "int24"
        },
        {
          "indexed": false,
          "internalType": "uint128",
          "name": "liquidityBefore",
          "type": "uint128"
        },
        {
          "indexed": false,
          "internalType": "uint128",
          "name": "liquidityAfter",
          "type": "uint128"
        }
      ],
      "name": "Rebalance",
      "type": "event"
    },
    {
      "anonymous": false,
      "inputs": [
        {
          "indexed": false,
          "internalType": "uint16",
          "name": "managerFee",
          "type": "uint16"
        }
      ],
      "name": "SetManagerFee",
      "type": "event"
    },
    {
      "anonymous": false,
      "inputs": [
        {
          "indexed": true,
          "internalType": "address",
          "name": "from",
          "type": "address"
        },
        {
          "indexed": true,
          "internalType": "address",
          "name": "to",
          "type": "address"
        },
        {
          "indexed": false,
          "internalType": "uint256",
          "name": "value",
          "type": "uint256"
        }
      ],
      "name": "Transfer",
      "type": "event"
    },
    {
      "anonymous": false,
      "inputs": [
        {
          "indexed": false,
          "internalType": "address",
          "name": "oldAdminTreasury",
          "type": "address"
        },
        {
          "indexed": false,
          "internalType": "address",
          "name": "newAdminTreasury",
          "type": "address"
        }
      ],
      "name": "UpdateAdminTreasury",
      "type": "event"
    },
    {
      "anonymous": false,
      "inputs": [
        {
          "indexed": false,
          "internalType": "uint16",
          "name": "gelatoRebalanceBPS",
          "type": "uint16"
        },
        {
          "indexed": false,
          "internalType": "uint16",
          "name": "gelatoWithdrawBPS",
          "type": "uint16"
        },
        {
          "indexed": false,
          "internalType": "uint16",
          "name": "gelatoSlippageBPS",
          "type": "uint16"
        },
        {
          "indexed": false,
          "internalType": "uint32",
          "name": "gelatoSlippageInterval",
          "type": "uint32"
        }
      ],
      "name": "UpdateGelatoParams",
      "type": "event"
    },
    {
      "inputs": [],
      "name": "GELATO",
      "outputs": [
        {
          "internalType": "address payable",
          "name": "",
          "type": "address"
        }
      ],
      "stateMutability": "view",
      "type": "function"
    },
    {
      "inputs": [
        {
          "internalType": "address",
          "name": "owner",
          "type": "address"
        },
        {
          "internalType": "address",
          "name": "spender",
          "type": "address"
        }
      ],
      "name": "allowance",
      "outputs": [
        {
          "internalType": "uint256",
          "name": "",
          "type": "uint256"
        }
      ],
      "stateMutability": "view",
      "type": "function"
    },
    {
      "inputs": [
        {
          "internalType": "address",
          "name": "spender",
          "type": "address"
        },
        {
          "internalType": "uint256",
          "name": "amount",
          "type": "uint256"
        }
      ],
      "name": "approve",
      "outputs": [
        {
          "internalType": "bool",
          "name": "",
          "type": "bool"
        }
      ],
      "stateMutability": "nonpayable",
      "type": "function"
    },
    {
      "inputs": [
        {
          "internalType": "address",
          "name": "account",
          "type": "address"
        }
      ],
      "name": "balanceOf",
      "outputs": [
        {
          "internalType": "uint256",
          "name": "",
          "type": "uint256"
        }
      ],
      "stateMutability": "view",
      "type": "function"
    },
    {
      "inputs": [
        {
          "internalType": "uint256",
          "name": "burnAmount",
          "type": "uint256"
        },
        {
          "internalType": "address",
          "name": "receiver",
          "type": "address"
        }
      ],
      "name": "burn",
      "outputs": [
        {
          "internalType": "uint256",
          "name": "amount0",
          "type": "uint256"
        },
        {
          "internalType": "uint256",
          "name": "amount1",
          "type": "uint256"
        },
        {
          "internalType": "uint128",
          "name": "liquidityBurned",
          "type": "uint128"
        }
      ],
      "stateMutability": "nonpayable",
      "type": "function"
    },
    {
      "inputs": [],
      "name": "decimals",
      "outputs": [
        {
          "internalType": "uint8",
          "name": "",
          "type": "uint8"
        }
      ],
      "stateMutability": "view",
      "type": "function"
    },
    {
      "inputs": [
        {
          "internalType": "address",
          "name": "spender",
          "type": "address"
        },
        {
          "internalType": "uint256",
          "name": "subtractedValue",
          "type": "uint256"
        }
      ],
      "name": "decreaseAllowance",
      "outputs": [
        {
          "internalType": "bool",
          "name": "",
          "type": "bool"
        }
      ],
      "stateMutability": "nonpayable",
      "type": "function"
    },
    {
      "inputs": [
        {
          "internalType": "int24",
          "name": "newLowerTick",
          "type": "int24"
        },
        {
          "internalType": "int24",
          "name": "newUpperTick",
          "type": "int24"
        },
        {
          "internalType": "uint160",
          "name": "swapThresholdPrice",
          "type": "uint160"
        },
        {
          "internalType": "uint256",
          "name": "swapAmountBPS",
          "type": "uint256"
        },
        {
          "internalType": "bool",
          "name": "zeroForOne",
          "type": "bool"
        }
      ],
      "name": "executiveRebalance",
      "outputs": [],
      "stateMutability": "nonpayable",
      "type": "function"
    },
    {
      "inputs": [],
      "name": "gelatoBalance0",
      "outputs": [
        {
          "internalType": "uint256",
          "name": "",
          "type": "uint256"
        }
      ],
      "stateMutability": "view",
      "type": "function"
    },
    {
      "inputs": [],
      "name": "gelatoBalance1",
      "outputs": [
        {
          "internalType": "uint256",
          "name": "",
          "type": "uint256"
        }
      ],
      "stateMutability": "view",
      "type": "function"
    },
    {
      "inputs": [],
      "name": "gelatoFeeBPS",
      "outputs": [
        {
          "internalType": "uint16",
          "name": "",
          "type": "uint16"
        }
      ],
      "stateMutability": "view",
      "type": "function"
    },
    {
      "inputs": [],
      "name": "gelatoRebalanceBPS",
      "outputs": [
        {
          "internalType": "uint16",
          "name": "",
          "type": "uint16"
        }
      ],
      "stateMutability": "view",
      "type": "function"
    },
    {
      "inputs": [],
      "name": "gelatoSlippageBPS",
      "outputs": [
        {
          "internalType": "uint16",
          "name": "",
          "type": "uint16"
        }
      ],
      "stateMutability": "view",
      "type": "function"
    },
    {
      "inputs": [],
      "name": "gelatoSlippageInterval",
      "outputs": [
        {
          "internalType": "uint32",
          "name": "",
          "type": "uint32"
        }
      ],
      "stateMutability": "view",
      "type": "function"
    },
    {
      "inputs": [],
      "name": "gelatoWithdrawBPS",
      "outputs": [
        {
          "internalType": "uint16",
          "name": "",
          "type": "uint16"
        }
      ],
      "stateMutability": "view",
      "type": "function"
    },
    {
      "inputs": [
        {
          "internalType": "uint256",
          "name": "amount0Max",
          "type": "uint256"
        },
        {
          "internalType": "uint256",
          "name": "amount1Max",
          "type": "uint256"
        }
      ],
      "name": "getMintAmounts",
      "outputs": [
        {
          "internalType": "uint256",
          "name": "amount0",
          "type": "uint256"
        },
        {
          "internalType": "uint256",
          "name": "amount1",
          "type": "uint256"
        },
        {
          "internalType": "uint256",
          "name": "mintAmount",
          "type": "uint256"
        }
      ],
      "stateMutability": "view",
      "type": "function"
    },
    {
      "inputs": [],
      "name": "getPositionID",
      "outputs": [
        {
          "internalType": "bytes32",
          "name": "positionID",
          "type": "bytes32"
        }
      ],
      "stateMutability": "view",
      "type": "function"
    },
    {
      "inputs": [],
      "name": "getUnderlyingBalances",
      "outputs": [
        {
          "internalType": "uint256",
          "name": "amount0Current",
          "type": "uint256"
        },
        {
          "internalType": "uint256",
          "name": "amount1Current",
          "type": "uint256"
        }
      ],
      "stateMutability": "view",
      "type": "function"
    },
    {
      "inputs": [
        {
          "internalType": "uint160",
          "name": "sqrtRatioX96",
          "type": "uint160"
        }
      ],
      "name": "getUnderlyingBalancesAtPrice",
      "outputs": [
        {
          "internalType": "uint256",
          "name": "amount0Current",
          "type": "uint256"
        },
        {
          "internalType": "uint256",
          "name": "amount1Current",
          "type": "uint256"
        }
      ],
      "stateMutability": "view",
      "type": "function"
    },
    {
      "inputs": [
        {
          "internalType": "address",
          "name": "spender",
          "type": "address"
        },
        {
          "internalType": "uint256",
          "name": "addedValue",
          "type": "uint256"
        }
      ],
      "name": "increaseAllowance",
      "outputs": [
        {
          "internalType": "bool",
          "name": "",
          "type": "bool"
        }
      ],
      "stateMutability": "nonpayable",
      "type": "function"
    },
    {
      "inputs": [
        {
          "internalType": "string",
          "name": "_name",
          "type": "string"
        },
        {
          "internalType": "string",
          "name": "_symbol",
          "type": "string"
        },
        {
          "internalType": "address",
          "name": "_pool",
          "type": "address"
        },
        {
          "internalType": "uint16",
          "name": "_managerFeeBPS",
          "type": "uint16"
        },
        {
          "internalType": "int24",
          "name": "_lowerTick",
          "type": "int24"
        },
        {
          "internalType": "int24",
          "name": "_upperTick",
          "type": "int24"
        },
        {
          "internalType": "address",
          "name": "_manager_",
          "type": "address"
        }
      ],
      "name": "initialize",
      "outputs": [],
      "stateMutability": "nonpayable",
      "type": "function"
    },
    {
      "inputs": [
        {
          "internalType": "uint16",
          "name": "_managerFeeBPS",
          "type": "uint16"
        }
      ],
      "name": "initializeManagerFee",
      "outputs": [],
      "stateMutability": "nonpayable",
      "type": "function"
    },
    {
      "inputs": [],
      "name": "lowerTick",
      "outputs": [
        {
          "internalType": "int24",
          "name": "",
          "type": "int24"
        }
      ],
      "stateMutability": "view",
      "type": "function"
    },
    {
      "inputs": [],
      "name": "manager",
      "outputs": [
        {
          "internalType": "address",
          "name": "",
          "type": "address"
        }
      ],
      "stateMutability": "view",
      "type": "function"
    },
    {
      "inputs": [],
      "name": "managerBalance0",
      "outputs": [
        {
          "internalType": "uint256",
          "name": "",
          "type": "uint256"
        }
      ],
      "stateMutability": "view",
      "type": "function"
    },
    {
      "inputs": [],
      "name": "managerBalance1",
      "outputs": [
        {
          "internalType": "uint256",
          "name": "",
          "type": "uint256"
        }
      ],
      "stateMutability": "view",
      "type": "function"
    },
    {
      "inputs": [],
      "name": "managerFeeBPS",
      "outputs": [
        {
          "internalType": "uint16",
          "name": "",
          "type": "uint16"
        }
      ],
      "stateMutability": "view",
      "type": "function"
    },
    {
      "inputs": [],
      "name": "managerTreasury",
      "outputs": [
        {
          "internalType": "address",
          "name": "",
          "type": "address"
        }
      ],
      "stateMutability": "view",
      "type": "function"
    },
    {
      "inputs": [
        {
          "internalType": "uint256",
          "name": "mintAmount",
          "type": "uint256"
        },
        {
          "internalType": "address",
          "name": "receiver",
          "type": "address"
        }
      ],
      "name": "mint",
      "outputs": [
        {
          "internalType": "uint256",
          "name": "amount0",
          "type": "uint256"
        },
        {
          "internalType": "uint256",
          "name": "amount1",
          "type": "uint256"
        },
        {
          "internalType": "uint128",
          "name": "liquidityMinted",
          "type": "uint128"
        }
      ],
      "stateMutability": "nonpayable",
      "type": "function"
    },
    {
      "inputs": [],
      "name": "name",
      "outputs": [
        {
          "internalType": "string",
          "name": "",
          "type": "string"
        }
      ],
      "stateMutability": "view",
      "type": "function"
    },
    {
      "inputs": [],
      "name": "pool",
      "outputs": [
        {
          "internalType": "contract IUniswapV3Pool",
          "name": "",
          "type": "address"
        }
      ],
      "stateMutability": "view",
      "type": "function"
    },
    {
      "inputs": [
        {
          "internalType": "uint160",
          "name": "swapThresholdPrice",
          "type": "uint160"
        },
        {
          "internalType": "uint256",
          "name": "swapAmountBPS",
          "type": "uint256"
        },
        {
          "internalType": "bool",
          "name": "zeroForOne",
          "type": "bool"
        },
        {
          "internalType": "uint256",
          "name": "feeAmount",
          "type": "uint256"
        },
        {
          "internalType": "address",
          "name": "paymentToken",
          "type": "address"
        }
      ],
      "name": "rebalance",
      "outputs": [],
      "stateMutability": "nonpayable",
      "type": "function"
    },
    {
      "inputs": [],
      "name": "renounceOwnership",
      "outputs": [],
      "stateMutability": "nonpayable",
      "type": "function"
    },
    {
      "inputs": [],
      "name": "symbol",
      "outputs": [
        {
          "internalType": "string",
          "name": "",
          "type": "string"
        }
      ],
      "stateMutability": "view",
      "type": "function"
    },
    {
      "inputs": [],
      "name": "token0",
      "outputs": [
        {
          "internalType": "contract IERC20",
          "name": "",
          "type": "address"
        }
      ],
      "stateMutability": "view",
      "type": "function"
    },
    {
      "inputs": [],
      "name": "token1",
      "outputs": [
        {
          "internalType": "contract IERC20",
          "name": "",
          "type": "address"
        }
      ],
      "stateMutability": "view",
      "type": "function"
    },
    {
      "inputs": [],
      "name": "totalSupply",
      "outputs": [
        {
          "internalType": "uint256",
          "name": "",
          "type": "uint256"
        }
      ],
      "stateMutability": "view",
      "type": "function"
    },
    {
      "inputs": [
        {
          "internalType": "address",
          "name": "recipient",
          "type": "address"
        },
        {
          "internalType": "uint256",
          "name": "amount",
          "type": "uint256"
        }
      ],
      "name": "transfer",
      "outputs": [
        {
          "internalType": "bool",
          "name": "",
          "type": "bool"
        }
      ],
      "stateMutability": "nonpayable",
      "type": "function"
    },
    {
      "inputs": [
        {
          "internalType": "address",
          "name": "sender",
          "type": "address"
        },
        {
          "internalType": "address",
          "name": "recipient",
          "type": "address"
        },
        {
          "internalType": "uint256",
          "name": "amount",
          "type": "uint256"
        }
      ],
      "name": "transferFrom",
      "outputs": [
        {
          "internalType": "bool",
          "name": "",
          "type": "bool"
        }
      ],
      "stateMutability": "nonpayable",
      "type": "function"
    },
    {
      "inputs": [
        {
          "internalType": "address",
          "name": "newOwner",
          "type": "address"
        }
      ],
      "name": "transferOwnership",
      "outputs": [],
      "stateMutability": "nonpayable",
      "type": "function"
    },
    {
      "inputs": [
        {
          "internalType": "uint256",
          "name": "amount0Owed",
          "type": "uint256"
        },
        {
          "internalType": "uint256",
          "name": "amount1Owed",
          "type": "uint256"
        },
        {
          "internalType": "bytes",
          "name": "",
          "type": "bytes"
        }
      ],
      "name": "uniswapV3MintCallback",
      "outputs": [],
      "stateMutability": "nonpayable",
      "type": "function"
    },
    {
      "inputs": [
        {
          "internalType": "int256",
          "name": "amount0Delta",
          "type": "int256"
        },
        {
          "internalType": "int256",
          "name": "amount1Delta",
          "type": "int256"
        },
        {
          "internalType": "bytes",
          "name": "",
          "type": "bytes"
        }
      ],
      "name": "uniswapV3SwapCallback",
      "outputs": [],
      "stateMutability": "nonpayable",
      "type": "function"
    },
    {
      "inputs": [
        {
          "internalType": "uint16",
          "name": "newRebalanceBPS",
          "type": "uint16"
        },
        {
          "internalType": "uint16",
          "name": "newWithdrawBPS",
          "type": "uint16"
        },
        {
          "internalType": "uint16",
          "name": "newSlippageBPS",
          "type": "uint16"
        },
        {
          "internalType": "uint32",
          "name": "newSlippageInterval",
          "type": "uint32"
        },
        {
          "internalType": "address",
          "name": "newTreasury",
          "type": "address"
        }
      ],
      "name": "updateGelatoParams",
      "outputs": [],
      "stateMutability": "nonpayable",
      "type": "function"
    },
    {
      "inputs": [],
      "name": "upperTick",
      "outputs": [
        {
          "internalType": "int24",
          "name": "",
          "type": "int24"
        }
      ],
      "stateMutability": "view",
      "type": "function"
    },
    {
      "inputs": [],
      "name": "version",
      "outputs": [
        {
          "internalType": "string",
          "name": "",
          "type": "string"
        }
      ],
      "stateMutability": "view",
      "type": "function"
    },
    {
      "inputs": [
        {
          "internalType": "uint256",
          "name": "feeAmount",
          "type": "uint256"
        },
        {
          "internalType": "address",
          "name": "feeToken",
          "type": "address"
        }
      ],
      "name": "withdrawGelatoBalance",
      "outputs": [],
      "stateMutability": "nonpayable",
      "type": "function"
    },
    {
      "inputs": [
        {
          "internalType": "uint256",
          "name": "feeAmount",
          "type": "uint256"
        },
        {
          "internalType": "address",
          "name": "feeToken",
          "type": "address"
        }
      ],
      "name": "withdrawManagerBalance",
      "outputs": [],
      "stateMutability": "nonpayable",
      "type": "function"
    }
  ],
  "transactionHash": "0xd8e1b8273996f39c334f24c5f5605eb46efa1ac2ac90a046153b2c253e142e34",
  "args": [
    "0x3CACa7b48D0573D793d3b0279b5F0029180E83b6"
  ],
  "solcInputHash": "5b7722421ca04d0a130cd8a2a08f9ec3",
  "bytecode": "0x60a06040523480156200001157600080fd5b50604051620060d1380380620060d183398101604081905262000034916200004a565b60601b6001600160601b0319166080526200007a565b6000602082840312156200005c578081fd5b81516001600160a01b038116811462000073578182fd5b9392505050565b60805160601c615ff9620000d8600039600081816105f801528181610d3f01528181610e2801528181610e620152818161154901528181611795015281816117cf015281816118b10152818161192801526119650152615ff96000f3fe608060405234801561001057600080fd5b50600436106102255760003560e01c8063065756db1461022a57806306fdde0314610246578063095ea7b31461025b5780630dfe16811461027e5780631322d9541461029e57806316f0115b146102b457806318160ddd146102c757806323b872dd146102cf57806324b8fd1b146102e257806331366be4146102f7578063313ce5671461031257806339509351146103215780633d8b30e11461033457806342fb9d4414610349578063481c6a751461035257806354fd4d501461035a578063672152bd1461037e57806370a08231146103a3578063715018a6146103cc578063727dd228146103d457806378ac6357146103f557806394bf804d1461040857806395d89b411461043f5780639894f21a1461044757806399fd808c146104755780639b1344ac14610488578063a457c2d71461049c578063a50b1fe7146104af578063a9059cbb146104c4578063b135c99f146104d7578063b536bd12146104ea578063b670ed7d146104f3578063be93dd5f14610506578063c345445914610519578063cc95353e14610522578063ccdf7a021461053c578063d21220a714610551578063d348799714610564578063d6e7ff3914610577578063dd62ed3e1461058c578063df28408a146105c5578063e25e15e3146105cd578063e4077894146105e0578063eff557a7146105f3578063f2fde38b1461061a578063fa461e331461062d578063fcd3533c14610640575b600080fd5b61023360995481565b6040519081526020015b60405180910390f35b61024e610653565b60405161023d9190615a02565b61026e610269366004615353565b6106e5565b604051901515815260200161023d565b609e54610291906001600160a01b031681565b60405161023d91906158ef565b6102a66106fb565b60405161023d929190615bfa565b609d54610291906001600160a01b031681565b603554610233565b61026e6102dd366004615313565b6107a4565b6102f56102f036600461545d565b61085c565b005b6102ff60fa81565b60405161ffff909116815260200161023d565b6040516012815260200161023d565b61026e61032f366004615353565b610c96565b6097546102ff90600160e01b900461ffff1681565b610233609a5481565b610291610ccd565b61024e604051806040016040528060058152602001640312e302e360dc1b81525081565b60985461038e9063ffffffff1681565b60405163ffffffff909116815260200161023d565b6102336103b13660046152a3565b6001600160a01b031660009081526033602052604090205490565b6102f5610cdc565b6097546103e890600160b81b900460020b81565b60405161023d91906159c6565b6102f561040336600461588e565b610d32565b61041b61041636600461588e565b610e8d565b6040805193845260208401929092526001600160801b03169082015260600161023d565b61024e611173565b61045a6104553660046158b2565b611182565b6040805193845260208401929092529082015260600161023d565b6102f5610483366004615814565b6112d4565b6097546103e890600160a01b900460020b81565b61026e6104aa366004615353565b611494565b6097546102ff90600160d01b900461ffff1681565b61026e6104d2366004615353565b61152f565b6102f56104e53660046157c4565b61153c565b610233609b5481565b6102a66105013660046152a3565b6117fd565b6102f561051436600461588e565b6118a4565b610233609c5481565b60985461029190600160301b90046001600160a01b031681565b6098546102ff90600160201b900461ffff1681565b609f54610291906001600160a01b031681565b6102f56105723660046154e7565b61198a565b6097546102ff90600160f01b900461ffff1681565b61023361059a3660046152db565b6001600160a01b03918216600090815260346020908152604080832093909416825291909152205490565b6102336119ee565b6102f56105db366004615537565b6119fd565b6102f56105ee366004615718565b611c9a565b6102917f000000000000000000000000000000000000000000000000000000000000000081565b6102f56106283660046152a3565b611da7565b6102f561063b3660046154e7565b611e87565b61041b61064e36600461588e565b611ef1565b60606036805461066290615e08565b80601f016020809104026020016040519081016040528092919081815260200182805461068e90615e08565b80156106db5780601f106106b0576101008083540402835291602001916106db565b820191906000526020600020905b8154815290600101906020018083116106be57829003601f168201915b5050505050905090565b60006106f233848461222a565b50600192915050565b600080600080609d60009054906101000a90046001600160a01b03166001600160a01b0316633850c7bd6040518163ffffffff1660e01b815260040160e06040518083038186803b15801561074f57600080fd5b505afa158015610763573d6000803e3d6000fd5b505050506040513d601f19601f820116820180604052508101906107879190615734565b50505050509150915061079a828261234f565b9350935050509091565b60006107b1848484612600565b6001600160a01b03841660009081526034602090815260408083203384529091529020548281101561083b5760405162461bcd60e51b815260206004820152602860248201527f45524332303a207472616e7366657220616d6f756e74206578636565647320616044820152676c6c6f77616e636560c01b60648201526084015b60405180910390fd5b61084f853361084a8685615dc5565b61222a565b60019150505b9392505050565b33610865610ccd565b6001600160a01b03161461088b5760405162461bcd60e51b815260040161083290615b61565b600080600061089960355490565b1115610c1d57609d546001600160a01b031663514ea4bf6108b86127c6565b6040518263ffffffff1660e01b81526004016108d691815260200190565b60a06040518083038186803b1580156108ee57600080fd5b505afa158015610902573d6000803e3d6000fd5b505050506040513d601f19601f8201168201806040525081019061092691906156c2565b5092945050506001600160801b0383161590506109af57609754600090819061096590600160a01b8104600290810b91600160b81b9004900b8661282c565b9350935050506109758282612bb9565b61097f8282612c92565b6040519193509150600080516020615fa4833981519152906109a49084908490615bfa565b60405180910390a150505b60978054600288810b62ffffff908116600160b81b0262ffffff60b81b19928c900b909116600160a01b029190911665ffffffffffff60a01b1990921691909117179055609b54609954609e546040516370a0823160e01b815260009392916001600160a01b0316906370a0823190610a2c9030906004016158ef565b60206040518083038186803b158015610a4457600080fd5b505afa158015610a58573d6000803e3d6000fd5b505050506040513d601f19601f82011682018060405250810190610a7c9190615876565b610a869190615dc5565b610a909190615dc5565b609c54609a54609f546040516370a0823160e01b81529394506000936001600160a01b03909116906370a0823190610acc9030906004016158ef565b60206040518083038186803b158015610ae457600080fd5b505afa158015610af8573d6000803e3d6000fd5b505050506040513d601f19601f82011682018060405250810190610b1c9190615876565b610b269190615dc5565b610b309190615dc5565b9050610b41898984848b8b8b612d2d565b609d546001600160a01b031663514ea4bf610b5a6127c6565b6040518263ffffffff1660e01b8152600401610b7891815260200190565b60a06040518083038186803b158015610b9057600080fd5b505afa158015610ba4573d6000803e3d6000fd5b505050506040513d601f19601f82011682018060405250810190610bc891906156c2565b509295505050506001600160801b038316610c165760405162461bcd60e51b815260206004820152600e60248201526d06e657720706f736974696f6e20360941b6044820152606401610832565b5050610c62565b60978054600288810b62ffffff908116600160b81b0262ffffff60b81b19928c900b909116600160a01b029190911665ffffffffffff60a01b19909216919091171790555b600080516020615f4483398151915287878484604051610c8594939291906159d4565b60405180910390a150505050505050565b3360008181526034602090815260408083206001600160a01b038716845290915281205490916106f291859061084a908690615ca3565b6097546001600160a01b031690565b33610ce5610ccd565b6001600160a01b031614610d0b5760405162461bcd60e51b815260040161083290615b61565b60988054600160201b600160d01b031916905560006099819055609a55610d30612eec565b565b8181336001600160a01b037f00000000000000000000000000000000000000000000000000000000000000001614610d7c5760405162461bcd60e51b815260040161083290615a35565b600080610d8f609954609a548888612f53565b60006099819055609a5590925090508115610dc957609854609e54610dc9916001600160a01b0391821691600160301b9091041684613077565b8015610df457609854609f54610df4916001600160a01b0391821691600160301b9091041683613077565b50506001600160a01b03811673eeeeeeeeeeeeeeeeeeeeeeeeeeeeeeeeeeeeeeee1415610e5357610e4e6001600160a01b037f000000000000000000000000000000000000000000000000000000000000000016836130df565b610e87565b610e876001600160a01b0382167f000000000000000000000000000000000000000000000000000000000000000084613077565b50505050565b600080600060026065541415610eb55760405162461bcd60e51b815260040161083290615bc3565b600260655584610ed75760405162461bcd60e51b815260040161083290615ba3565b6000610ee260355490565b90506000609d60009054906101000a90046001600160a01b03166001600160a01b0316633850c7bd6040518163ffffffff1660e01b815260040160e06040518083038186803b158015610f3457600080fd5b505afa158015610f48573d6000803e3d6000fd5b505050506040513d601f19601f82011682018060405250810190610f6c9190615734565b50505050505090506000821115610fad57600080610f886106fb565b91509150610f97828a866131f5565b9650610fa4818a866131f5565b95505050610ffa565b610ff481610fcc609760149054906101000a900460020b60020b61324c565b609754610fe690600160b81b9004600290810b900b61324c565b610fef8b61365e565b6136c7565b90955093505b841561101857609e54611018906001600160a01b0316333088613762565b831561103657609f54611036906001600160a01b0316333087613762565b61107681611055609760149054906101000a900460020b60020b61324c565b60975461106f90600160b81b9004600290810b900b61324c565b888861379a565b609d54609754604051633c8a7d8d60e01b81529295506001600160a01b0390911691633c8a7d8d916110c6913091600160a01b8104600290810b92600160b81b909204900b908990600401615903565b6040805180830381600087803b1580156110df57600080fd5b505af11580156110f3573d6000803e3d6000fd5b505050506040513d601f19601f8201168201806040525081019061111791906154c4565b5050611123868861385c565b7f55801cfe493000b734571da1694b21e7f66b11e8ce9fdaa0524ecb59105e73e7868887878760405161115a959493929190615945565b60405180910390a1505060016065819055509250925092565b60606037805461066290615e08565b60008060008061119160355490565b905080156111b0576111a4818787613929565b919550935091506112cc565b609d5460408051633850c7bd60e01b815290516000926001600160a01b031691633850c7bd9160048083019260e0929190829003018186803b1580156111f557600080fd5b505afa158015611209573d6000803e3d6000fd5b505050506040513d601f19601f8201168201806040525081019061122d9190615734565b5050505050509050600061127782611256609760149054906101000a900460020b60020b61324c565b60975461127090600160b81b9004600290810b900b61324c565b8b8b61379a565b9050806001600160801b031693506112c4826112a4609760149054906101000a900460020b60020b61324c565b6097546112be90600160b81b9004600290810b900b61324c565b846136c7565b909650945050505b509250925092565b336112dd610ccd565b6001600160a01b0316146113035760405162461bcd60e51b815260040161083290615b61565b6127108461ffff1611156113295760405162461bcd60e51b815260040161083290615b44565b6127108561ffff16111561134f5760405162461bcd60e51b815260040161083290615b44565b6127108361ffff1611156113755760405162461bcd60e51b815260040161083290615b44565b6040805161ffff8781168252868116602083015285168183015263ffffffff8416606082015290517f0b7615006627cf7664941bc288d4641731f895e102f95cb8690583ad7508faa89181900360800190a161ffff8516156113ec576097805461ffff60d01b1916600160d01b61ffff8816021790555b61ffff841615611411576097805461ffff60e01b1916600160e01b61ffff8716021790555b61ffff83161561143757609780546001600160f01b0316600160f01b61ffff8616021790555b63ffffffff821615611459576098805463ffffffff191663ffffffff84161790555b6001600160a01b0381161561148d5760988054600160301b600160d01b031916600160301b6001600160a01b038416021790555b5050505050565b3360009081526034602090815260408083206001600160a01b0386168452909152812054828110156115165760405162461bcd60e51b815260206004820152602560248201527f45524332303a2064656372656173656420616c6c6f77616e63652062656c6f77604482015264207a65726f60d81b6064820152608401610832565b611525338561084a8685615dc5565b5060019392505050565b60006106f2338484612600565b8181336001600160a01b037f000000000000000000000000000000000000000000000000000000000000000016146115865760405162461bcd60e51b815260040161083290615a35565b8515611596576115968786613a38565b609d546000906001600160a01b031663514ea4bf6115b26127c6565b6040518263ffffffff1660e01b81526004016115d091815260200190565b60a06040518083038186803b1580156115e857600080fd5b505afa1580156115fc573d6000803e3d6000fd5b505050506040513d601f19601f8201168201806040525081019061162091906156c2565b505050509050611634818989898989613ce6565b609d546000906001600160a01b031663514ea4bf6116506127c6565b6040518263ffffffff1660e01b815260040161166e91815260200190565b60a06040518083038186803b15801561168657600080fd5b505afa15801561169a573d6000803e3d6000fd5b505050506040513d601f19601f820116820180604052508101906116be91906156c2565b505050509050816001600160801b0316816001600160801b03161161171f5760405162461bcd60e51b81526020600482015260176024820152766c6971756964697479206d75737420696e63726561736560481b6044820152606401610832565b609754604051600080516020615f448339815191529161175991600160a01b8204600290810b92600160b81b9004900b90869086906159d4565b60405180910390a150506001600160a01b03811673eeeeeeeeeeeeeeeeeeeeeeeeeeeeeeeeeeeeeeee14156117c0576117bb6001600160a01b037f000000000000000000000000000000000000000000000000000000000000000016836130df565b6117f4565b6117f46001600160a01b0382167f000000000000000000000000000000000000000000000000000000000000000084613077565b50505050505050565b6000806000609d60009054906101000a90046001600160a01b03166001600160a01b0316633850c7bd6040518163ffffffff1660e01b815260040160e06040518083038186803b15801561185057600080fd5b505afa158015611864573d6000803e3d6000fd5b505050506040513d601f19601f820116820180604052508101906118889190615734565b505050505091505061189a848261234f565b9250925050915091565b8181336001600160a01b037f000000000000000000000000000000000000000000000000000000000000000016146118ee5760405162461bcd60e51b815260040161083290615a35565b600080611901609b54609c548888612f53565b6000609b819055609c559092509050811561194d57609e5461194d906001600160a01b03167f000000000000000000000000000000000000000000000000000000000000000084613077565b8015610df457609f54610df4906001600160a01b03167f000000000000000000000000000000000000000000000000000000000000000083613077565b609d546001600160a01b031633146119b45760405162461bcd60e51b815260040161083290615a84565b83156119d157609e546119d1906001600160a01b03163386613077565b8215610e8757609f54610e87906001600160a01b03163385613077565b60006119f86127c6565b905090565b600054610100900460ff1680611a16575060005460ff16155b611a325760405162461bcd60e51b815260040161083290615aad565b600054610100900460ff16158015611a54576000805461ffff19166101011790555b611a6160fa612710615d82565b61ffff168561ffff161115611a885760405162461bcd60e51b815260040161083290615a66565b609d80546001600160a01b0319166001600160a01b03881690811790915560408051630dfe168160e01b81529051630dfe168191600480820192602092909190829003018186803b158015611adc57600080fd5b505afa158015611af0573d6000803e3d6000fd5b505050506040513d601f19601f82011682018060405250810190611b1491906152bf565b609e80546001600160a01b0319166001600160a01b03928316179055609d546040805163d21220a760e01b81529051919092169163d21220a7916004808301926020929190829003018186803b158015611b6d57600080fd5b505afa158015611b81573d6000803e3d6000fd5b505050506040513d601f19601f82011682018060405250810190611ba591906152bf565b609f80546001600160a01b03199081166001600160a01b0393841617909155609880546097805461012c65ffffffffffff19909316600160201b61ffff8d160263ffffffff19161792909217600160301b600160d01b031916600160301b95881695860217909255643e800c801960d31b600165ffffff00000160a01b03909116600160a01b60028a810b62ffffff908116929092029290921792909217600165ffffff00000160a01b031916600160b81b9189900b9290921602909216919091179091179055611c768888614208565b611c7e614287565b8015611c90576000805461ff00191690555b5050505050505050565b33611ca3610ccd565b6001600160a01b031614611cc95760405162461bcd60e51b815260040161083290615b61565b609854600160201b900461ffff1615611d0a5760405162461bcd60e51b815260206004820152600360248201526266656560e81b6044820152606401610832565b60008161ffff16118015611d325750611d2660fa612710615d82565b61ffff168161ffff1611155b611d4e5760405162461bcd60e51b815260040161083290615a66565b60405161ffff821681527f8a1ffb520c943072e654fc414750dbefad5b6d6311339d041901c4752782fad39060200160405180910390a16098805461ffff909216600160201b0261ffff60201b19909216919091179055565b33611db0610ccd565b6001600160a01b031614611dd65760405162461bcd60e51b815260040161083290615b61565b6001600160a01b038116611e3d5760405162461bcd60e51b815260206004820152602860248201527f4f776e61626c653a206e6577206d616e6167657220697320746865207a65726f604482015267206164647265737360c01b6064820152608401610832565b6097546040516001600160a01b03808416921690600080516020615f6483398151915290600090a3609780546001600160a01b0319166001600160a01b0392909216919091179055565b609d546001600160a01b03163314611eb15760405162461bcd60e51b815260040161083290615a84565b6000841315611ed157609e54610e4e906001600160a01b03163386613077565b6000831315610e8757609f54610e87906001600160a01b03163385613077565b600080600060026065541415611f195760405162461bcd60e51b815260040161083290615bc3565b600260655584611f545760405162461bcd60e51b815260206004820152600660248201526506275726e20360d41b6044820152606401610832565b6000611f5f60355490565b609d549091506000906001600160a01b031663514ea4bf611f7e6127c6565b6040518263ffffffff1660e01b8152600401611f9c91815260200190565b60a06040518083038186803b158015611fb457600080fd5b505afa158015611fc8573d6000803e3d6000fd5b505050506040513d601f19601f82011682018060405250810190611fec91906156c2565b505050509050611ffc33886142fb565b600061201288836001600160801b031685614438565b905061201d8161365e565b60975490945060009081908190819061204c90600160a01b8104600290810b91600160b81b9004900b8a61282c565b935093509350935061205e8282612bb9565b6120688282612c92565b6040519193509150600080516020615fa48339815191529061208d9084908490615bfa565b60405180910390a1609b54609954609e546040516370a0823160e01b815261214893929188916001600160a01b03909116906370a08231906120d39030906004016158ef565b60206040518083038186803b1580156120eb57600080fd5b505afa1580156120ff573d6000803e3d6000fd5b505050506040513d601f19601f820116820180604052508101906121239190615876565b61212d9190615dc5565b6121379190615dc5565b6121419190615dc5565b8d89614438565b6121529085615ca3565b609c54609a54609f546040516370a0823160e01b8152939d5061218f9387916001600160a01b0316906370a08231906120d39030906004016158ef565b6121999084615ca3565b985089156121b857609e546121b8906001600160a01b03168c8c613077565b88156121d557609f546121d5906001600160a01b03168c8b613077565b7f7239dff1718b550db7f36cbf69c665cfeb56d0e96b4fb76a5cba712961b655098b8d8c8c8c60405161220c959493929190615945565b60405180910390a15050505050505060016065819055509250925092565b6001600160a01b03831661228c5760405162461bcd60e51b8152602060048201526024808201527f45524332303a20617070726f76652066726f6d20746865207a65726f206164646044820152637265737360e01b6064820152608401610832565b6001600160a01b0382166122ed5760405162461bcd60e51b815260206004820152602260248201527f45524332303a20617070726f766520746f20746865207a65726f206164647265604482015261737360f01b6064820152608401610832565b6001600160a01b0383811660008181526034602090815260408083209487168084529482529182902085905590518481527f8c5be1e5ebec7d5bd14f71427d1e84f3dd0314c0f7b2291e5b200ac8c7c3b92591015b60405180910390a3505050565b609d546000908190819081908190819081906001600160a01b031663514ea4bf6123776127c6565b6040518263ffffffff1660e01b815260040161239591815260200190565b60a06040518083038186803b1580156123ad57600080fd5b505afa1580156123c1573d6000803e3d6000fd5b505050506040513d601f19601f820116820180604052508101906123e591906156c2565b9450945094509450945061242e8961240e609760149054906101000a900460020b60020b61324c565b60975461242890600160b81b9004600290810b900b61324c565b886136c7565b909750955060006001600160801b03831661244c6001878c8a6144e7565b6124569190615ca3565b90506000826001600160801b03166124716000878d8b6144e7565b61247b9190615ca3565b90506124878282612c92565b609b54609954609e546040516370a0823160e01b8152949650929450909290916001600160a01b0316906370a08231906124c59030906004016158ef565b60206040518083038186803b1580156124dd57600080fd5b505afa1580156124f1573d6000803e3d6000fd5b505050506040513d601f19601f820116820180604052508101906125159190615876565b61251f9085615ca3565b6125299190615dc5565b6125339190615dc5565b61253d908a615ca3565b609c54609a54609f546040516370a0823160e01b8152939c50919290916001600160a01b0316906370a08231906125789030906004016158ef565b60206040518083038186803b15801561259057600080fd5b505afa1580156125a4573d6000803e3d6000fd5b505050506040513d601f19601f820116820180604052508101906125c89190615876565b6125d29084615ca3565b6125dc9190615dc5565b6125e69190615dc5565b6125f09089615ca3565b9750505050505050509250929050565b6001600160a01b0383166126645760405162461bcd60e51b815260206004820152602560248201527f45524332303a207472616e736665722066726f6d20746865207a65726f206164604482015264647265737360d81b6064820152608401610832565b6001600160a01b0382166126c65760405162461bcd60e51b815260206004820152602360248201527f45524332303a207472616e7366657220746f20746865207a65726f206164647260448201526265737360e81b6064820152608401610832565b6001600160a01b0383166000908152603360205260409020548181101561273e5760405162461bcd60e51b815260206004820152602660248201527f45524332303a207472616e7366657220616d6f756e7420657863656564732062604482015265616c616e636560d01b6064820152608401610832565b6127488282615dc5565b6001600160a01b03808616600090815260336020526040808220939093559085168152908120805484929061277e908490615ca3565b92505081905550826001600160a01b0316846001600160a01b0316600080516020615f84833981519152846040516127b891815260200190565b60405180910390a350505050565b6097546040516001600160601b03193060601b166020820152600160a01b8204600290810b810b60e890811b6034840152600160b81b909304810b900b90911b6037820152600090603a0160405160208183030381529060405280519060200120905090565b609e546040516370a0823160e01b815260009182918291829182916001600160a01b0316906370a08231906128659030906004016158ef565b60206040518083038186803b15801561287d57600080fd5b505afa158015612891573d6000803e3d6000fd5b505050506040513d601f19601f820116820180604052508101906128b59190615876565b609f546040516370a0823160e01b81529192506000916001600160a01b03909116906370a08231906128eb9030906004016158ef565b60206040518083038186803b15801561290357600080fd5b505afa158015612917573d6000803e3d6000fd5b505050506040513d601f19601f8201168201806040525081019061293b9190615876565b609d5460405163a34123a760e01b815260028c810b60048301528b900b60248201526001600160801b038a1660448201529192506001600160a01b03169063a34123a7906064016040805180830381600087803b15801561299b57600080fd5b505af11580156129af573d6000803e3d6000fd5b505050506040513d601f19601f820116820180604052508101906129d391906154c4565b609d546040516309e3d67b60e31b815230600482015260028d810b60248301528c900b60448201526001600160801b036064820181905260848201529298509096506001600160a01b031690634f1eb3d89060a4016040805180830381600087803b158015612a4157600080fd5b505af1158015612a55573d6000803e3d6000fd5b505050506040513d601f19601f82011682018060405250810190612a799190615690565b5050609e546040516370a0823160e01b8152879184916001600160a01b03909116906370a0823190612aaf9030906004016158ef565b60206040518083038186803b158015612ac757600080fd5b505afa158015612adb573d6000803e3d6000fd5b505050506040513d601f19601f82011682018060405250810190612aff9190615876565b612b099190615dc5565b612b139190615dc5565b609f546040516370a0823160e01b8152919550869183916001600160a01b0316906370a0823190612b489030906004016158ef565b60206040518083038186803b158015612b6057600080fd5b505afa158015612b74573d6000803e3d6000fd5b505050506040513d601f19601f82011682018060405250810190612b989190615876565b612ba29190615dc5565b612bac9190615dc5565b9250505093509350935093565b612710612bc760fa84615d24565b612bd19190615ce1565b609b6000828254612be29190615ca3565b909155506127109050612bf660fa83615d24565b612c009190615ce1565b609c6000828254612c119190615ca3565b909155505060985461271090612c3290600160201b900461ffff1684615d24565b612c3c9190615ce1565b60996000828254612c4d9190615ca3565b909155505060985461271090612c6e90600160201b900461ffff1683615d24565b612c789190615ce1565b609a6000828254612c899190615ca3565b90915550505050565b6000806000612710609860049054906101000a900461ffff1660fa612cb79190615c5b565b612cc59061ffff1687615d24565b612ccf9190615ce1565b60985490915060009061271090612cf290600160201b900461ffff1660fa615c5b565b612d009061ffff1687615d24565b612d0a9190615ce1565b9050612d168287615dc5565b9350612d228186615dc5565b925050509250929050565b609d5460408051633850c7bd60e01b815290516000926001600160a01b031691633850c7bd9160048083019260e0929190829003018186803b158015612d7257600080fd5b505afa158015612d86573d6000803e3d6000fd5b505050506040513d601f19601f82011682018060405250810190612daa9190615734565b50505050505090506000612dd782612dc48b60020b61324c565b612dd08b60020b61324c565b8a8a61379a565b90506001600160801b03811615612e9457609d54604051633c8a7d8d60e01b815260009182916001600160a01b0390911690633c8a7d8d90612e239030908f908f908990600401615903565b6040805180830381600087803b158015612e3c57600080fd5b505af1158015612e50573d6000803e3d6000fd5b505050506040513d601f19601f82011682018060405250810190612e7491906154c4565b9092509050612e83828a615dc5565b9850612e8f8189615dc5565b975050505b6000612ec36127108686612ea85789612eaa565b8a5b612eb49190615d24565b612ebe9190615ce1565b6148f3565b90506000811315612ee057612edd8a8a8a8a858b8a614959565b50505b50505050505050505050565b33612ef5610ccd565b6001600160a01b031614612f1b5760405162461bcd60e51b815260040161083290615b61565b6097546040516000916001600160a01b031690600080516020615f64833981519152908390a3609780546001600160a01b0319169055565b609e5460009081906001600160a01b0384811691161415612fc857609754849061271090612f8c90600160e01b900461ffff1689615d24565b612f969190615ce1565b1015612fb45760405162461bcd60e51b815260040161083290615afb565b612fbe8487615dc5565b915084905061306e565b609f546001600160a01b038481169116141561303857609754849061271090612ffc90600160e01b900461ffff1688615d24565b6130069190615ce1565b10156130245760405162461bcd60e51b815260040161083290615afb565b61302e8486615dc5565b905085915061306e565b60405162461bcd60e51b815260206004820152600b60248201526a3bb937b733903a37b5b2b760a91b6044820152606401610832565b94509492505050565b6040516001600160a01b0383166024820152604481018290526130da90849063a9059cbb60e01b906064015b60408051601f198184030181529190526020810180516001600160e01b03166001600160e01b031990931692909217909152614ba2565b505050565b8047101561312f5760405162461bcd60e51b815260206004820152601d60248201527f416464726573733a20696e73756666696369656e742062616c616e63650000006044820152606401610832565b6000826001600160a01b03168260405160006040518083038185875af1925050503d806000811461317c576040519150601f19603f3d011682016040523d82523d6000602084013e613181565b606091505b50509050806130da5760405162461bcd60e51b815260206004820152603a60248201527f416464726573733a20756e61626c6520746f2073656e642076616c75652c20726044820152791958da5c1a595b9d081b585e481a185d99481c995d995c9d195960321b6064820152608401610832565b6000613202848484614438565b90506000828061322257634e487b7160e01b600052601260045260246000fd5b848609111561085557600019811061323957600080fd5b8061324381615e43565b95945050505050565b60008060008360020b12613263578260020b613270565b8260020b61327090615e93565b905061327f620d89e719615e72565b60020b8111156132b55760405162461bcd60e51b81526020600482015260016024820152601560fa1b6044820152606401610832565b6000600182166132c957600160801b6132db565b6ffffcb933bd6fad37aa2d162d1a5940015b6001600160881b03169050600282161561331057608061330b826ffff97272373d413259a46990580e213a615d24565b901c90505b600482161561333a576080613335826ffff2e50f5f656932ef12357cf3c7fdcc615d24565b901c90505b600882161561336457608061335f826fffe5caca7e10e4e61c3624eaa0941cd0615d24565b901c90505b601082161561338e576080613389826fffcb9843d60f6159c9db58835c926644615d24565b901c90505b60208216156133b85760806133b3826fff973b41fa98c081472e6896dfb254c0615d24565b901c90505b60408216156133e25760806133dd826fff2ea16466c96a3843ec78b326b52861615d24565b901c90505b608082161561340c576080613407826ffe5dee046a99a2a811c461f1969c3053615d24565b901c90505b610100821615613437576080613432826ffcbe86c7900a88aedcffc83b479aa3a4615d24565b901c90505b61020082161561346257608061345d826ff987a7253ac413176f2b074cf7815e54615d24565b901c90505b61040082161561348d576080613488826ff3392b0822b70005940c7a398e4b70f3615d24565b901c90505b6108008216156134b85760806134b3826fe7159475a2c29b7443b29c7fa6e889d9615d24565b901c90505b6110008216156134e35760806134de826fd097f3bdfd2022b8845ad8f792aa5825615d24565b901c90505b61200082161561350e576080613509826fa9f746462d870fdf8a65dc1f90e061e5615d24565b901c90505b614000821615613539576080613534826f70d869a156d2a1b890bb3df62baf32f7615d24565b901c90505b61800082161561356457608061355f826f31be135f97d08fd981231505542fcfa6615d24565b901c90505b6201000082161561359057608061358b826f09aa508b5b7a84e1c677de54f3e99bc9615d24565b901c90505b620200008216156135bb5760806135b6826e5d6af8dedb81196699c329225ee604615d24565b901c90505b620400008216156135e55760806135e0826d2216e584f5fa1ea926041bedfe98615d24565b901c90505b6208000082161561360d576080613608826b048a170391f7dc42444e8fa2615d24565b901c90505b60008460020b13156136285761362581600019615ce1565b90505b613636600160201b82615e5e565b15613642576001613645565b60005b6136569060ff16602083901c615ca3565b949350505050565b6000600160801b82106136c35760405162461bcd60e51b815260206004820152602760248201527f53616665436173743a2076616c756520646f65736e27742066697420696e20316044820152663238206269747360c81b6064820152608401610832565b5090565b600080836001600160a01b0316856001600160a01b031611156136e8579293925b846001600160a01b0316866001600160a01b0316116137135761370c858585614c74565b915061306e565b836001600160a01b0316866001600160a01b0316101561374c57613738868585614c74565b9150613745858785614cde565b905061306e565b613757858585614cde565b905094509492505050565b6040516001600160a01b0380851660248301528316604482015260648101829052610e879085906323b872dd60e01b906084016130a3565b6000836001600160a01b0316856001600160a01b031611156137ba579293925b846001600160a01b0316866001600160a01b0316116137e5576137de858585614d28565b9050613243565b836001600160a01b0316866001600160a01b0316101561384757600061380c878686614d28565b9050600061381b878986614d92565b9050806001600160801b0316826001600160801b03161061383c578061383e565b815b92505050613243565b613852858584614d92565b9695505050505050565b6001600160a01b0382166138b25760405162461bcd60e51b815260206004820152601f60248201527f45524332303a206d696e7420746f20746865207a65726f2061646472657373006044820152606401610832565b80603560008282546138c49190615ca3565b90915550506001600160a01b038216600090815260336020526040812080548392906138f1908490615ca3565b90915550506040518181526001600160a01b03831690600090600080516020615f848339815191529060200160405180910390a35050565b60008060008060006139396106fb565b9150915081600014801561394d5750600081115b156139645761395d868983614438565b9250613a13565b801580156139725750600082115b156139825761395d878984614438565b8115801561398e575080155b156139b55760405162461bcd60e51b81526020600482015260006024820152604401610832565b60006139c2888a85614438565b905060006139d1888b85614438565b90506000821180156139e35750600081115b6139ff5760405162461bcd60e51b815260040161083290615ba3565b808210613a0c5780613a0e565b815b945050505b613a1e83838a6131f5565b9450613a2b83828a6131f5565b9350505093509350939050565b6040805160028082526060820183526000926020830190803683375050609854825192935063ffffffff1691839150600090613a8457634e487b7160e01b600052603260045260246000fd5b602002602001019063ffffffff16908163ffffffff1681525050600081600181518110613ac157634e487b7160e01b600052603260045260246000fd5b63ffffffff90921660209283029190910190910152609d5460405163883bdbfd60e01b81526000916001600160a01b03169063883bdbfd90613b0790859060040161597c565b60006040518083038186803b158015613b1f57600080fd5b505afa158015613b33573d6000803e3d6000fd5b505050506040513d6000823e601f3d908101601f19168201604052613b5b919081019061537e565b5090508051600214613b9b5760405162461bcd60e51b815260206004820152600960248201526830b93930bc903632b760b91b6044820152606401610832565b6098548151600091829163ffffffff90911660060b9084908390613bcf57634e487b7160e01b600052603260045260246000fd5b602002602001015184600181518110613bf857634e487b7160e01b600052603260045260246000fd5b60200260200101510360060b81613c1f57634e487b7160e01b600052601260045260246000fd5b059050613c2e8160020b61324c565b6097549092506000915061271090613c5190600160f01b900461ffff1684615cf5565b613c5b9190615cbb565b90508415613ca357613c6d8183615da5565b6001600160a01b0316866001600160a01b03161015613c9e5760405162461bcd60e51b815260040161083290615b1d565b613cde565b613cad8183615c81565b6001600160a01b0316866001600160a01b03161115613cde5760405162461bcd60e51b815260040161083290615b1d565b505050505050565b609b54609954609e546040516370a0823160e01b815260009392916001600160a01b0316906370a0823190613d1f9030906004016158ef565b60206040518083038186803b158015613d3757600080fd5b505afa158015613d4b573d6000803e3d6000fd5b505050506040513d601f19601f82011682018060405250810190613d6f9190615876565b613d799190615dc5565b613d839190615dc5565b609c54609a54609f546040516370a0823160e01b81529394506000936001600160a01b03909116906370a0823190613dbf9030906004016158ef565b60206040518083038186803b158015613dd757600080fd5b505afa158015613deb573d6000803e3d6000fd5b505050506040513d601f19601f82011682018060405250810190613e0f9190615876565b613e199190615dc5565b613e239190615dc5565b6097549091506000908190613e4e90600160a01b8104600290810b91600160b81b9004900b8c61282c565b935093505050613e5e8282612bb9565b613e688282612c92565b6040519193509150600080516020615fa483398151915290613e8d9084908490615bfa565b60405180910390a1613e9f8483615ca3565b9150613eab8382615ca3565b609e549091506001600160a01b038681169116141561405657609754869061271090613ee290600160d01b900461ffff1685615d24565b613eec9190615ce1565b1015613f0a5760405162461bcd60e51b815260040161083290615afb565b609b54609954609e546040516370a0823160e01b8152899392916001600160a01b0316906370a0823190613f429030906004016158ef565b60206040518083038186803b158015613f5a57600080fd5b505afa158015613f6e573d6000803e3d6000fd5b505050506040513d601f19601f82011682018060405250810190613f929190615876565b613f9c9190615dc5565b613fa69190615dc5565b613fb09190615dc5565b609c54609a54609f546040516370a0823160e01b8152939750919290916001600160a01b0316906370a0823190613feb9030906004016158ef565b60206040518083038186803b15801561400357600080fd5b505afa158015614017573d6000803e3d6000fd5b505050506040513d601f19601f8201168201806040525081019061403b9190615876565b6140459190615dc5565b61404f9190615dc5565b92506141e1565b609f546001600160a01b03868116911614156130385760975486906127109061408a90600160d01b900461ffff1684615d24565b6140949190615ce1565b10156140b25760405162461bcd60e51b815260040161083290615afb565b609b54609954609e546040516370a0823160e01b81526001600160a01b03909116906370a08231906140e89030906004016158ef565b60206040518083038186803b15801561410057600080fd5b505afa158015614114573d6000803e3d6000fd5b505050506040513d601f19601f820116820180604052508101906141389190615876565b6141429190615dc5565b61414c9190615dc5565b609c54609a54609f546040516370a0823160e01b815293975089936001600160a01b03909116906370a08231906141879030906004016158ef565b60206040518083038186803b15801561419f57600080fd5b505afa1580156141b3573d6000803e3d6000fd5b505050506040513d601f19601f820116820180604052508101906141d79190615876565b61403b9190615dc5565b609754612ee090600160a01b8104600290810b91600160b81b9004900b86868d8d8d612d2d565b600054610100900460ff1680614221575060005460ff16155b61423d5760405162461bcd60e51b815260040161083290615aad565b600054610100900460ff1615801561425f576000805461ffff19166101011790555b614267614dc8565b6142718383614e32565b80156130da576000805461ff0019169055505050565b600054610100900460ff16806142a0575060005460ff16155b6142bc5760405162461bcd60e51b815260040161083290615aad565b600054610100900460ff161580156142de576000805461ffff19166101011790555b6142e6614ec7565b80156142f8576000805461ff00191690555b50565b6001600160a01b03821661435b5760405162461bcd60e51b815260206004820152602160248201527f45524332303a206275726e2066726f6d20746865207a65726f206164647265736044820152607360f81b6064820152608401610832565b6001600160a01b038216600090815260336020526040902054818110156143cf5760405162461bcd60e51b815260206004820152602260248201527f45524332303a206275726e20616d6f756e7420657863656564732062616c616e604482015261636560f01b6064820152608401610832565b6143d98282615dc5565b6001600160a01b03841660009081526033602052604081209190915560358054849290614407908490615dc5565b90915550506040518281526000906001600160a01b03851690600080516020615f8483398151915290602001612342565b600080806000198587098587029250828110838203039150508060001415614472576000841161446757600080fd5b508290049050610855565b80841161447e57600080fd5b60008486880960026001871981018816978890046003810283188082028403028082028403028082028403028082028403028082028403029081029092039091026000889003889004909101858311909403939093029303949094049190911702949350505050565b60008060008087156146b457609d60009054906101000a90046001600160a01b03166001600160a01b031663f30583996040518163ffffffff1660e01b815260040160206040518083038186803b15801561454157600080fd5b505afa158015614555573d6000803e3d6000fd5b505050506040513d601f19601f820116820180604052508101906145799190615876565b609d5460975460405163f30dba9360e01b81529293506001600160a01b039091169163f30dba93916145b991600160a01b90910460020b906004016159c6565b6101006040518083038186803b1580156145d257600080fd5b505afa1580156145e6573d6000803e3d6000fd5b505050506040513d601f19601f8201168201806040525081019061460a91906155f6565b5050609d5460975460405163f30dba9360e01b8152959a506001600160a01b03909116965063f30dba93955061465394600160b81b90910460020b935060040191506159c69050565b6101006040518083038186803b15801561466c57600080fd5b505afa158015614680573d6000803e3d6000fd5b505050506040513d601f19601f820116820180604052508101906146a491906155f6565b5093975061486f95505050505050565b609d60009054906101000a90046001600160a01b03166001600160a01b031663461413196040518163ffffffff1660e01b815260040160206040518083038186803b15801561470257600080fd5b505afa158015614716573d6000803e3d6000fd5b505050506040513d601f19601f8201168201806040525081019061473a9190615876565b609d5460975460405163f30dba9360e01b81529293506001600160a01b039091169163f30dba939161477a91600160a01b90910460020b906004016159c6565b6101006040518083038186803b15801561479357600080fd5b505afa1580156147a7573d6000803e3d6000fd5b505050506040513d601f19601f820116820180604052508101906147cb91906155f6565b5050609d5460975460405163f30dba9360e01b8152949a506001600160a01b03909116965063f30dba9395506148139450600160b81b900460020b9260040191506159c69050565b6101006040518083038186803b15801561482c57600080fd5b505afa158015614840573d6000803e3d6000fd5b505050506040513d601f19601f8201168201806040525081019061486491906155f6565b509297505050505050505b6000609760149054906101000a900460020b60020b8760020b12614894575082614899565b508281035b6000609760179054906101000a900460020b60020b8860020b12156148bf5750826148c4565b508282035b8183038190036148e46001600160801b0389168b8303600160801b614438565b9b9a5050505050505050505050565b6000600160ff1b82106136c35760405162461bcd60e51b815260206004820152602860248201527f53616665436173743a2076616c756520646f65736e27742066697420696e2061604482015267371034b73a191a9b60c11b6064820152608401610832565b609d54604051630251596160e31b81523060048201528215156024820152604481018590526001600160a01b03848116606483015260a06084830152600060a4830181905292839283928392169063128acb089060c4016040805180830381600087803b1580156149c957600080fd5b505af11580156149dd573d6000803e3d6000fd5b505050506040513d601f19601f82011682018060405250810190614a0191906154c4565b9150915081614a0f8a6148f3565b614a199190615d43565b935080614a25896148f3565b614a2f9190615d43565b92506000609d60009054906101000a90046001600160a01b03166001600160a01b0316633850c7bd6040518163ffffffff1660e01b815260040160e06040518083038186803b158015614a8157600080fd5b505afa158015614a95573d6000803e3d6000fd5b505050506040513d601f19601f82011682018060405250810190614ab99190615734565b50505050505090506000614ae682614ad38f60020b61324c565b614adf8f60020b61324c565b898961379a565b90506001600160801b03811615614b9257609d60009054906101000a90046001600160a01b03166001600160a01b0316633c8a7d8d308f8f856040518563ffffffff1660e01b8152600401614b3e9493929190615903565b6040805180830381600087803b158015614b5757600080fd5b505af1158015614b6b573d6000803e3d6000fd5b505050506040513d601f19601f82011682018060405250810190614b8f91906154c4565b50505b5050505097509795505050505050565b6000614bf7826040518060400160405280602081526020017f5361666545524332303a206c6f772d6c6576656c2063616c6c206661696c6564815250856001600160a01b0316614f379092919063ffffffff16565b8051909150156130da5780806020019051810190614c159190615441565b6130da5760405162461bcd60e51b815260206004820152602a60248201527f5361666545524332303a204552433230206f7065726174696f6e20646964206e6044820152691bdd081cdd58d8d9595960b21b6064820152608401610832565b6000826001600160a01b0316846001600160a01b03161115614c94579192915b6001600160a01b038416614cd4600160601b600160e01b03606085901b16614cbc8787615da5565b6001600160a01b0316866001600160a01b0316614438565b6136569190615ce1565b6000826001600160a01b0316846001600160a01b03161115614cfe579192915b6136566001600160801b038316614d158686615da5565b6001600160a01b0316600160601b614438565b6000826001600160a01b0316846001600160a01b03161115614d48579192915b6000614d6b856001600160a01b0316856001600160a01b0316600160601b614438565b9050613243614d8d8483614d7f8989615da5565b6001600160a01b0316614438565b614f46565b6000826001600160a01b0316846001600160a01b03161115614db2579192915b613656614d8d83600160601b614d7f8888615da5565b600054610100900460ff1680614de1575060005460ff16155b614dfd5760405162461bcd60e51b815260040161083290615aad565b600054610100900460ff161580156142e6576000805461ffff191661010117905580156142f8576000805461ff001916905550565b600054610100900460ff1680614e4b575060005460ff16155b614e675760405162461bcd60e51b815260040161083290615aad565b600054610100900460ff16158015614e89576000805461ffff19166101011790555b8251614e9c9060369060208601906150c2565b508151614eb09060379060208501906150c2565b5080156130da576000805461ff0019169055505050565b600054610100900460ff1680614ee0575060005460ff16155b614efc5760405162461bcd60e51b815260040161083290615aad565b600054610100900460ff16158015614f1e576000805461ffff19166101011790555b600160655580156142f8576000805461ff001916905550565b60606136568484600085614f61565b806001600160801b0381168114614f5c57600080fd5b919050565b606082471015614fc25760405162461bcd60e51b815260206004820152602660248201527f416464726573733a20696e73756666696369656e742062616c616e636520666f6044820152651c8818d85b1b60d21b6064820152608401610832565b843b6150105760405162461bcd60e51b815260206004820152601d60248201527f416464726573733a2063616c6c20746f206e6f6e2d636f6e74726163740000006044820152606401610832565b600080866001600160a01b0316858760405161502c91906158d3565b60006040518083038185875af1925050503d8060008114615069576040519150601f19603f3d011682016040523d82523d6000602084013e61506e565b606091505b509150915061507e828286615089565b979650505050505050565b60608315615098575081610855565b8251156150a85782518084602001fd5b8160405162461bcd60e51b81526004016108329190615a02565b8280546150ce90615e08565b90600052602060002090601f0160209004810192826150f05760008555615136565b82601f1061510957805160ff1916838001178555615136565b82800160010185558215615136579182015b8281111561513657825182559160200191906001019061511b565b506136c39291505b808211156136c3576000815560010161513e565b600082601f830112615162578081fd5b8151602061517761517283615c38565b615c08565b80838252828201915082860187848660051b8901011115615196578586fd5b855b858110156151bd5781516151ab81615eef565b84529284019290840190600101615198565b5090979650505050505050565b60008083601f8401126151db578182fd5b5081356001600160401b038111156151f1578182fd5b60208301915083602082850101111561520957600080fd5b9250929050565b8051600681900b8114614f5c57600080fd5b600082601f830112615232578081fd5b81356001600160401b0381111561524b5761524b615ed9565b61525e601f8201601f1916602001615c08565b818152846020838601011115615272578283fd5b816020850160208301379081016020019190915292915050565b80516001600160801b0381168114614f5c57600080fd5b6000602082840312156152b4578081fd5b813561085581615eef565b6000602082840312156152d0578081fd5b815161085581615eef565b600080604083850312156152ed578081fd5b82356152f881615eef565b9150602083013561530881615eef565b809150509250929050565b600080600060608486031215615327578081fd5b833561533281615eef565b9250602084013561534281615eef565b929592945050506040919091013590565b60008060408385031215615365578182fd5b823561537081615eef565b946020939093013593505050565b60008060408385031215615390578182fd5b82516001600160401b03808211156153a6578384fd5b818501915085601f8301126153b9578384fd5b815160206153c961517283615c38565b8083825282820191508286018a848660051b89010111156153e8578889fd5b8896505b84871015615411576153fd81615210565b8352600196909601959183019183016153ec565b509188015191965090935050508082111561542a578283fd5b5061543785828601615152565b9150509250929050565b600060208284031215615452578081fd5b815161085581615f04565b600080600080600060a08688031215615474578283fd5b853561547f81615f12565b9450602086013561548f81615f12565b9350604086013561549f81615eef565b92506060860135915060808601356154b681615f04565b809150509295509295909350565b600080604083850312156154d6578182fd5b505080516020909101519092909150565b600080600080606085870312156154fc578182fd5b843593506020850135925060408501356001600160401b0381111561551f578283fd5b61552b878288016151ca565b95989497509550505050565b600080600080600080600060e0888a031215615551578485fd5b87356001600160401b0380821115615567578687fd5b6155738b838c01615222565b985060208a0135915080821115615588578687fd5b506155958a828b01615222565b96505060408801356155a681615eef565b945060608801356155b681615f21565b935060808801356155c681615f12565b925060a08801356155d681615f12565b915060c08801356155e681615eef565b8091505092959891949750929550565b600080600080600080600080610100898b031215615612578182fd5b61561b8961528c565b9750602089015180600f0b8114615630578283fd5b60408a015160608b01519198509650945061564d60808a01615210565b935060a089015161565d81615eef565b60c08a015190935061566e81615f31565b60e08a015190925061567f81615f04565b809150509295985092959890939650565b600080604083850312156156a2578182fd5b6156ab8361528c565b91506156b96020840161528c565b90509250929050565b600080600080600060a086880312156156d9578283fd5b6156e28661528c565b945060208601519350604086015192506156fe6060870161528c565b915061570c6080870161528c565b90509295509295909350565b600060208284031215615729578081fd5b813561085581615f21565b600080600080600080600060e0888a03121561574e578081fd5b875161575981615eef565b602089015190975061576a81615f12565b604089015190965061577b81615f21565b606089015190955061578c81615f21565b608089015190945061579d81615f21565b60a089015190935060ff811681146157b3578182fd5b60c08901519092506155e681615f04565b600080600080600060a086880312156157db578283fd5b85356157e681615eef565b94506020860135935060408601356157fd81615f04565b92506060860135915060808601356154b681615eef565b600080600080600060a0868803121561582b578283fd5b853561583681615f21565b9450602086013561584681615f21565b9350604086013561585681615f21565b9250606086013561586681615f31565b915060808601356154b681615eef565b600060208284031215615887578081fd5b5051919050565b600080604083850312156158a0578182fd5b82359150602083013561530881615eef565b600080604083850312156158c4578182fd5b50508035926020909101359150565b600082516158e5818460208701615ddc565b9190910192915050565b6001600160a01b0391909116815260200190565b6001600160a01b03949094168452600292830b6020850152910b60408301526001600160801b0316606082015260a06080820181905260009082015260c00190565b6001600160a01b039590951685526020850193909352604084019190915260608301526001600160801b0316608082015260a00190565b6020808252825182820181905260009190848201906040850190845b818110156159ba57835163ffffffff1683529284019291840191600101615998565b50909695505050505050565b60029190910b815260200190565b600294850b81529290930b60208301526001600160801b039081166040830152909116606082015260800190565b6020815260008251806020840152615a21816040850160208701615ddc565b601f01601f19169190910160400192915050565b60208082526017908201527647656c61746f666965643a204f6e6c792067656c61746f60481b604082015260600190565b6020808252600490820152636d42505360e01b604082015260600190565b6020808252600f908201526e31b0b6363130b1b59031b0b63632b960891b604082015260600190565b6020808252602e908201527f496e697469616c697a61626c653a20636f6e747261637420697320616c72656160408201526d191e481a5b9a5d1a585b1a5e995960921b606082015260800190565b602080825260089082015267686967682066656560c01b604082015260600190565b6020808252600d908201526c6869676820736c69707061676560981b604082015260600190565b60208082526003908201526242505360e81b604082015260600190565b60208082526022908201527f4f776e61626c653a2063616c6c6572206973206e6f7420746865206d616e616760408201526132b960f11b606082015260800190565b60208082526006908201526506d696e7420360d41b604082015260600190565b6020808252601f908201527f5265656e7472616e637947756172643a207265656e7472616e742063616c6c00604082015260600190565b918252602082015260400190565b604051601f8201601f191681016001600160401b0381118282101715615c3057615c30615ed9565b604052919050565b60006001600160401b03821115615c5157615c51615ed9565b5060051b60200190565b600061ffff808316818516808303821115615c7857615c78615ead565b01949350505050565b60006001600160a01b03828116848216808303821115615c7857615c78615ead565b60008219821115615cb657615cb6615ead565b500190565b60006001600160a01b0383811680615cd557615cd5615ec3565b92169190910492915050565b600082615cf057615cf0615ec3565b500490565b60006001600160a01b0382811684821681151582840482111615615d1b57615d1b615ead565b02949350505050565b6000816000190483118215151615615d3e57615d3e615ead565b500290565b60008083128015600160ff1b850184121615615d6157615d61615ead565b6001600160ff1b0384018313811615615d7c57615d7c615ead565b50500390565b600061ffff83811690831681811015615d9d57615d9d615ead565b039392505050565b60006001600160a01b0383811690831681811015615d9d57615d9d615ead565b600082821015615dd757615dd7615ead565b500390565b60005b83811015615df7578181015183820152602001615ddf565b83811115610e875750506000910152565b600181811c90821680615e1c57607f821691505b60208210811415615e3d57634e487b7160e01b600052602260045260246000fd5b50919050565b6000600019821415615e5757615e57615ead565b5060010190565b600082615e6d57615e6d615ec3565b500690565b60008160020b627fffff19811415615e8c57615e8c615ead565b9003919050565b6000600160ff1b821415615ea957615ea9615ead565b0390565b634e487b7160e01b600052601160045260246000fd5b634e487b7160e01b600052601260045260246000fd5b634e487b7160e01b600052604160045260246000fd5b6001600160a01b03811681146142f857600080fd5b80151581146142f857600080fd5b8060020b81146142f857600080fd5b61ffff811681146142f857600080fd5b63ffffffff811681146142f857600080fdfec749f9ae947d4734cf1569606a8a347391ae94a063478aa853aeff48ac5f99e88be0079c531659141344cd1fd0a4f28419497f9722a3daafe3b4186f6b6457e0ddf252ad1be2c89b69c2b068fc378daa952ba7f163c4a11628f55a4df523b3efc28ad1de9c0c32e5394ba60323e44d8d9536312236a47231772e448a3e49de42a26469706673582212200d68bbc56177fb98dc03b8435a294744f29eb4d74dbc9371fa03141fd2efac7464736f6c63430008040033",
  "devdoc": {
    "kind": "dev",
    "methods": {
      "allowance(address,address)": {
        "details": "See {IERC20-allowance}."
      },
      "approve(address,uint256)": {
        "details": "See {IERC20-approve}. Requirements: - `spender` cannot be the zero address."
      },
      "balanceOf(address)": {
        "details": "See {IERC20-balanceOf}."
      },
      "burn(uint256,address)": {
        "params": {
          "burnAmount": "The number of G-UNI tokens to burn",
          "receiver": "The account to receive the underlying amounts of token0 and token1"
        },
        "returns": {
          "amount0": "amount of token0 transferred to receiver for burning `burnAmount`",
          "amount1": "amount of token1 transferred to receiver for burning `burnAmount`",
          "liquidityBurned": "amount of liquidity removed from the underlying Uniswap V3 position"
        }
      },
      "decimals()": {
        "details": "Returns the number of decimals used to get its user representation. For example, if `decimals` equals `2`, a balance of `505` tokens should be displayed to a user as `5,05` (`505 / 10 ** 2`). Tokens usually opt for a value of 18, imitating the relationship between Ether and Wei. This is the value {ERC20} uses, unless this function is overridden; NOTE: This information is only used for _display_ purposes: it in no way affects any of the arithmetic of the contract, including {IERC20-balanceOf} and {IERC20-transfer}."
      },
      "decreaseAllowance(address,uint256)": {
        "details": "Atomically decreases the allowance granted to `spender` by the caller. This is an alternative to {approve} that can be used as a mitigation for problems described in {IERC20-approve}. Emits an {Approval} event indicating the updated allowance. Requirements: - `spender` cannot be the zero address. - `spender` must have allowance for the caller of at least `subtractedValue`."
      },
      "executiveRebalance(int24,int24,uint160,uint256,bool)": {
        "details": "When changing the range the inventory of token0 and token1 may be rebalanced with a swap to deposit as much liquidity as possible into the new position. Swap parameters can be computed by simulating the whole operation: remove all liquidity, deposit as much as possible into new position, then observe how much of token0 or token1 is leftover. Swap a proportion of this leftover to deposit more liquidity into the position, since any leftover will be unused and sit idle until the next rebalance.",
        "params": {
          "newLowerTick": "The new lower bound of the position's range",
          "newUpperTick": "The new upper bound of the position's range",
          "swapAmountBPS": "amount of token to swap as proportion of total. Pass 0 to ignore swap.",
          "swapThresholdPrice": "slippage parameter on the swap as a max or min sqrtPriceX96",
          "zeroForOne": "Which token to input into the swap (true = token0, false = token1)"
        }
      },
      "getMintAmounts(uint256,uint256)": {
        "params": {
          "amount0Max": "The maximum amount of token1 to forward on mint"
        },
        "returns": {
          "amount0": "actual amount of token0 to forward when minting `mintAmount`",
          "amount1": "actual amount of token1 to forward when minting `mintAmount`",
          "mintAmount": "maximum number of G-UNI tokens to mint"
        }
      },
      "getUnderlyingBalances()": {
        "returns": {
          "amount0Current": "current total underlying balance of token0",
          "amount1Current": "current total underlying balance of token1"
        }
      },
      "increaseAllowance(address,uint256)": {
        "details": "Atomically increases the allowance granted to `spender` by the caller. This is an alternative to {approve} that can be used as a mitigation for problems described in {IERC20-approve}. Emits an {Approval} event indicating the updated allowance. Requirements: - `spender` cannot be the zero address."
      },
      "initialize(string,string,address,uint16,int24,int24,address)": {
        "params": {
          "_lowerTick": "initial upperTick (only changeable with executiveRebalance)",
          "_managerFeeBPS": "proportion of fees earned that go to manager treasury note that the 4 above params are NOT UPDATEABLE AFTER INILIALIZATION",
          "_manager_": "address of manager (ownership can be transferred)",
          "_name": "name of G-UNI token",
          "_pool": "address of Uniswap V3 pool",
          "_symbol": "symbol of G-UNI token"
        }
      },
      "initializeManagerFee(uint16)": {
        "params": {
          "_managerFeeBPS": "proportion of fees earned that are credited to manager in Basis Points"
        }
      },
      "manager()": {
        "details": "Returns the address of the current manager."
      },
      "mint(uint256,address)": {
        "details": "to compute the amouint of tokens necessary to mint `mintAmount` see getMintAmounts",
        "params": {
          "mintAmount": "The number of G-UNI tokens to mint",
          "receiver": "The account to receive the minted tokens"
        },
        "returns": {
          "amount0": "amount of token0 transferred from msg.sender to mint `mintAmount`",
          "amount1": "amount of token1 transferred from msg.sender to mint `mintAmount`",
          "liquidityMinted": "amount of liquidity added to the underlying Uniswap V3 position"
        }
      },
      "name()": {
        "details": "Returns the name of the token."
      },
      "renounceOwnership()": {
        "details": "Leaves the contract without manager. It will not be possible to call `onlyManager` functions anymore. Can only be called by the current manager. NOTE: Renouncing ownership will leave the contract without an manager, thereby removing any functionality that is only available to the manager."
      },
      "symbol()": {
        "details": "Returns the symbol of the token, usually a shorter version of the name."
      },
      "totalSupply()": {
        "details": "See {IERC20-totalSupply}."
      },
      "transfer(address,uint256)": {
        "details": "See {IERC20-transfer}. Requirements: - `recipient` cannot be the zero address. - the caller must have a balance of at least `amount`."
      },
      "transferFrom(address,address,uint256)": {
        "details": "See {IERC20-transferFrom}. Emits an {Approval} event indicating the updated allowance. This is not required by the EIP. See the note at the beginning of {ERC20}. Requirements: - `sender` and `recipient` cannot be the zero address. - `sender` must have a balance of at least `amount`. - the caller must have allowance for ``sender``'s tokens of at least `amount`."
      },
      "transferOwnership(address)": {
        "details": "Transfers ownership of the contract to a new account (`newOwner`). Can only be called by the current manager."
      },
      "updateGelatoParams(uint16,uint16,uint16,uint32,address)": {
        "params": {
          "newRebalanceBPS": "controls frequency of gelato rebalances: gas fee to execute rebalance can be gelatoRebalanceBPS proportion of fees earned since last rebalance",
          "newSlippageBPS": "maximum slippage on swaps during gelato rebalance",
          "newSlippageInterval": "length of time for TWAP used in computing slippage on swaps",
          "newTreasury": "address where managerFee withdrawals are sent",
          "newWithdrawBPS": "controls frequency of gelato withdrawals: gas fee to execute withdrawal can be gelatoWithdrawBPS proportion of fees accrued since last withdraw"
        }
      }
    },
    "version": 1
  },
  "userdoc": {
    "kind": "user",
    "methods": {
      "burn(uint256,address)": {
        "notice": "burn G-UNI tokens (fractional shares of a Uniswap V3 position) and receive tokens"
      },
      "executiveRebalance(int24,int24,uint160,uint256,bool)": {
        "notice": "Change the range of underlying UniswapV3 position, only manager can call"
      },
      "getMintAmounts(uint256,uint256)": {
        "notice": "compute maximum G-UNI tokens that can be minted from `amount0Max` and `amount1Max`"
      },
      "getUnderlyingBalances()": {
        "notice": "compute total underlying holdings of the G-UNI token supply includes current liquidity invested in uniswap position, current fees earned and any uninvested leftover (but does not include manager or gelato fees accrued)"
      },
      "initialize(string,string,address,uint16,int24,int24,address)": {
        "notice": "initialize storage variables on a new G-UNI pool, only called once"
      },
      "initializeManagerFee(uint16)": {
        "notice": "initializeManagerFee sets a managerFee, only manager can call. If a manager fee was not set in the initialize function it can be set here but ONLY ONCE- after it is set to a non-zero value, managerFee can never be set again."
      },
      "mint(uint256,address)": {
        "notice": "mint fungible G-UNI tokens, fractional shares of a Uniswap V3 position"
      },
      "rebalance(uint160,uint256,bool,uint256,address)": {
        "notice": "Reinvest fees earned into underlying position, only gelato executors can call Position bounds CANNOT be altered by gelato, only manager may via executiveRebalance. Frequency of rebalance configured with gelatoRebalanceBPS, alterable by manager."
      },
      "uniswapV3MintCallback(uint256,uint256,bytes)": {
        "notice": "Uniswap V3 callback fn, called back on pool.mint"
      },
      "uniswapV3SwapCallback(int256,int256,bytes)": {
        "notice": "Uniswap v3 callback fn, called back on pool.swap"
      },
      "updateGelatoParams(uint16,uint16,uint16,uint32,address)": {
        "notice": "change configurable parameters, only manager can call"
      },
      "withdrawGelatoBalance(uint256,address)": {
        "notice": "withdraw gelato fees accrued, only gelato executors can call. Frequency of withdrawals configured with gelatoWithdrawBPS, alterable by manager."
      },
      "withdrawManagerBalance(uint256,address)": {
        "notice": "withdraw manager fees accrued, only gelato executors can call. Target account to receive fees is managerTreasury, alterable by manager. Frequency of withdrawals configured with gelatoWithdrawBPS, alterable by manager."
      }
    },
    "version": 1
  },
  "storageLayout": {
    "storage": [
      {
        "astId": 5,
        "contract": "contracts/GUniPool.sol:GUniPool",
        "label": "_initialized",
        "offset": 0,
        "slot": "0",
        "type": "t_bool"
      },
      {
        "astId": 8,
        "contract": "contracts/GUniPool.sol:GUniPool",
        "label": "_initializing",
        "offset": 1,
        "slot": "0",
        "type": "t_bool"
      },
      {
        "astId": 784,
        "contract": "contracts/GUniPool.sol:GUniPool",
        "label": "__gap",
        "offset": 0,
        "slot": "1",
        "type": "t_array(t_uint256)50_storage"
      },
      {
        "astId": 122,
        "contract": "contracts/GUniPool.sol:GUniPool",
        "label": "_balances",
        "offset": 0,
        "slot": "51",
        "type": "t_mapping(t_address,t_uint256)"
      },
      {
        "astId": 128,
        "contract": "contracts/GUniPool.sol:GUniPool",
        "label": "_allowances",
        "offset": 0,
        "slot": "52",
        "type": "t_mapping(t_address,t_mapping(t_address,t_uint256))"
      },
      {
        "astId": 130,
        "contract": "contracts/GUniPool.sol:GUniPool",
        "label": "_totalSupply",
        "offset": 0,
        "slot": "53",
        "type": "t_uint256"
      },
      {
        "astId": 132,
        "contract": "contracts/GUniPool.sol:GUniPool",
        "label": "_name",
        "offset": 0,
        "slot": "54",
        "type": "t_string_storage"
      },
      {
        "astId": 134,
        "contract": "contracts/GUniPool.sol:GUniPool",
        "label": "_symbol",
        "offset": 0,
        "slot": "55",
        "type": "t_string_storage"
      },
      {
        "astId": 636,
        "contract": "contracts/GUniPool.sol:GUniPool",
        "label": "__gap",
        "offset": 0,
        "slot": "56",
        "type": "t_array(t_uint256)45_storage"
      },
      {
        "astId": 59,
        "contract": "contracts/GUniPool.sol:GUniPool",
        "label": "_status",
        "offset": 0,
        "slot": "101",
        "type": "t_uint256"
      },
      {
        "astId": 102,
        "contract": "contracts/GUniPool.sol:GUniPool",
        "label": "__gap",
        "offset": 0,
        "slot": "102",
        "type": "t_array(t_uint256)49_storage"
      },
      {
        "astId": 6441,
        "contract": "contracts/GUniPool.sol:GUniPool",
        "label": "_manager",
        "offset": 0,
        "slot": "151",
        "type": "t_address"
      },
      {
        "astId": 6031,
        "contract": "contracts/GUniPool.sol:GUniPool",
        "label": "lowerTick",
        "offset": 20,
        "slot": "151",
        "type": "t_int24"
      },
      {
        "astId": 6033,
        "contract": "contracts/GUniPool.sol:GUniPool",
        "label": "upperTick",
        "offset": 23,
        "slot": "151",
        "type": "t_int24"
      },
      {
        "astId": 6035,
        "contract": "contracts/GUniPool.sol:GUniPool",
        "label": "gelatoRebalanceBPS",
        "offset": 26,
        "slot": "151",
        "type": "t_uint16"
      },
      {
        "astId": 6037,
        "contract": "contracts/GUniPool.sol:GUniPool",
        "label": "gelatoWithdrawBPS",
        "offset": 28,
        "slot": "151",
        "type": "t_uint16"
      },
      {
        "astId": 6039,
        "contract": "contracts/GUniPool.sol:GUniPool",
        "label": "gelatoSlippageBPS",
        "offset": 30,
        "slot": "151",
        "type": "t_uint16"
      },
      {
        "astId": 6041,
        "contract": "contracts/GUniPool.sol:GUniPool",
        "label": "gelatoSlippageInterval",
        "offset": 0,
        "slot": "152",
        "type": "t_uint32"
      },
      {
        "astId": 6043,
        "contract": "contracts/GUniPool.sol:GUniPool",
        "label": "managerFeeBPS",
        "offset": 4,
        "slot": "152",
        "type": "t_uint16"
      },
      {
        "astId": 6045,
        "contract": "contracts/GUniPool.sol:GUniPool",
        "label": "managerTreasury",
        "offset": 6,
        "slot": "152",
        "type": "t_address"
      },
      {
        "astId": 6047,
        "contract": "contracts/GUniPool.sol:GUniPool",
        "label": "managerBalance0",
        "offset": 0,
        "slot": "153",
        "type": "t_uint256"
      },
      {
        "astId": 6049,
        "contract": "contracts/GUniPool.sol:GUniPool",
        "label": "managerBalance1",
        "offset": 0,
        "slot": "154",
        "type": "t_uint256"
      },
      {
        "astId": 6051,
        "contract": "contracts/GUniPool.sol:GUniPool",
        "label": "gelatoBalance0",
        "offset": 0,
        "slot": "155",
        "type": "t_uint256"
      },
      {
        "astId": 6053,
        "contract": "contracts/GUniPool.sol:GUniPool",
        "label": "gelatoBalance1",
        "offset": 0,
        "slot": "156",
        "type": "t_uint256"
      },
      {
        "astId": 6056,
        "contract": "contracts/GUniPool.sol:GUniPool",
        "label": "pool",
        "offset": 0,
        "slot": "157",
        "type": "t_contract(IUniswapV3Pool)2339"
      },
      {
        "astId": 6059,
        "contract": "contracts/GUniPool.sol:GUniPool",
        "label": "token0",
        "offset": 0,
        "slot": "158",
        "type": "t_contract(IERC20)863"
      },
      {
        "astId": 6062,
        "contract": "contracts/GUniPool.sol:GUniPool",
        "label": "token1",
        "offset": 0,
        "slot": "159",
        "type": "t_contract(IERC20)863"
      }
    ],
    "types": {
      "t_address": {
        "encoding": "inplace",
        "label": "address",
        "numberOfBytes": "20"
      },
      "t_array(t_uint256)45_storage": {
        "base": "t_uint256",
        "encoding": "inplace",
        "label": "uint256[45]",
        "numberOfBytes": "1440"
      },
      "t_array(t_uint256)49_storage": {
        "base": "t_uint256",
        "encoding": "inplace",
        "label": "uint256[49]",
        "numberOfBytes": "1568"
      },
      "t_array(t_uint256)50_storage": {
        "base": "t_uint256",
        "encoding": "inplace",
        "label": "uint256[50]",
        "numberOfBytes": "1600"
      },
      "t_bool": {
        "encoding": "inplace",
        "label": "bool",
        "numberOfBytes": "1"
      },
      "t_contract(IERC20)863": {
        "encoding": "inplace",
        "label": "contract IERC20",
        "numberOfBytes": "20"
      },
      "t_contract(IUniswapV3Pool)2339": {
        "encoding": "inplace",
        "label": "contract IUniswapV3Pool",
        "numberOfBytes": "20"
      },
      "t_int24": {
        "encoding": "inplace",
        "label": "int24",
        "numberOfBytes": "3"
      },
      "t_mapping(t_address,t_mapping(t_address,t_uint256))": {
        "encoding": "mapping",
        "key": "t_address",
        "label": "mapping(address => mapping(address => uint256))",
        "numberOfBytes": "32",
        "value": "t_mapping(t_address,t_uint256)"
      },
      "t_mapping(t_address,t_uint256)": {
        "encoding": "mapping",
        "key": "t_address",
        "label": "mapping(address => uint256)",
        "numberOfBytes": "32",
        "value": "t_uint256"
      },
      "t_string_storage": {
        "encoding": "bytes",
        "label": "string",
        "numberOfBytes": "32"
      },
      "t_uint16": {
        "encoding": "inplace",
        "label": "uint16",
        "numberOfBytes": "2"
      },
      "t_uint256": {
        "encoding": "inplace",
        "label": "uint256",
        "numberOfBytes": "32"
      },
      "t_uint32": {
        "encoding": "inplace",
        "label": "uint32",
        "numberOfBytes": "4"
      }
    }
  }
}