{
  "address": "0x183D656bF1995D6f5e4b0604F42D3a1B4f521BB9",
  "abi": [
    {
      "inputs": [
        {
          "internalType": "address payable",
          "name": "_gelato",
          "type": "address"
        }
      ],
      "stateMutability": "nonpayable",
      "type": "constructor"
    },
    {
      "anonymous": false,
      "inputs": [
        {
          "indexed": true,
          "internalType": "address",
          "name": "owner",
          "type": "address"
        },
        {
          "indexed": true,
          "internalType": "address",
          "name": "spender",
          "type": "address"
        },
        {
          "indexed": false,
          "internalType": "uint256",
          "name": "value",
          "type": "uint256"
        }
      ],
      "name": "Approval",
      "type": "event"
    },
    {
      "anonymous": false,
      "inputs": [
        {
          "indexed": false,
          "internalType": "address",
          "name": "receiver",
          "type": "address"
        },
        {
          "indexed": false,
          "internalType": "uint256",
          "name": "burnAmount",
          "type": "uint256"
        },
        {
          "indexed": false,
          "internalType": "uint256",
          "name": "amount0Out",
          "type": "uint256"
        },
        {
          "indexed": false,
          "internalType": "uint256",
          "name": "amount1Out",
          "type": "uint256"
        },
        {
          "indexed": false,
          "internalType": "uint128",
          "name": "liquidityBurned",
          "type": "uint128"
        }
      ],
      "name": "Burned",
      "type": "event"
    },
    {
      "anonymous": false,
      "inputs": [
        {
          "indexed": false,
          "internalType": "uint256",
          "name": "feesEarned0",
          "type": "uint256"
        },
        {
          "indexed": false,
          "internalType": "uint256",
          "name": "feesEarned1",
          "type": "uint256"
        }
      ],
      "name": "FeesEarned",
      "type": "event"
    },
    {
      "anonymous": false,
      "inputs": [
        {
          "indexed": false,
          "internalType": "address",
          "name": "receiver",
          "type": "address"
        },
        {
          "indexed": false,
          "internalType": "uint256",
          "name": "mintAmount",
          "type": "uint256"
        },
        {
          "indexed": false,
          "internalType": "uint256",
          "name": "amount0In",
          "type": "uint256"
        },
        {
          "indexed": false,
          "internalType": "uint256",
          "name": "amount1In",
          "type": "uint256"
        },
        {
          "indexed": false,
          "internalType": "uint128",
          "name": "liquidityMinted",
          "type": "uint128"
        }
      ],
      "name": "Minted",
      "type": "event"
    },
    {
      "anonymous": false,
      "inputs": [
        {
          "indexed": true,
          "internalType": "address",
          "name": "previousManager",
          "type": "address"
        },
        {
          "indexed": true,
          "internalType": "address",
          "name": "newManager",
          "type": "address"
        }
      ],
      "name": "OwnershipTransferred",
      "type": "event"
    },
    {
      "anonymous": false,
      "inputs": [
        {
          "indexed": false,
          "internalType": "int24",
          "name": "lowerTick_",
          "type": "int24"
        },
        {
          "indexed": false,
          "internalType": "int24",
          "name": "upperTick_",
          "type": "int24"
        },
        {
          "indexed": false,
          "internalType": "uint128",
          "name": "liquidityBefore",
          "type": "uint128"
        },
        {
          "indexed": false,
          "internalType": "uint128",
          "name": "liquidityAfter",
          "type": "uint128"
        }
      ],
      "name": "Rebalance",
      "type": "event"
    },
    {
      "anonymous": false,
      "inputs": [
        {
          "indexed": false,
          "internalType": "uint16",
          "name": "managerFee",
          "type": "uint16"
        }
      ],
      "name": "SetManagerFee",
      "type": "event"
    },
    {
      "anonymous": false,
      "inputs": [
        {
          "indexed": true,
          "internalType": "address",
          "name": "from",
          "type": "address"
        },
        {
          "indexed": true,
          "internalType": "address",
          "name": "to",
          "type": "address"
        },
        {
          "indexed": false,
          "internalType": "uint256",
          "name": "value",
          "type": "uint256"
        }
      ],
      "name": "Transfer",
      "type": "event"
    },
    {
      "anonymous": false,
      "inputs": [
        {
          "indexed": false,
          "internalType": "address",
          "name": "oldAdminTreasury",
          "type": "address"
        },
        {
          "indexed": false,
          "internalType": "address",
          "name": "newAdminTreasury",
          "type": "address"
        }
      ],
      "name": "UpdateAdminTreasury",
      "type": "event"
    },
    {
      "anonymous": false,
      "inputs": [
        {
          "indexed": false,
          "internalType": "uint16",
          "name": "gelatoRebalanceBPS",
          "type": "uint16"
        },
        {
          "indexed": false,
          "internalType": "uint16",
          "name": "gelatoWithdrawBPS",
          "type": "uint16"
        },
        {
          "indexed": false,
          "internalType": "uint16",
          "name": "gelatoSlippageBPS",
          "type": "uint16"
        },
        {
          "indexed": false,
          "internalType": "uint32",
          "name": "gelatoSlippageInterval",
          "type": "uint32"
        }
      ],
      "name": "UpdateGelatoParams",
      "type": "event"
    },
    {
      "inputs": [],
      "name": "GELATO",
      "outputs": [
        {
          "internalType": "address payable",
          "name": "",
          "type": "address"
        }
      ],
      "stateMutability": "view",
      "type": "function"
    },
    {
      "inputs": [
        {
          "internalType": "address",
          "name": "owner",
          "type": "address"
        },
        {
          "internalType": "address",
          "name": "spender",
          "type": "address"
        }
      ],
      "name": "allowance",
      "outputs": [
        {
          "internalType": "uint256",
          "name": "",
          "type": "uint256"
        }
      ],
      "stateMutability": "view",
      "type": "function"
    },
    {
      "inputs": [
        {
          "internalType": "address",
          "name": "spender",
          "type": "address"
        },
        {
          "internalType": "uint256",
          "name": "amount",
          "type": "uint256"
        }
      ],
      "name": "approve",
      "outputs": [
        {
          "internalType": "bool",
          "name": "",
          "type": "bool"
        }
      ],
      "stateMutability": "nonpayable",
      "type": "function"
    },
    {
      "inputs": [
        {
          "internalType": "address",
          "name": "account",
          "type": "address"
        }
      ],
      "name": "balanceOf",
      "outputs": [
        {
          "internalType": "uint256",
          "name": "",
          "type": "uint256"
        }
      ],
      "stateMutability": "view",
      "type": "function"
    },
    {
      "inputs": [
        {
          "internalType": "uint256",
          "name": "burnAmount",
          "type": "uint256"
        },
        {
          "internalType": "address",
          "name": "receiver",
          "type": "address"
        }
      ],
      "name": "burn",
      "outputs": [
        {
          "internalType": "uint256",
          "name": "amount0",
          "type": "uint256"
        },
        {
          "internalType": "uint256",
          "name": "amount1",
          "type": "uint256"
        },
        {
          "internalType": "uint128",
          "name": "liquidityBurned",
          "type": "uint128"
        }
      ],
      "stateMutability": "nonpayable",
      "type": "function"
    },
    {
      "inputs": [],
      "name": "decimals",
      "outputs": [
        {
          "internalType": "uint8",
          "name": "",
          "type": "uint8"
        }
      ],
      "stateMutability": "view",
      "type": "function"
    },
    {
      "inputs": [
        {
          "internalType": "address",
          "name": "spender",
          "type": "address"
        },
        {
          "internalType": "uint256",
          "name": "subtractedValue",
          "type": "uint256"
        }
      ],
      "name": "decreaseAllowance",
      "outputs": [
        {
          "internalType": "bool",
          "name": "",
          "type": "bool"
        }
      ],
      "stateMutability": "nonpayable",
      "type": "function"
    },
    {
      "inputs": [
        {
          "internalType": "int24",
          "name": "newLowerTick",
          "type": "int24"
        },
        {
          "internalType": "int24",
          "name": "newUpperTick",
          "type": "int24"
        },
        {
          "internalType": "uint160",
          "name": "swapThresholdPrice",
          "type": "uint160"
        },
        {
          "internalType": "uint256",
          "name": "swapAmountBPS",
          "type": "uint256"
        },
        {
          "internalType": "bool",
          "name": "zeroForOne",
          "type": "bool"
        }
      ],
      "name": "executiveRebalance",
      "outputs": [],
      "stateMutability": "nonpayable",
      "type": "function"
    },
    {
      "inputs": [],
      "name": "gelatoBalance0",
      "outputs": [
        {
          "internalType": "uint256",
          "name": "",
          "type": "uint256"
        }
      ],
      "stateMutability": "view",
      "type": "function"
    },
    {
      "inputs": [],
      "name": "gelatoBalance1",
      "outputs": [
        {
          "internalType": "uint256",
          "name": "",
          "type": "uint256"
        }
      ],
      "stateMutability": "view",
      "type": "function"
    },
    {
      "inputs": [],
      "name": "gelatoFeeBPS",
      "outputs": [
        {
          "internalType": "uint16",
          "name": "",
          "type": "uint16"
        }
      ],
      "stateMutability": "view",
      "type": "function"
    },
    {
      "inputs": [],
      "name": "gelatoRebalanceBPS",
      "outputs": [
        {
          "internalType": "uint16",
          "name": "",
          "type": "uint16"
        }
      ],
      "stateMutability": "view",
      "type": "function"
    },
    {
      "inputs": [],
      "name": "gelatoSlippageBPS",
      "outputs": [
        {
          "internalType": "uint16",
          "name": "",
          "type": "uint16"
        }
      ],
      "stateMutability": "view",
      "type": "function"
    },
    {
      "inputs": [],
      "name": "gelatoSlippageInterval",
      "outputs": [
        {
          "internalType": "uint32",
          "name": "",
          "type": "uint32"
        }
      ],
      "stateMutability": "view",
      "type": "function"
    },
    {
      "inputs": [],
      "name": "gelatoWithdrawBPS",
      "outputs": [
        {
          "internalType": "uint16",
          "name": "",
          "type": "uint16"
        }
      ],
      "stateMutability": "view",
      "type": "function"
    },
    {
      "inputs": [
        {
          "internalType": "uint256",
          "name": "amount0Max",
          "type": "uint256"
        },
        {
          "internalType": "uint256",
          "name": "amount1Max",
          "type": "uint256"
        }
      ],
      "name": "getMintAmounts",
      "outputs": [
        {
          "internalType": "uint256",
          "name": "amount0",
          "type": "uint256"
        },
        {
          "internalType": "uint256",
          "name": "amount1",
          "type": "uint256"
        },
        {
          "internalType": "uint256",
          "name": "mintAmount",
          "type": "uint256"
        }
      ],
      "stateMutability": "view",
      "type": "function"
    },
    {
      "inputs": [],
      "name": "getPositionID",
      "outputs": [
        {
          "internalType": "bytes32",
          "name": "positionID",
          "type": "bytes32"
        }
      ],
      "stateMutability": "view",
      "type": "function"
    },
    {
      "inputs": [],
      "name": "getUnderlyingBalances",
      "outputs": [
        {
          "internalType": "uint256",
          "name": "amount0Current",
          "type": "uint256"
        },
        {
          "internalType": "uint256",
          "name": "amount1Current",
          "type": "uint256"
        }
      ],
      "stateMutability": "view",
      "type": "function"
    },
    {
      "inputs": [
        {
          "internalType": "uint160",
          "name": "sqrtRatioX96",
          "type": "uint160"
        }
      ],
      "name": "getUnderlyingBalancesAtPrice",
      "outputs": [
        {
          "internalType": "uint256",
          "name": "amount0Current",
          "type": "uint256"
        },
        {
          "internalType": "uint256",
          "name": "amount1Current",
          "type": "uint256"
        }
      ],
      "stateMutability": "view",
      "type": "function"
    },
    {
      "inputs": [
        {
          "internalType": "address",
          "name": "spender",
          "type": "address"
        },
        {
          "internalType": "uint256",
          "name": "addedValue",
          "type": "uint256"
        }
      ],
      "name": "increaseAllowance",
      "outputs": [
        {
          "internalType": "bool",
          "name": "",
          "type": "bool"
        }
      ],
      "stateMutability": "nonpayable",
      "type": "function"
    },
    {
      "inputs": [
        {
          "internalType": "string",
          "name": "_name",
          "type": "string"
        },
        {
          "internalType": "string",
          "name": "_symbol",
          "type": "string"
        },
        {
          "internalType": "address",
          "name": "_pool",
          "type": "address"
        },
        {
          "internalType": "uint16",
          "name": "_managerFeeBPS",
          "type": "uint16"
        },
        {
          "internalType": "int24",
          "name": "_lowerTick",
          "type": "int24"
        },
        {
          "internalType": "int24",
          "name": "_upperTick",
          "type": "int24"
        },
        {
          "internalType": "address",
          "name": "_manager_",
          "type": "address"
        }
      ],
      "name": "initialize",
      "outputs": [],
      "stateMutability": "nonpayable",
      "type": "function"
    },
    {
      "inputs": [
        {
          "internalType": "uint16",
          "name": "_managerFeeBPS",
          "type": "uint16"
        }
      ],
      "name": "initializeManagerFee",
      "outputs": [],
      "stateMutability": "nonpayable",
      "type": "function"
    },
    {
      "inputs": [],
      "name": "lowerTick",
      "outputs": [
        {
          "internalType": "int24",
          "name": "",
          "type": "int24"
        }
      ],
      "stateMutability": "view",
      "type": "function"
    },
    {
      "inputs": [],
      "name": "manager",
      "outputs": [
        {
          "internalType": "address",
          "name": "",
          "type": "address"
        }
      ],
      "stateMutability": "view",
      "type": "function"
    },
    {
      "inputs": [],
      "name": "managerBalance0",
      "outputs": [
        {
          "internalType": "uint256",
          "name": "",
          "type": "uint256"
        }
      ],
      "stateMutability": "view",
      "type": "function"
    },
    {
      "inputs": [],
      "name": "managerBalance1",
      "outputs": [
        {
          "internalType": "uint256",
          "name": "",
          "type": "uint256"
        }
      ],
      "stateMutability": "view",
      "type": "function"
    },
    {
      "inputs": [],
      "name": "managerFeeBPS",
      "outputs": [
        {
          "internalType": "uint16",
          "name": "",
          "type": "uint16"
        }
      ],
      "stateMutability": "view",
      "type": "function"
    },
    {
      "inputs": [],
      "name": "managerTreasury",
      "outputs": [
        {
          "internalType": "address",
          "name": "",
          "type": "address"
        }
      ],
      "stateMutability": "view",
      "type": "function"
    },
    {
      "inputs": [
        {
          "internalType": "uint256",
          "name": "mintAmount",
          "type": "uint256"
        },
        {
          "internalType": "address",
          "name": "receiver",
          "type": "address"
        }
      ],
      "name": "mint",
      "outputs": [
        {
          "internalType": "uint256",
          "name": "amount0",
          "type": "uint256"
        },
        {
          "internalType": "uint256",
          "name": "amount1",
          "type": "uint256"
        },
        {
          "internalType": "uint128",
          "name": "liquidityMinted",
          "type": "uint128"
        }
      ],
      "stateMutability": "nonpayable",
      "type": "function"
    },
    {
      "inputs": [],
      "name": "name",
      "outputs": [
        {
          "internalType": "string",
          "name": "",
          "type": "string"
        }
      ],
      "stateMutability": "view",
      "type": "function"
    },
    {
      "inputs": [],
      "name": "pool",
      "outputs": [
        {
          "internalType": "contract IUniswapV3Pool",
          "name": "",
          "type": "address"
        }
      ],
      "stateMutability": "view",
      "type": "function"
    },
    {
      "inputs": [
        {
          "internalType": "uint160",
          "name": "swapThresholdPrice",
          "type": "uint160"
        },
        {
          "internalType": "uint256",
          "name": "swapAmountBPS",
          "type": "uint256"
        },
        {
          "internalType": "bool",
          "name": "zeroForOne",
          "type": "bool"
        },
        {
          "internalType": "uint256",
          "name": "feeAmount",
          "type": "uint256"
        },
        {
          "internalType": "address",
          "name": "paymentToken",
          "type": "address"
        }
      ],
      "name": "rebalance",
      "outputs": [],
      "stateMutability": "nonpayable",
      "type": "function"
    },
    {
      "inputs": [],
      "name": "renounceOwnership",
      "outputs": [],
      "stateMutability": "nonpayable",
      "type": "function"
    },
    {
      "inputs": [],
      "name": "symbol",
      "outputs": [
        {
          "internalType": "string",
          "name": "",
          "type": "string"
        }
      ],
      "stateMutability": "view",
      "type": "function"
    },
    {
      "inputs": [],
      "name": "token0",
      "outputs": [
        {
          "internalType": "contract IERC20",
          "name": "",
          "type": "address"
        }
      ],
      "stateMutability": "view",
      "type": "function"
    },
    {
      "inputs": [],
      "name": "token1",
      "outputs": [
        {
          "internalType": "contract IERC20",
          "name": "",
          "type": "address"
        }
      ],
      "stateMutability": "view",
      "type": "function"
    },
    {
      "inputs": [],
      "name": "totalSupply",
      "outputs": [
        {
          "internalType": "uint256",
          "name": "",
          "type": "uint256"
        }
      ],
      "stateMutability": "view",
      "type": "function"
    },
    {
      "inputs": [
        {
          "internalType": "address",
          "name": "recipient",
          "type": "address"
        },
        {
          "internalType": "uint256",
          "name": "amount",
          "type": "uint256"
        }
      ],
      "name": "transfer",
      "outputs": [
        {
          "internalType": "bool",
          "name": "",
          "type": "bool"
        }
      ],
      "stateMutability": "nonpayable",
      "type": "function"
    },
    {
      "inputs": [
        {
          "internalType": "address",
          "name": "sender",
          "type": "address"
        },
        {
          "internalType": "address",
          "name": "recipient",
          "type": "address"
        },
        {
          "internalType": "uint256",
          "name": "amount",
          "type": "uint256"
        }
      ],
      "name": "transferFrom",
      "outputs": [
        {
          "internalType": "bool",
          "name": "",
          "type": "bool"
        }
      ],
      "stateMutability": "nonpayable",
      "type": "function"
    },
    {
      "inputs": [
        {
          "internalType": "address",
          "name": "newOwner",
          "type": "address"
        }
      ],
      "name": "transferOwnership",
      "outputs": [],
      "stateMutability": "nonpayable",
      "type": "function"
    },
    {
      "inputs": [
        {
          "internalType": "uint256",
          "name": "amount0Owed",
          "type": "uint256"
        },
        {
          "internalType": "uint256",
          "name": "amount1Owed",
          "type": "uint256"
        },
        {
          "internalType": "bytes",
          "name": "",
          "type": "bytes"
        }
      ],
      "name": "uniswapV3MintCallback",
      "outputs": [],
      "stateMutability": "nonpayable",
      "type": "function"
    },
    {
      "inputs": [
        {
          "internalType": "int256",
          "name": "amount0Delta",
          "type": "int256"
        },
        {
          "internalType": "int256",
          "name": "amount1Delta",
          "type": "int256"
        },
        {
          "internalType": "bytes",
          "name": "",
          "type": "bytes"
        }
      ],
      "name": "uniswapV3SwapCallback",
      "outputs": [],
      "stateMutability": "nonpayable",
      "type": "function"
    },
    {
      "inputs": [
        {
          "internalType": "uint16",
          "name": "newRebalanceBPS",
          "type": "uint16"
        },
        {
          "internalType": "uint16",
          "name": "newWithdrawBPS",
          "type": "uint16"
        },
        {
          "internalType": "uint16",
          "name": "newSlippageBPS",
          "type": "uint16"
        },
        {
          "internalType": "uint32",
          "name": "newSlippageInterval",
          "type": "uint32"
        },
        {
          "internalType": "address",
          "name": "newTreasury",
          "type": "address"
        }
      ],
      "name": "updateGelatoParams",
      "outputs": [],
      "stateMutability": "nonpayable",
      "type": "function"
    },
    {
      "inputs": [],
      "name": "upperTick",
      "outputs": [
        {
          "internalType": "int24",
          "name": "",
          "type": "int24"
        }
      ],
      "stateMutability": "view",
      "type": "function"
    },
    {
      "inputs": [],
      "name": "version",
      "outputs": [
        {
          "internalType": "string",
          "name": "",
          "type": "string"
        }
      ],
      "stateMutability": "view",
      "type": "function"
    },
    {
      "inputs": [
        {
          "internalType": "uint256",
          "name": "feeAmount",
          "type": "uint256"
        },
        {
          "internalType": "address",
          "name": "feeToken",
          "type": "address"
        }
      ],
      "name": "withdrawGelatoBalance",
      "outputs": [],
      "stateMutability": "nonpayable",
      "type": "function"
    },
    {
      "inputs": [
        {
          "internalType": "uint256",
          "name": "feeAmount",
          "type": "uint256"
        },
        {
          "internalType": "address",
          "name": "feeToken",
          "type": "address"
        }
      ],
      "name": "withdrawManagerBalance",
      "outputs": [],
      "stateMutability": "nonpayable",
      "type": "function"
    }
  ],
  "transactionHash": "0x92c73b10efa0ca3833f1633e3be21ca89b19dedd6bcd7abcb87d2aa12f1a32ab",
  "args": [
    "0x683913B3A32ada4F8100458A3E1675425BdAa7DF"
  ],
  "solcInputHash": "869261aeb304b707d80e5edda679e3aa",
  "bytecode": "0x60a06040523480156200001157600080fd5b50604051620060783803806200607883398101604081905262000034916200004a565b60601b6001600160601b0319166080526200007a565b6000602082840312156200005c578081fd5b81516001600160a01b038116811462000073578182fd5b9392505050565b60805160601c615fa0620000d8600039600081816105f801528181610cea01528181610dd301528181610e0d015281816114f40152818161173c0152818161177601528181611858015281816118cf015261190c0152615fa06000f3fe608060405234801561001057600080fd5b50600436106102255760003560e01c8063065756db1461022a57806306fdde0314610246578063095ea7b31461025b5780630dfe16811461027e5780631322d9541461029e57806316f0115b146102b457806318160ddd146102c757806323b872dd146102cf57806324b8fd1b146102e257806331366be4146102f7578063313ce5671461031257806339509351146103215780633d8b30e11461033457806342fb9d4414610349578063481c6a751461035257806354fd4d501461035a578063672152bd1461037e57806370a08231146103a3578063715018a6146103cc578063727dd228146103d457806378ac6357146103f557806394bf804d1461040857806395d89b411461043f5780639894f21a1461044757806399fd808c146104755780639b1344ac14610488578063a457c2d71461049c578063a50b1fe7146104af578063a9059cbb146104c4578063b135c99f146104d7578063b536bd12146104ea578063b670ed7d146104f3578063be93dd5f14610506578063c345445914610519578063cc95353e14610522578063ccdf7a021461053c578063d21220a714610551578063d348799714610564578063d6e7ff3914610577578063dd62ed3e1461058c578063df28408a146105c5578063e25e15e3146105cd578063e4077894146105e0578063eff557a7146105f3578063f2fde38b1461061a578063fa461e331461062d578063fcd3533c14610640575b600080fd5b61023360995481565b6040519081526020015b60405180910390f35b61024e610653565b60405161023d91906159a9565b61026e6102693660046152fa565b6106e5565b604051901515815260200161023d565b609e54610291906001600160a01b031681565b60405161023d9190615896565b6102a66106fb565b60405161023d929190615ba1565b609d54610291906001600160a01b031681565b603554610233565b61026e6102dd3660046152ba565b6107a4565b6102f56102f0366004615404565b61085c565b005b6102ff606481565b60405161ffff909116815260200161023d565b6040516012815260200161023d565b61026e61032f3660046152fa565b610c41565b6097546102ff90600160e01b900461ffff1681565b610233609a5481565b610291610c78565b61024e604051806040016040528060058152602001640312e302e360dc1b81525081565b60985461038e9063ffffffff1681565b60405163ffffffff909116815260200161023d565b6102336103b136600461524a565b6001600160a01b031660009081526033602052604090205490565b6102f5610c87565b6097546103e890600160b81b900460020b81565b60405161023d919061596d565b6102f5610403366004615835565b610cdd565b61041b610416366004615835565b610e38565b6040805193845260208401929092526001600160801b03169082015260600161023d565b61024e61111e565b61045a610455366004615859565b61112d565b6040805193845260208401929092529082015260600161023d565b6102f56104833660046157bb565b61127f565b6097546103e890600160a01b900460020b81565b61026e6104aa3660046152fa565b61143f565b6097546102ff90600160d01b900461ffff1681565b61026e6104d23660046152fa565b6114da565b6102f56104e536600461576b565b6114e7565b610233609b5481565b6102a661050136600461524a565b6117a4565b6102f5610514366004615835565b61184b565b610233609c5481565b60985461029190600160301b90046001600160a01b031681565b6098546102ff90600160201b900461ffff1681565b609f54610291906001600160a01b031681565b6102f561057236600461548e565b611931565b6097546102ff90600160f01b900461ffff1681565b61023361059a366004615282565b6001600160a01b03918216600090815260346020908152604080832093909416825291909152205490565b610233611995565b6102f56105db3660046154de565b6119a4565b6102f56105ee3660046156bf565b611c41565b6102917f000000000000000000000000000000000000000000000000000000000000000081565b6102f561062836600461524a565b611d4e565b6102f561063b36600461548e565b611e2e565b61041b61064e366004615835565b611e98565b60606036805461066290615daf565b80601f016020809104026020016040519081016040528092919081815260200182805461068e90615daf565b80156106db5780601f106106b0576101008083540402835291602001916106db565b820191906000526020600020905b8154815290600101906020018083116106be57829003601f168201915b5050505050905090565b60006106f23384846121d1565b50600192915050565b600080600080609d60009054906101000a90046001600160a01b03166001600160a01b0316633850c7bd6040518163ffffffff1660e01b815260040160e06040518083038186803b15801561074f57600080fd5b505afa158015610763573d6000803e3d6000fd5b505050506040513d601f19601f8201168201806040525081019061078791906156db565b50505050509150915061079a82826122f6565b9350935050509091565b60006107b18484846125a7565b6001600160a01b03841660009081526034602090815260408083203384529091529020548281101561083b5760405162461bcd60e51b815260206004820152602860248201527f45524332303a207472616e7366657220616d6f756e74206578636565647320616044820152676c6c6f77616e636560c01b60648201526084015b60405180910390fd5b61084f853361084a8685615d6c565b6121d1565b60019150505b9392505050565b33610865610c78565b6001600160a01b03161461088b5760405162461bcd60e51b815260040161083290615b08565b609d546000906001600160a01b031663514ea4bf6108a761276d565b6040518263ffffffff1660e01b81526004016108c591815260200190565b60a06040518083038186803b1580156108dd57600080fd5b505afa1580156108f1573d6000803e3d6000fd5b505050506040513d601f19601f820116820180604052508101906109159190615669565b5050505090506000816001600160801b0316111561099f57609754600090819061095590600160a01b8104600290810b91600160b81b9004900b856127d3565b9350935050506109658282612b60565b61096f8282612c39565b6040519193509150600080516020615f4b833981519152906109949084908490615ba1565b60405180910390a150505b60978054600287810b62ffffff908116600160b81b0262ffffff60b81b19928b900b909116600160a01b029190911665ffffffffffff60a01b1990921691909117179055609b54609954609e546040516370a0823160e01b815260009392916001600160a01b0316906370a0823190610a1c903090600401615896565b60206040518083038186803b158015610a3457600080fd5b505afa158015610a48573d6000803e3d6000fd5b505050506040513d601f19601f82011682018060405250810190610a6c919061581d565b610a769190615d6c565b610a809190615d6c565b609c54609a54609f546040516370a0823160e01b81529394506000936001600160a01b03909116906370a0823190610abc903090600401615896565b60206040518083038186803b158015610ad457600080fd5b505afa158015610ae8573d6000803e3d6000fd5b505050506040513d601f19601f82011682018060405250810190610b0c919061581d565b610b169190615d6c565b610b209190615d6c565b9050610b31888884848a8a8a612cd4565b609d546000906001600160a01b031663514ea4bf610b4d61276d565b6040518263ffffffff1660e01b8152600401610b6b91815260200190565b60a06040518083038186803b158015610b8357600080fd5b505afa158015610b97573d6000803e3d6000fd5b505050506040513d601f19601f82011682018060405250810190610bbb9190615669565b5050505090506000816001600160801b031611610c0b5760405162461bcd60e51b815260206004820152600e60248201526d06e657720706f736974696f6e20360941b6044820152606401610832565b600080516020615eeb83398151915289898684604051610c2e949392919061597b565b60405180910390a1505050505050505050565b3360008181526034602090815260408083206001600160a01b038716845290915281205490916106f291859061084a908690615c4a565b6097546001600160a01b031690565b33610c90610c78565b6001600160a01b031614610cb65760405162461bcd60e51b815260040161083290615b08565b60988054600160201b600160d01b031916905560006099819055609a55610cdb612e93565b565b8181336001600160a01b037f00000000000000000000000000000000000000000000000000000000000000001614610d275760405162461bcd60e51b8152600401610832906159dc565b600080610d3a609954609a548888612efa565b60006099819055609a5590925090508115610d7457609854609e54610d74916001600160a01b0391821691600160301b909104168461301e565b8015610d9f57609854609f54610d9f916001600160a01b0391821691600160301b909104168361301e565b50506001600160a01b03811673eeeeeeeeeeeeeeeeeeeeeeeeeeeeeeeeeeeeeeee1415610dfe57610df96001600160a01b037f00000000000000000000000000000000000000000000000000000000000000001683613086565b610e32565b610e326001600160a01b0382167f00000000000000000000000000000000000000000000000000000000000000008461301e565b50505050565b600080600060026065541415610e605760405162461bcd60e51b815260040161083290615b6a565b600260655584610e825760405162461bcd60e51b815260040161083290615b4a565b6000610e8d60355490565b90506000609d60009054906101000a90046001600160a01b03166001600160a01b0316633850c7bd6040518163ffffffff1660e01b815260040160e06040518083038186803b158015610edf57600080fd5b505afa158015610ef3573d6000803e3d6000fd5b505050506040513d601f19601f82011682018060405250810190610f1791906156db565b50505050505090506000821115610f5857600080610f336106fb565b91509150610f42828a8661319c565b9650610f4f818a8661319c565b95505050610fa5565b610f9f81610f77609760149054906101000a900460020b60020b6131f3565b609754610f9190600160b81b9004600290810b900b6131f3565b610f9a8b613605565b61366e565b90955093505b8415610fc357609e54610fc3906001600160a01b0316333088613709565b8315610fe157609f54610fe1906001600160a01b0316333087613709565b61102181611000609760149054906101000a900460020b60020b6131f3565b60975461101a90600160b81b9004600290810b900b6131f3565b8888613741565b609d54609754604051633c8a7d8d60e01b81529295506001600160a01b0390911691633c8a7d8d91611071913091600160a01b8104600290810b92600160b81b909204900b9089906004016158aa565b6040805180830381600087803b15801561108a57600080fd5b505af115801561109e573d6000803e3d6000fd5b505050506040513d601f19601f820116820180604052508101906110c2919061546b565b50506110ce8688613803565b7f55801cfe493000b734571da1694b21e7f66b11e8ce9fdaa0524ecb59105e73e786888787876040516111059594939291906158ec565b60405180910390a1505060016065819055509250925092565b60606037805461066290615daf565b60008060008061113c60355490565b9050801561115b5761114f8187876138d0565b91955093509150611277565b609d5460408051633850c7bd60e01b815290516000926001600160a01b031691633850c7bd9160048083019260e0929190829003018186803b1580156111a057600080fd5b505afa1580156111b4573d6000803e3d6000fd5b505050506040513d601f19601f820116820180604052508101906111d891906156db565b5050505050509050600061122282611201609760149054906101000a900460020b60020b6131f3565b60975461121b90600160b81b9004600290810b900b6131f3565b8b8b613741565b9050806001600160801b0316935061126f8261124f609760149054906101000a900460020b60020b6131f3565b60975461126990600160b81b9004600290810b900b6131f3565b8461366e565b909650945050505b509250925092565b33611288610c78565b6001600160a01b0316146112ae5760405162461bcd60e51b815260040161083290615b08565b6127108461ffff1611156112d45760405162461bcd60e51b815260040161083290615aeb565b6127108561ffff1611156112fa5760405162461bcd60e51b815260040161083290615aeb565b6127108361ffff1611156113205760405162461bcd60e51b815260040161083290615aeb565b6040805161ffff8781168252868116602083015285168183015263ffffffff8416606082015290517f0b7615006627cf7664941bc288d4641731f895e102f95cb8690583ad7508faa89181900360800190a161ffff851615611397576097805461ffff60d01b1916600160d01b61ffff8816021790555b61ffff8416156113bc576097805461ffff60e01b1916600160e01b61ffff8716021790555b61ffff8316156113e257609780546001600160f01b0316600160f01b61ffff8616021790555b63ffffffff821615611404576098805463ffffffff191663ffffffff84161790555b6001600160a01b038116156114385760988054600160301b600160d01b031916600160301b6001600160a01b038416021790555b5050505050565b3360009081526034602090815260408083206001600160a01b0386168452909152812054828110156114c15760405162461bcd60e51b815260206004820152602560248201527f45524332303a2064656372656173656420616c6c6f77616e63652062656c6f77604482015264207a65726f60d81b6064820152608401610832565b6114d0338561084a8685615d6c565b5060019392505050565b60006106f23384846125a7565b8181336001600160a01b037f000000000000000000000000000000000000000000000000000000000000000016146115315760405162461bcd60e51b8152600401610832906159dc565b85156115415761154187866139df565b609d546000906001600160a01b031663514ea4bf61155d61276d565b6040518263ffffffff1660e01b815260040161157b91815260200190565b60a06040518083038186803b15801561159357600080fd5b505afa1580156115a7573d6000803e3d6000fd5b505050506040513d601f19601f820116820180604052508101906115cb9190615669565b5050505090506115df818989898989613c8d565b609d546000906001600160a01b031663514ea4bf6115fb61276d565b6040518263ffffffff1660e01b815260040161161991815260200190565b60a06040518083038186803b15801561163157600080fd5b505afa158015611645573d6000803e3d6000fd5b505050506040513d601f19601f820116820180604052508101906116699190615669565b505050509050816001600160801b0316816001600160801b031610156116c65760405162461bcd60e51b81526020600482015260126024820152716c697175696469747920646563726561736560701b6044820152606401610832565b609754604051600080516020615eeb8339815191529161170091600160a01b8204600290810b92600160b81b9004900b908690869061597b565b60405180910390a150506001600160a01b03811673eeeeeeeeeeeeeeeeeeeeeeeeeeeeeeeeeeeeeeee1415611767576117626001600160a01b037f00000000000000000000000000000000000000000000000000000000000000001683613086565b61179b565b61179b6001600160a01b0382167f00000000000000000000000000000000000000000000000000000000000000008461301e565b50505050505050565b6000806000609d60009054906101000a90046001600160a01b03166001600160a01b0316633850c7bd6040518163ffffffff1660e01b815260040160e06040518083038186803b1580156117f757600080fd5b505afa15801561180b573d6000803e3d6000fd5b505050506040513d601f19601f8201168201806040525081019061182f91906156db565b505050505091505061184184826122f6565b9250925050915091565b8181336001600160a01b037f000000000000000000000000000000000000000000000000000000000000000016146118955760405162461bcd60e51b8152600401610832906159dc565b6000806118a8609b54609c548888612efa565b6000609b819055609c55909250905081156118f457609e546118f4906001600160a01b03167f00000000000000000000000000000000000000000000000000000000000000008461301e565b8015610d9f57609f54610d9f906001600160a01b03167f00000000000000000000000000000000000000000000000000000000000000008361301e565b609d546001600160a01b0316331461195b5760405162461bcd60e51b815260040161083290615a2b565b831561197857609e54611978906001600160a01b0316338661301e565b8215610e3257609f54610e32906001600160a01b0316338561301e565b600061199f61276d565b905090565b600054610100900460ff16806119bd575060005460ff16155b6119d95760405162461bcd60e51b815260040161083290615a54565b600054610100900460ff161580156119fb576000805461ffff19166101011790555b611a086064612710615d29565b61ffff168561ffff161115611a2f5760405162461bcd60e51b815260040161083290615a0d565b609d80546001600160a01b0319166001600160a01b03881690811790915560408051630dfe168160e01b81529051630dfe168191600480820192602092909190829003018186803b158015611a8357600080fd5b505afa158015611a97573d6000803e3d6000fd5b505050506040513d601f19601f82011682018060405250810190611abb9190615266565b609e80546001600160a01b0319166001600160a01b03928316179055609d546040805163d21220a760e01b81529051919092169163d21220a7916004808301926020929190829003018186803b158015611b1457600080fd5b505afa158015611b28573d6000803e3d6000fd5b505050506040513d601f19601f82011682018060405250810190611b4c9190615266565b609f80546001600160a01b03199081166001600160a01b0393841617909155609880546097805461012c65ffffffffffff19909316600160201b61ffff8d160263ffffffff19161792909217600160301b600160d01b031916600160301b95881695860217909255643e800c801960d31b600165ffffff00000160a01b03909116600160a01b60028a810b62ffffff908116929092029290921792909217600165ffffff00000160a01b031916600160b81b9189900b9290921602909216919091179091179055611c1d88886141af565b611c2561422e565b8015611c37576000805461ff00191690555b5050505050505050565b33611c4a610c78565b6001600160a01b031614611c705760405162461bcd60e51b815260040161083290615b08565b609854600160201b900461ffff1615611cb15760405162461bcd60e51b815260206004820152600360248201526266656560e81b6044820152606401610832565b60008161ffff16118015611cd95750611ccd6064612710615d29565b61ffff168161ffff1611155b611cf55760405162461bcd60e51b815260040161083290615a0d565b60405161ffff821681527f8a1ffb520c943072e654fc414750dbefad5b6d6311339d041901c4752782fad39060200160405180910390a16098805461ffff909216600160201b0261ffff60201b19909216919091179055565b33611d57610c78565b6001600160a01b031614611d7d5760405162461bcd60e51b815260040161083290615b08565b6001600160a01b038116611de45760405162461bcd60e51b815260206004820152602860248201527f4f776e61626c653a206e6577206d616e6167657220697320746865207a65726f604482015267206164647265737360c01b6064820152608401610832565b6097546040516001600160a01b03808416921690600080516020615f0b83398151915290600090a3609780546001600160a01b0319166001600160a01b0392909216919091179055565b609d546001600160a01b03163314611e585760405162461bcd60e51b815260040161083290615a2b565b6000841315611e7857609e54610df9906001600160a01b0316338661301e565b6000831315610e3257609f54610e32906001600160a01b0316338561301e565b600080600060026065541415611ec05760405162461bcd60e51b815260040161083290615b6a565b600260655584611efb5760405162461bcd60e51b815260206004820152600660248201526506275726e20360d41b6044820152606401610832565b6000611f0660355490565b609d549091506000906001600160a01b031663514ea4bf611f2561276d565b6040518263ffffffff1660e01b8152600401611f4391815260200190565b60a06040518083038186803b158015611f5b57600080fd5b505afa158015611f6f573d6000803e3d6000fd5b505050506040513d601f19601f82011682018060405250810190611f939190615669565b505050509050611fa333886142a2565b6000611fb988836001600160801b0316856143df565b9050611fc481613605565b609754909450600090819081908190611ff390600160a01b8104600290810b91600160b81b9004900b8a6127d3565b93509350935093506120058282612b60565b61200f8282612c39565b6040519193509150600080516020615f4b833981519152906120349084908490615ba1565b60405180910390a1609b54609954609e546040516370a0823160e01b81526120ef93929188916001600160a01b03909116906370a082319061207a903090600401615896565b60206040518083038186803b15801561209257600080fd5b505afa1580156120a6573d6000803e3d6000fd5b505050506040513d601f19601f820116820180604052508101906120ca919061581d565b6120d49190615d6c565b6120de9190615d6c565b6120e89190615d6c565b8d896143df565b6120f99085615c4a565b609c54609a54609f546040516370a0823160e01b8152939d506121369387916001600160a01b0316906370a082319061207a903090600401615896565b6121409084615c4a565b9850891561215f57609e5461215f906001600160a01b03168c8c61301e565b881561217c57609f5461217c906001600160a01b03168c8b61301e565b7f7239dff1718b550db7f36cbf69c665cfeb56d0e96b4fb76a5cba712961b655098b8d8c8c8c6040516121b39594939291906158ec565b60405180910390a15050505050505060016065819055509250925092565b6001600160a01b0383166122335760405162461bcd60e51b8152602060048201526024808201527f45524332303a20617070726f76652066726f6d20746865207a65726f206164646044820152637265737360e01b6064820152608401610832565b6001600160a01b0382166122945760405162461bcd60e51b815260206004820152602260248201527f45524332303a20617070726f766520746f20746865207a65726f206164647265604482015261737360f01b6064820152608401610832565b6001600160a01b0383811660008181526034602090815260408083209487168084529482529182902085905590518481527f8c5be1e5ebec7d5bd14f71427d1e84f3dd0314c0f7b2291e5b200ac8c7c3b92591015b60405180910390a3505050565b609d546000908190819081908190819081906001600160a01b031663514ea4bf61231e61276d565b6040518263ffffffff1660e01b815260040161233c91815260200190565b60a06040518083038186803b15801561235457600080fd5b505afa158015612368573d6000803e3d6000fd5b505050506040513d601f19601f8201168201806040525081019061238c9190615669565b945094509450945094506123d5896123b5609760149054906101000a900460020b60020b6131f3565b6097546123cf90600160b81b9004600290810b900b6131f3565b8861366e565b909750955060006001600160801b0383166123f36001878c8a61448e565b6123fd9190615c4a565b90506000826001600160801b03166124186000878d8b61448e565b6124229190615c4a565b905061242e8282612c39565b609b54609954609e546040516370a0823160e01b8152949650929450909290916001600160a01b0316906370a082319061246c903090600401615896565b60206040518083038186803b15801561248457600080fd5b505afa158015612498573d6000803e3d6000fd5b505050506040513d601f19601f820116820180604052508101906124bc919061581d565b6124c69085615c4a565b6124d09190615d6c565b6124da9190615d6c565b6124e4908a615c4a565b609c54609a54609f546040516370a0823160e01b8152939c50919290916001600160a01b0316906370a082319061251f903090600401615896565b60206040518083038186803b15801561253757600080fd5b505afa15801561254b573d6000803e3d6000fd5b505050506040513d601f19601f8201168201806040525081019061256f919061581d565b6125799084615c4a565b6125839190615d6c565b61258d9190615d6c565b6125979089615c4a565b9750505050505050509250929050565b6001600160a01b03831661260b5760405162461bcd60e51b815260206004820152602560248201527f45524332303a207472616e736665722066726f6d20746865207a65726f206164604482015264647265737360d81b6064820152608401610832565b6001600160a01b03821661266d5760405162461bcd60e51b815260206004820152602360248201527f45524332303a207472616e7366657220746f20746865207a65726f206164647260448201526265737360e81b6064820152608401610832565b6001600160a01b038316600090815260336020526040902054818110156126e55760405162461bcd60e51b815260206004820152602660248201527f45524332303a207472616e7366657220616d6f756e7420657863656564732062604482015265616c616e636560d01b6064820152608401610832565b6126ef8282615d6c565b6001600160a01b038086166000908152603360205260408082209390935590851681529081208054849290612725908490615c4a565b92505081905550826001600160a01b0316846001600160a01b0316600080516020615f2b8339815191528460405161275f91815260200190565b60405180910390a350505050565b6097546040516001600160601b03193060601b166020820152600160a01b8204600290810b810b60e890811b6034840152600160b81b909304810b900b90911b6037820152600090603a0160405160208183030381529060405280519060200120905090565b609e546040516370a0823160e01b815260009182918291829182916001600160a01b0316906370a082319061280c903090600401615896565b60206040518083038186803b15801561282457600080fd5b505afa158015612838573d6000803e3d6000fd5b505050506040513d601f19601f8201168201806040525081019061285c919061581d565b609f546040516370a0823160e01b81529192506000916001600160a01b03909116906370a0823190612892903090600401615896565b60206040518083038186803b1580156128aa57600080fd5b505afa1580156128be573d6000803e3d6000fd5b505050506040513d601f19601f820116820180604052508101906128e2919061581d565b609d5460405163a34123a760e01b815260028c810b60048301528b900b60248201526001600160801b038a1660448201529192506001600160a01b03169063a34123a7906064016040805180830381600087803b15801561294257600080fd5b505af1158015612956573d6000803e3d6000fd5b505050506040513d601f19601f8201168201806040525081019061297a919061546b565b609d546040516309e3d67b60e31b815230600482015260028d810b60248301528c900b60448201526001600160801b036064820181905260848201529298509096506001600160a01b031690634f1eb3d89060a4016040805180830381600087803b1580156129e857600080fd5b505af11580156129fc573d6000803e3d6000fd5b505050506040513d601f19601f82011682018060405250810190612a209190615637565b5050609e546040516370a0823160e01b8152879184916001600160a01b03909116906370a0823190612a56903090600401615896565b60206040518083038186803b158015612a6e57600080fd5b505afa158015612a82573d6000803e3d6000fd5b505050506040513d601f19601f82011682018060405250810190612aa6919061581d565b612ab09190615d6c565b612aba9190615d6c565b609f546040516370a0823160e01b8152919550869183916001600160a01b0316906370a0823190612aef903090600401615896565b60206040518083038186803b158015612b0757600080fd5b505afa158015612b1b573d6000803e3d6000fd5b505050506040513d601f19601f82011682018060405250810190612b3f919061581d565b612b499190615d6c565b612b539190615d6c565b9250505093509350935093565b612710612b6e606484615ccb565b612b789190615c88565b609b6000828254612b899190615c4a565b909155506127109050612b9d606483615ccb565b612ba79190615c88565b609c6000828254612bb89190615c4a565b909155505060985461271090612bd990600160201b900461ffff1684615ccb565b612be39190615c88565b60996000828254612bf49190615c4a565b909155505060985461271090612c1590600160201b900461ffff1683615ccb565b612c1f9190615c88565b609a6000828254612c309190615c4a565b90915550505050565b6000806000612710609860049054906101000a900461ffff166064612c5e9190615c02565b612c6c9061ffff1687615ccb565b612c769190615c88565b60985490915060009061271090612c9990600160201b900461ffff166064615c02565b612ca79061ffff1687615ccb565b612cb19190615c88565b9050612cbd8287615d6c565b9350612cc98186615d6c565b925050509250929050565b609d5460408051633850c7bd60e01b815290516000926001600160a01b031691633850c7bd9160048083019260e0929190829003018186803b158015612d1957600080fd5b505afa158015612d2d573d6000803e3d6000fd5b505050506040513d601f19601f82011682018060405250810190612d5191906156db565b50505050505090506000612d7e82612d6b8b60020b6131f3565b612d778b60020b6131f3565b8a8a613741565b90506001600160801b03811615612e3b57609d54604051633c8a7d8d60e01b815260009182916001600160a01b0390911690633c8a7d8d90612dca9030908f908f9089906004016158aa565b6040805180830381600087803b158015612de357600080fd5b505af1158015612df7573d6000803e3d6000fd5b505050506040513d601f19601f82011682018060405250810190612e1b919061546b565b9092509050612e2a828a615d6c565b9850612e368189615d6c565b975050505b6000612e6a6127108686612e4f5789612e51565b8a5b612e5b9190615ccb565b612e659190615c88565b61489a565b90506000811315612e8757612e848a8a8a8a858b8a614900565b50505b50505050505050505050565b33612e9c610c78565b6001600160a01b031614612ec25760405162461bcd60e51b815260040161083290615b08565b6097546040516000916001600160a01b031690600080516020615f0b833981519152908390a3609780546001600160a01b0319169055565b609e5460009081906001600160a01b0384811691161415612f6f57609754849061271090612f3390600160e01b900461ffff1689615ccb565b612f3d9190615c88565b1015612f5b5760405162461bcd60e51b815260040161083290615aa2565b612f658487615d6c565b9150849050613015565b609f546001600160a01b0384811691161415612fdf57609754849061271090612fa390600160e01b900461ffff1688615ccb565b612fad9190615c88565b1015612fcb5760405162461bcd60e51b815260040161083290615aa2565b612fd58486615d6c565b9050859150613015565b60405162461bcd60e51b815260206004820152600b60248201526a3bb937b733903a37b5b2b760a91b6044820152606401610832565b94509492505050565b6040516001600160a01b03831660248201526044810182905261308190849063a9059cbb60e01b906064015b60408051601f198184030181529190526020810180516001600160e01b03166001600160e01b031990931692909217909152614b49565b505050565b804710156130d65760405162461bcd60e51b815260206004820152601d60248201527f416464726573733a20696e73756666696369656e742062616c616e63650000006044820152606401610832565b6000826001600160a01b03168260405160006040518083038185875af1925050503d8060008114613123576040519150601f19603f3d011682016040523d82523d6000602084013e613128565b606091505b50509050806130815760405162461bcd60e51b815260206004820152603a60248201527f416464726573733a20756e61626c6520746f2073656e642076616c75652c20726044820152791958da5c1a595b9d081b585e481a185d99481c995d995c9d195960321b6064820152608401610832565b60006131a98484846143df565b9050600082806131c957634e487b7160e01b600052601260045260246000fd5b84860911156108555760001981106131e057600080fd5b806131ea81615dea565b95945050505050565b60008060008360020b1261320a578260020b613217565b8260020b61321790615e3a565b9050613226620d89e719615e19565b60020b81111561325c5760405162461bcd60e51b81526020600482015260016024820152601560fa1b6044820152606401610832565b60006001821661327057600160801b613282565b6ffffcb933bd6fad37aa2d162d1a5940015b6001600160881b0316905060028216156132b75760806132b2826ffff97272373d413259a46990580e213a615ccb565b901c90505b60048216156132e15760806132dc826ffff2e50f5f656932ef12357cf3c7fdcc615ccb565b901c90505b600882161561330b576080613306826fffe5caca7e10e4e61c3624eaa0941cd0615ccb565b901c90505b6010821615613335576080613330826fffcb9843d60f6159c9db58835c926644615ccb565b901c90505b602082161561335f57608061335a826fff973b41fa98c081472e6896dfb254c0615ccb565b901c90505b6040821615613389576080613384826fff2ea16466c96a3843ec78b326b52861615ccb565b901c90505b60808216156133b35760806133ae826ffe5dee046a99a2a811c461f1969c3053615ccb565b901c90505b6101008216156133de5760806133d9826ffcbe86c7900a88aedcffc83b479aa3a4615ccb565b901c90505b610200821615613409576080613404826ff987a7253ac413176f2b074cf7815e54615ccb565b901c90505b61040082161561343457608061342f826ff3392b0822b70005940c7a398e4b70f3615ccb565b901c90505b61080082161561345f57608061345a826fe7159475a2c29b7443b29c7fa6e889d9615ccb565b901c90505b61100082161561348a576080613485826fd097f3bdfd2022b8845ad8f792aa5825615ccb565b901c90505b6120008216156134b55760806134b0826fa9f746462d870fdf8a65dc1f90e061e5615ccb565b901c90505b6140008216156134e05760806134db826f70d869a156d2a1b890bb3df62baf32f7615ccb565b901c90505b61800082161561350b576080613506826f31be135f97d08fd981231505542fcfa6615ccb565b901c90505b62010000821615613537576080613532826f09aa508b5b7a84e1c677de54f3e99bc9615ccb565b901c90505b6202000082161561356257608061355d826e5d6af8dedb81196699c329225ee604615ccb565b901c90505b6204000082161561358c576080613587826d2216e584f5fa1ea926041bedfe98615ccb565b901c90505b620800008216156135b45760806135af826b048a170391f7dc42444e8fa2615ccb565b901c90505b60008460020b13156135cf576135cc81600019615c88565b90505b6135dd600160201b82615e05565b156135e95760016135ec565b60005b6135fd9060ff16602083901c615c4a565b949350505050565b6000600160801b821061366a5760405162461bcd60e51b815260206004820152602760248201527f53616665436173743a2076616c756520646f65736e27742066697420696e20316044820152663238206269747360c81b6064820152608401610832565b5090565b600080836001600160a01b0316856001600160a01b0316111561368f579293925b846001600160a01b0316866001600160a01b0316116136ba576136b3858585614c1b565b9150613015565b836001600160a01b0316866001600160a01b031610156136f3576136df868585614c1b565b91506136ec858785614c85565b9050613015565b6136fe858585614c85565b905094509492505050565b6040516001600160a01b0380851660248301528316604482015260648101829052610e329085906323b872dd60e01b9060840161304a565b6000836001600160a01b0316856001600160a01b03161115613761579293925b846001600160a01b0316866001600160a01b03161161378c57613785858585614ccf565b90506131ea565b836001600160a01b0316866001600160a01b031610156137ee5760006137b3878686614ccf565b905060006137c2878986614d39565b9050806001600160801b0316826001600160801b0316106137e357806137e5565b815b925050506131ea565b6137f9858584614d39565b9695505050505050565b6001600160a01b0382166138595760405162461bcd60e51b815260206004820152601f60248201527f45524332303a206d696e7420746f20746865207a65726f2061646472657373006044820152606401610832565b806035600082825461386b9190615c4a565b90915550506001600160a01b03821660009081526033602052604081208054839290613898908490615c4a565b90915550506040518181526001600160a01b03831690600090600080516020615f2b8339815191529060200160405180910390a35050565b60008060008060006138e06106fb565b915091508160001480156138f45750600081115b1561390b576139048689836143df565b92506139ba565b801580156139195750600082115b15613929576139048789846143df565b81158015613935575080155b1561395c5760405162461bcd60e51b81526020600482015260006024820152604401610832565b6000613969888a856143df565b90506000613978888b856143df565b905060008211801561398a5750600081115b6139a65760405162461bcd60e51b815260040161083290615b4a565b8082106139b357806139b5565b815b945050505b6139c583838a61319c565b94506139d283828a61319c565b9350505093509350939050565b6040805160028082526060820183526000926020830190803683375050609854825192935063ffffffff1691839150600090613a2b57634e487b7160e01b600052603260045260246000fd5b602002602001019063ffffffff16908163ffffffff1681525050600081600181518110613a6857634e487b7160e01b600052603260045260246000fd5b63ffffffff90921660209283029190910190910152609d5460405163883bdbfd60e01b81526000916001600160a01b03169063883bdbfd90613aae908590600401615923565b60006040518083038186803b158015613ac657600080fd5b505afa158015613ada573d6000803e3d6000fd5b505050506040513d6000823e601f3d908101601f19168201604052613b029190810190615325565b5090508051600214613b425760405162461bcd60e51b815260206004820152600960248201526830b93930bc903632b760b91b6044820152606401610832565b6098548151600091829163ffffffff90911660060b9084908390613b7657634e487b7160e01b600052603260045260246000fd5b602002602001015184600181518110613b9f57634e487b7160e01b600052603260045260246000fd5b60200260200101510360060b81613bc657634e487b7160e01b600052601260045260246000fd5b059050613bd58160020b6131f3565b6097549092506000915061271090613bf890600160f01b900461ffff1684615c9c565b613c029190615c62565b90508415613c4a57613c148183615d4c565b6001600160a01b0316866001600160a01b03161015613c455760405162461bcd60e51b815260040161083290615ac4565b613c85565b613c548183615c28565b6001600160a01b0316866001600160a01b03161115613c855760405162461bcd60e51b815260040161083290615ac4565b505050505050565b609b54609954609e546040516370a0823160e01b815260009392916001600160a01b0316906370a0823190613cc6903090600401615896565b60206040518083038186803b158015613cde57600080fd5b505afa158015613cf2573d6000803e3d6000fd5b505050506040513d601f19601f82011682018060405250810190613d16919061581d565b613d209190615d6c565b613d2a9190615d6c565b609c54609a54609f546040516370a0823160e01b81529394506000936001600160a01b03909116906370a0823190613d66903090600401615896565b60206040518083038186803b158015613d7e57600080fd5b505afa158015613d92573d6000803e3d6000fd5b505050506040513d601f19601f82011682018060405250810190613db6919061581d565b613dc09190615d6c565b613dca9190615d6c565b6097549091506000908190613df590600160a01b8104600290810b91600160b81b9004900b8c6127d3565b935093505050613e058282612b60565b613e0f8282612c39565b6040519193509150600080516020615f4b83398151915290613e349084908490615ba1565b60405180910390a1613e468483615c4a565b9150613e528382615c4a565b609e549091506001600160a01b0386811691161415613ffd57609754869061271090613e8990600160d01b900461ffff1685615ccb565b613e939190615c88565b1015613eb15760405162461bcd60e51b815260040161083290615aa2565b609b54609954609e546040516370a0823160e01b8152899392916001600160a01b0316906370a0823190613ee9903090600401615896565b60206040518083038186803b158015613f0157600080fd5b505afa158015613f15573d6000803e3d6000fd5b505050506040513d601f19601f82011682018060405250810190613f39919061581d565b613f439190615d6c565b613f4d9190615d6c565b613f579190615d6c565b609c54609a54609f546040516370a0823160e01b8152939750919290916001600160a01b0316906370a0823190613f92903090600401615896565b60206040518083038186803b158015613faa57600080fd5b505afa158015613fbe573d6000803e3d6000fd5b505050506040513d601f19601f82011682018060405250810190613fe2919061581d565b613fec9190615d6c565b613ff69190615d6c565b9250614188565b609f546001600160a01b0386811691161415612fdf5760975486906127109061403190600160d01b900461ffff1684615ccb565b61403b9190615c88565b10156140595760405162461bcd60e51b815260040161083290615aa2565b609b54609954609e546040516370a0823160e01b81526001600160a01b03909116906370a082319061408f903090600401615896565b60206040518083038186803b1580156140a757600080fd5b505afa1580156140bb573d6000803e3d6000fd5b505050506040513d601f19601f820116820180604052508101906140df919061581d565b6140e99190615d6c565b6140f39190615d6c565b609c54609a54609f546040516370a0823160e01b815293975089936001600160a01b03909116906370a082319061412e903090600401615896565b60206040518083038186803b15801561414657600080fd5b505afa15801561415a573d6000803e3d6000fd5b505050506040513d601f19601f8201168201806040525081019061417e919061581d565b613fe29190615d6c565b609754612e8790600160a01b8104600290810b91600160b81b9004900b86868d8d8d612cd4565b600054610100900460ff16806141c8575060005460ff16155b6141e45760405162461bcd60e51b815260040161083290615a54565b600054610100900460ff16158015614206576000805461ffff19166101011790555b61420e614d6f565b6142188383614dd9565b8015613081576000805461ff0019169055505050565b600054610100900460ff1680614247575060005460ff16155b6142635760405162461bcd60e51b815260040161083290615a54565b600054610100900460ff16158015614285576000805461ffff19166101011790555b61428d614e6e565b801561429f576000805461ff00191690555b50565b6001600160a01b0382166143025760405162461bcd60e51b815260206004820152602160248201527f45524332303a206275726e2066726f6d20746865207a65726f206164647265736044820152607360f81b6064820152608401610832565b6001600160a01b038216600090815260336020526040902054818110156143765760405162461bcd60e51b815260206004820152602260248201527f45524332303a206275726e20616d6f756e7420657863656564732062616c616e604482015261636560f01b6064820152608401610832565b6143808282615d6c565b6001600160a01b038416600090815260336020526040812091909155603580548492906143ae908490615d6c565b90915550506040518281526000906001600160a01b03851690600080516020615f2b833981519152906020016122e9565b600080806000198587098587029250828110838203039150508060001415614419576000841161440e57600080fd5b508290049050610855565b80841161442557600080fd5b60008486880960026001871981018816978890046003810283188082028403028082028403028082028403028082028403028082028403029081029092039091026000889003889004909101858311909403939093029303949094049190911702949350505050565b600080600080871561465b57609d60009054906101000a90046001600160a01b03166001600160a01b031663f30583996040518163ffffffff1660e01b815260040160206040518083038186803b1580156144e857600080fd5b505afa1580156144fc573d6000803e3d6000fd5b505050506040513d601f19601f82011682018060405250810190614520919061581d565b609d5460975460405163f30dba9360e01b81529293506001600160a01b039091169163f30dba939161456091600160a01b90910460020b9060040161596d565b6101006040518083038186803b15801561457957600080fd5b505afa15801561458d573d6000803e3d6000fd5b505050506040513d601f19601f820116820180604052508101906145b1919061559d565b5050609d5460975460405163f30dba9360e01b8152959a506001600160a01b03909116965063f30dba9395506145fa94600160b81b90910460020b9350600401915061596d9050565b6101006040518083038186803b15801561461357600080fd5b505afa158015614627573d6000803e3d6000fd5b505050506040513d601f19601f8201168201806040525081019061464b919061559d565b5093975061481695505050505050565b609d60009054906101000a90046001600160a01b03166001600160a01b031663461413196040518163ffffffff1660e01b815260040160206040518083038186803b1580156146a957600080fd5b505afa1580156146bd573d6000803e3d6000fd5b505050506040513d601f19601f820116820180604052508101906146e1919061581d565b609d5460975460405163f30dba9360e01b81529293506001600160a01b039091169163f30dba939161472191600160a01b90910460020b9060040161596d565b6101006040518083038186803b15801561473a57600080fd5b505afa15801561474e573d6000803e3d6000fd5b505050506040513d601f19601f82011682018060405250810190614772919061559d565b5050609d5460975460405163f30dba9360e01b8152949a506001600160a01b03909116965063f30dba9395506147ba9450600160b81b900460020b92600401915061596d9050565b6101006040518083038186803b1580156147d357600080fd5b505afa1580156147e7573d6000803e3d6000fd5b505050506040513d601f19601f8201168201806040525081019061480b919061559d565b509297505050505050505b6000609760149054906101000a900460020b60020b8760020b1261483b575082614840565b508281035b6000609760179054906101000a900460020b60020b8860020b121561486657508261486b565b508282035b81830381900361488b6001600160801b0389168b8303600160801b6143df565b9b9a5050505050505050505050565b6000600160ff1b821061366a5760405162461bcd60e51b815260206004820152602860248201527f53616665436173743a2076616c756520646f65736e27742066697420696e2061604482015267371034b73a191a9b60c11b6064820152608401610832565b609d54604051630251596160e31b81523060048201528215156024820152604481018590526001600160a01b03848116606483015260a06084830152600060a4830181905292839283928392169063128acb089060c4016040805180830381600087803b15801561497057600080fd5b505af1158015614984573d6000803e3d6000fd5b505050506040513d601f19601f820116820180604052508101906149a8919061546b565b91509150816149b68a61489a565b6149c09190615cea565b9350806149cc8961489a565b6149d69190615cea565b92506000609d60009054906101000a90046001600160a01b03166001600160a01b0316633850c7bd6040518163ffffffff1660e01b815260040160e06040518083038186803b158015614a2857600080fd5b505afa158015614a3c573d6000803e3d6000fd5b505050506040513d601f19601f82011682018060405250810190614a6091906156db565b50505050505090506000614a8d82614a7a8f60020b6131f3565b614a868f60020b6131f3565b8989613741565b90506001600160801b03811615614b3957609d60009054906101000a90046001600160a01b03166001600160a01b0316633c8a7d8d308f8f856040518563ffffffff1660e01b8152600401614ae594939291906158aa565b6040805180830381600087803b158015614afe57600080fd5b505af1158015614b12573d6000803e3d6000fd5b505050506040513d601f19601f82011682018060405250810190614b36919061546b565b50505b5050505097509795505050505050565b6000614b9e826040518060400160405280602081526020017f5361666545524332303a206c6f772d6c6576656c2063616c6c206661696c6564815250856001600160a01b0316614ede9092919063ffffffff16565b8051909150156130815780806020019051810190614bbc91906153e8565b6130815760405162461bcd60e51b815260206004820152602a60248201527f5361666545524332303a204552433230206f7065726174696f6e20646964206e6044820152691bdd081cdd58d8d9595960b21b6064820152608401610832565b6000826001600160a01b0316846001600160a01b03161115614c3b579192915b6001600160a01b038416614c7b600160601b600160e01b03606085901b16614c638787615d4c565b6001600160a01b0316866001600160a01b03166143df565b6135fd9190615c88565b6000826001600160a01b0316846001600160a01b03161115614ca5579192915b6135fd6001600160801b038316614cbc8686615d4c565b6001600160a01b0316600160601b6143df565b6000826001600160a01b0316846001600160a01b03161115614cef579192915b6000614d12856001600160a01b0316856001600160a01b0316600160601b6143df565b90506131ea614d348483614d268989615d4c565b6001600160a01b03166143df565b614eed565b6000826001600160a01b0316846001600160a01b03161115614d59579192915b6135fd614d3483600160601b614d268888615d4c565b600054610100900460ff1680614d88575060005460ff16155b614da45760405162461bcd60e51b815260040161083290615a54565b600054610100900460ff1615801561428d576000805461ffff1916610101179055801561429f576000805461ff001916905550565b600054610100900460ff1680614df2575060005460ff16155b614e0e5760405162461bcd60e51b815260040161083290615a54565b600054610100900460ff16158015614e30576000805461ffff19166101011790555b8251614e43906036906020860190615069565b508151614e57906037906020850190615069565b508015613081576000805461ff0019169055505050565b600054610100900460ff1680614e87575060005460ff16155b614ea35760405162461bcd60e51b815260040161083290615a54565b600054610100900460ff16158015614ec5576000805461ffff19166101011790555b6001606555801561429f576000805461ff001916905550565b60606135fd8484600085614f08565b806001600160801b0381168114614f0357600080fd5b919050565b606082471015614f695760405162461bcd60e51b815260206004820152602660248201527f416464726573733a20696e73756666696369656e742062616c616e636520666f6044820152651c8818d85b1b60d21b6064820152608401610832565b843b614fb75760405162461bcd60e51b815260206004820152601d60248201527f416464726573733a2063616c6c20746f206e6f6e2d636f6e74726163740000006044820152606401610832565b600080866001600160a01b03168587604051614fd3919061587a565b60006040518083038185875af1925050503d8060008114615010576040519150601f19603f3d011682016040523d82523d6000602084013e615015565b606091505b5091509150615025828286615030565b979650505050505050565b6060831561503f575081610855565b82511561504f5782518084602001fd5b8160405162461bcd60e51b815260040161083291906159a9565b82805461507590615daf565b90600052602060002090601f01602090048101928261509757600085556150dd565b82601f106150b057805160ff19168380011785556150dd565b828001600101855582156150dd579182015b828111156150dd5782518255916020019190600101906150c2565b5061366a9291505b8082111561366a57600081556001016150e5565b600082601f830112615109578081fd5b8151602061511e61511983615bdf565b615baf565b80838252828201915082860187848660051b890101111561513d578586fd5b855b8581101561516457815161515281615e96565b8452928401929084019060010161513f565b5090979650505050505050565b60008083601f840112615182578182fd5b5081356001600160401b03811115615198578182fd5b6020830191508360208285010111156151b057600080fd5b9250929050565b8051600681900b8114614f0357600080fd5b600082601f8301126151d9578081fd5b81356001600160401b038111156151f2576151f2615e80565b615205601f8201601f1916602001615baf565b818152846020838601011115615219578283fd5b816020850160208301379081016020019190915292915050565b80516001600160801b0381168114614f0357600080fd5b60006020828403121561525b578081fd5b813561085581615e96565b600060208284031215615277578081fd5b815161085581615e96565b60008060408385031215615294578081fd5b823561529f81615e96565b915060208301356152af81615e96565b809150509250929050565b6000806000606084860312156152ce578081fd5b83356152d981615e96565b925060208401356152e981615e96565b929592945050506040919091013590565b6000806040838503121561530c578182fd5b823561531781615e96565b946020939093013593505050565b60008060408385031215615337578182fd5b82516001600160401b038082111561534d578384fd5b818501915085601f830112615360578384fd5b8151602061537061511983615bdf565b8083825282820191508286018a848660051b890101111561538f578889fd5b8896505b848710156153b8576153a4816151b7565b835260019690960195918301918301615393565b50918801519196509093505050808211156153d1578283fd5b506153de858286016150f9565b9150509250929050565b6000602082840312156153f9578081fd5b815161085581615eab565b600080600080600060a0868803121561541b578283fd5b853561542681615eb9565b9450602086013561543681615eb9565b9350604086013561544681615e96565b925060608601359150608086013561545d81615eab565b809150509295509295909350565b6000806040838503121561547d578182fd5b505080516020909101519092909150565b600080600080606085870312156154a3578182fd5b843593506020850135925060408501356001600160401b038111156154c6578283fd5b6154d287828801615171565b95989497509550505050565b600080600080600080600060e0888a0312156154f8578485fd5b87356001600160401b038082111561550e578687fd5b61551a8b838c016151c9565b985060208a013591508082111561552f578687fd5b5061553c8a828b016151c9565b965050604088013561554d81615e96565b9450606088013561555d81615ec8565b9350608088013561556d81615eb9565b925060a088013561557d81615eb9565b915060c088013561558d81615e96565b8091505092959891949750929550565b600080600080600080600080610100898b0312156155b9578182fd5b6155c289615233565b9750602089015180600f0b81146155d7578283fd5b60408a015160608b0151919850965094506155f460808a016151b7565b935060a089015161560481615e96565b60c08a015190935061561581615ed8565b60e08a015190925061562681615eab565b809150509295985092959890939650565b60008060408385031215615649578182fd5b61565283615233565b915061566060208401615233565b90509250929050565b600080600080600060a08688031215615680578283fd5b61568986615233565b945060208601519350604086015192506156a560608701615233565b91506156b360808701615233565b90509295509295909350565b6000602082840312156156d0578081fd5b813561085581615ec8565b600080600080600080600060e0888a0312156156f5578081fd5b875161570081615e96565b602089015190975061571181615eb9565b604089015190965061572281615ec8565b606089015190955061573381615ec8565b608089015190945061574481615ec8565b60a089015190935060ff8116811461575a578182fd5b60c089015190925061558d81615eab565b600080600080600060a08688031215615782578283fd5b853561578d81615e96565b94506020860135935060408601356157a481615eab565b925060608601359150608086013561545d81615e96565b600080600080600060a086880312156157d2578283fd5b85356157dd81615ec8565b945060208601356157ed81615ec8565b935060408601356157fd81615ec8565b9250606086013561580d81615ed8565b9150608086013561545d81615e96565b60006020828403121561582e578081fd5b5051919050565b60008060408385031215615847578182fd5b8235915060208301356152af81615e96565b6000806040838503121561586b578182fd5b50508035926020909101359150565b6000825161588c818460208701615d83565b9190910192915050565b6001600160a01b0391909116815260200190565b6001600160a01b03949094168452600292830b6020850152910b60408301526001600160801b0316606082015260a06080820181905260009082015260c00190565b6001600160a01b039590951685526020850193909352604084019190915260608301526001600160801b0316608082015260a00190565b6020808252825182820181905260009190848201906040850190845b8181101561596157835163ffffffff168352928401929184019160010161593f565b50909695505050505050565b60029190910b815260200190565b600294850b81529290930b60208301526001600160801b039081166040830152909116606082015260800190565b60208152600082518060208401526159c8816040850160208701615d83565b601f01601f19169190910160400192915050565b60208082526017908201527647656c61746f666965643a204f6e6c792067656c61746f60481b604082015260600190565b6020808252600490820152636d42505360e01b604082015260600190565b6020808252600f908201526e31b0b6363130b1b59031b0b63632b960891b604082015260600190565b6020808252602e908201527f496e697469616c697a61626c653a20636f6e747261637420697320616c72656160408201526d191e481a5b9a5d1a585b1a5e995960921b606082015260800190565b602080825260089082015267686967682066656560c01b604082015260600190565b6020808252600d908201526c6869676820736c69707061676560981b604082015260600190565b60208082526003908201526242505360e81b604082015260600190565b60208082526022908201527f4f776e61626c653a2063616c6c6572206973206e6f7420746865206d616e616760408201526132b960f11b606082015260800190565b60208082526006908201526506d696e7420360d41b604082015260600190565b6020808252601f908201527f5265656e7472616e637947756172643a207265656e7472616e742063616c6c00604082015260600190565b918252602082015260400190565b604051601f8201601f191681016001600160401b0381118282101715615bd757615bd7615e80565b604052919050565b60006001600160401b03821115615bf857615bf8615e80565b5060051b60200190565b600061ffff808316818516808303821115615c1f57615c1f615e54565b01949350505050565b60006001600160a01b03828116848216808303821115615c1f57615c1f615e54565b60008219821115615c5d57615c5d615e54565b500190565b60006001600160a01b0383811680615c7c57615c7c615e6a565b92169190910492915050565b600082615c9757615c97615e6a565b500490565b60006001600160a01b0382811684821681151582840482111615615cc257615cc2615e54565b02949350505050565b6000816000190483118215151615615ce557615ce5615e54565b500290565b60008083128015600160ff1b850184121615615d0857615d08615e54565b6001600160ff1b0384018313811615615d2357615d23615e54565b50500390565b600061ffff83811690831681811015615d4457615d44615e54565b039392505050565b60006001600160a01b0383811690831681811015615d4457615d44615e54565b600082821015615d7e57615d7e615e54565b500390565b60005b83811015615d9e578181015183820152602001615d86565b83811115610e325750506000910152565b600181811c90821680615dc357607f821691505b60208210811415615de457634e487b7160e01b600052602260045260246000fd5b50919050565b6000600019821415615dfe57615dfe615e54565b5060010190565b600082615e1457615e14615e6a565b500690565b60008160020b627fffff19811415615e3357615e33615e54565b9003919050565b6000600160ff1b821415615e5057615e50615e54565b0390565b634e487b7160e01b600052601160045260246000fd5b634e487b7160e01b600052601260045260246000fd5b634e487b7160e01b600052604160045260246000fd5b6001600160a01b038116811461429f57600080fd5b801515811461429f57600080fd5b8060020b811461429f57600080fd5b61ffff8116811461429f57600080fd5b63ffffffff8116811461429f57600080fdfec749f9ae947d4734cf1569606a8a347391ae94a063478aa853aeff48ac5f99e88be0079c531659141344cd1fd0a4f28419497f9722a3daafe3b4186f6b6457e0ddf252ad1be2c89b69c2b068fc378daa952ba7f163c4a11628f55a4df523b3efc28ad1de9c0c32e5394ba60323e44d8d9536312236a47231772e448a3e49de42a2646970667358221220170d5c58be0bffd3988864d87cdc1b356071783a6ebf8d42552270cc9e4d530f64736f6c63430008040033",
  "devdoc": {
    "kind": "dev",
    "methods": {
      "allowance(address,address)": {
        "details": "See {IERC20-allowance}."
      },
      "approve(address,uint256)": {
        "details": "See {IERC20-approve}. Requirements: - `spender` cannot be the zero address."
      },
      "balanceOf(address)": {
        "details": "See {IERC20-balanceOf}."
      },
      "burn(uint256,address)": {
        "params": {
          "burnAmount": "The number of G-UNI tokens to burn",
          "receiver": "The account to receive the underlying amounts of token0 and token1"
        },
        "returns": {
          "amount0": "amount of token0 transferred to receiver for burning `burnAmount`",
          "amount1": "amount of token1 transferred to receiver for burning `burnAmount`",
          "liquidityBurned": "amount of liquidity removed from the underlying Uniswap V3 position"
        }
      },
      "decimals()": {
        "details": "Returns the number of decimals used to get its user representation. For example, if `decimals` equals `2`, a balance of `505` tokens should be displayed to a user as `5,05` (`505 / 10 ** 2`). Tokens usually opt for a value of 18, imitating the relationship between Ether and Wei. This is the value {ERC20} uses, unless this function is overridden; NOTE: This information is only used for _display_ purposes: it in no way affects any of the arithmetic of the contract, including {IERC20-balanceOf} and {IERC20-transfer}."
      },
      "decreaseAllowance(address,uint256)": {
        "details": "Atomically decreases the allowance granted to `spender` by the caller. This is an alternative to {approve} that can be used as a mitigation for problems described in {IERC20-approve}. Emits an {Approval} event indicating the updated allowance. Requirements: - `spender` cannot be the zero address. - `spender` must have allowance for the caller of at least `subtractedValue`."
      },
      "executiveRebalance(int24,int24,uint160,uint256,bool)": {
        "details": "When changing the range the inventory of token0 and token1 may be rebalanced with a swap to deposit as much liquidity as possible into the new position. Swap parameters can be computed by simulating the whole operation: remove all liquidity, deposit as much as possible into new position, then observe how much of token0 or token1 is leftover. Swap a proportion of this leftover to deposit more liquidity into the position, since any leftover will be unused and sit idle until the next rebalance.",
        "params": {
          "newLowerTick": "The new lower bound of the position's range",
          "newUpperTick": "The new upper bound of the position's range",
          "swapAmountBPS": "amount of token to swap as proportion of total. Pass 0 to ignore swap.",
          "swapThresholdPrice": "slippage parameter on the swap as a max or min sqrtPriceX96",
          "zeroForOne": "Which token to input into the swap (true = token0, false = token1)"
        }
      },
      "getMintAmounts(uint256,uint256)": {
        "params": {
          "amount0Max": "The maximum amount of token1 to forward on mint"
        },
        "returns": {
          "amount0": "actual amount of token0 to forward when minting `mintAmount`",
          "amount1": "actual amount of token1 to forward when minting `mintAmount`",
          "mintAmount": "maximum number of G-UNI tokens to mint"
        }
      },
      "getUnderlyingBalances()": {
        "returns": {
          "amount0Current": "current total underlying balance of token0",
          "amount1Current": "current total underlying balance of token1"
        }
      },
      "increaseAllowance(address,uint256)": {
        "details": "Atomically increases the allowance granted to `spender` by the caller. This is an alternative to {approve} that can be used as a mitigation for problems described in {IERC20-approve}. Emits an {Approval} event indicating the updated allowance. Requirements: - `spender` cannot be the zero address."
      },
      "initialize(string,string,address,uint16,int24,int24,address)": {
        "params": {
          "_lowerTick": "initial upperTick (only changeable with executiveRebalance)",
          "_managerFeeBPS": "proportion of fees earned that go to manager treasury note that the 4 above params are NOT UPDATEABLE AFTER INILIALIZATION",
          "_manager_": "address of manager (ownership can be transferred)",
          "_name": "name of G-UNI token",
          "_pool": "address of Uniswap V3 pool",
          "_symbol": "symbol of G-UNI token"
        }
      },
      "initializeManagerFee(uint16)": {
        "params": {
          "_managerFeeBPS": "proportion of fees earned that are credited to manager in Basis Points"
        }
      },
      "manager()": {
        "details": "Returns the address of the current manager."
      },
      "mint(uint256,address)": {
        "details": "to compute the amouint of tokens necessary to mint `mintAmount` see getMintAmounts",
        "params": {
          "mintAmount": "The number of G-UNI tokens to mint",
          "receiver": "The account to receive the minted tokens"
        },
        "returns": {
          "amount0": "amount of token0 transferred from msg.sender to mint `mintAmount`",
          "amount1": "amount of token1 transferred from msg.sender to mint `mintAmount`",
          "liquidityMinted": "amount of liquidity added to the underlying Uniswap V3 position"
        }
      },
      "name()": {
        "details": "Returns the name of the token."
      },
      "renounceOwnership()": {
        "details": "Leaves the contract without manager. It will not be possible to call `onlyManager` functions anymore. Can only be called by the current manager. NOTE: Renouncing ownership will leave the contract without an manager, thereby removing any functionality that is only available to the manager."
      },
      "symbol()": {
        "details": "Returns the symbol of the token, usually a shorter version of the name."
      },
      "totalSupply()": {
        "details": "See {IERC20-totalSupply}."
      },
      "transfer(address,uint256)": {
        "details": "See {IERC20-transfer}. Requirements: - `recipient` cannot be the zero address. - the caller must have a balance of at least `amount`."
      },
      "transferFrom(address,address,uint256)": {
        "details": "See {IERC20-transferFrom}. Emits an {Approval} event indicating the updated allowance. This is not required by the EIP. See the note at the beginning of {ERC20}. Requirements: - `sender` and `recipient` cannot be the zero address. - `sender` must have a balance of at least `amount`. - the caller must have allowance for ``sender``'s tokens of at least `amount`."
      },
      "transferOwnership(address)": {
        "details": "Transfers ownership of the contract to a new account (`newOwner`). Can only be called by the current manager."
      },
      "updateGelatoParams(uint16,uint16,uint16,uint32,address)": {
        "params": {
          "newRebalanceBPS": "controls frequency of gelato rebalances: gas fee to execute rebalance can be gelatoRebalanceBPS proportion of fees earned since last rebalance",
          "newSlippageBPS": "maximum slippage on swaps during gelato rebalance",
          "newSlippageInterval": "length of time for TWAP used in computing slippage on swaps",
          "newTreasury": "address where managerFee withdrawals are sent",
          "newWithdrawBPS": "controls frequency of gelato withdrawals: gas fee to execute withdrawal can be gelatoWithdrawBPS proportion of fees accrued since last withdraw"
        }
      }
    },
    "version": 1
  },
  "userdoc": {
    "kind": "user",
    "methods": {
      "burn(uint256,address)": {
        "notice": "burn G-UNI tokens (fractional shares of a Uniswap V3 position) and receive tokens"
      },
      "executiveRebalance(int24,int24,uint160,uint256,bool)": {
        "notice": "Change the range of underlying UniswapV3 position, only manager can call"
      },
      "getMintAmounts(uint256,uint256)": {
        "notice": "compute maximum G-UNI tokens that can be minted from `amount0Max` and `amount1Max`"
      },
      "getUnderlyingBalances()": {
        "notice": "compute total underlying holdings of the G-UNI token supply includes current liquidity invested in uniswap position, current fees earned and any uninvested leftover (but does not include manager or gelato fees accrued)"
      },
      "initialize(string,string,address,uint16,int24,int24,address)": {
        "notice": "initialize storage variables on a new G-UNI pool, only called once"
      },
      "initializeManagerFee(uint16)": {
        "notice": "initializeManagerFee sets a managerFee, only manager can call. If a manager fee was not set in the initialize function it can be set here but ONLY ONCE- after it is set to a non-zero value, managerFee can never be set again."
      },
      "mint(uint256,address)": {
        "notice": "mint fungible G-UNI tokens, fractional shares of a Uniswap V3 position"
      },
      "rebalance(uint160,uint256,bool,uint256,address)": {
        "notice": "Reinvest fees earned into underlying position, only gelato executors can call Position bounds CANNOT be altered by gelato, only manager may via executiveRebalance. Frequency of rebalance configured with gelatoRebalanceBPS, alterable by manager."
      },
      "uniswapV3MintCallback(uint256,uint256,bytes)": {
        "notice": "Uniswap V3 callback fn, called back on pool.mint"
      },
      "uniswapV3SwapCallback(int256,int256,bytes)": {
        "notice": "Uniswap v3 callback fn, called back on pool.swap"
      },
      "updateGelatoParams(uint16,uint16,uint16,uint32,address)": {
        "notice": "change configurable parameters, only manager can call"
      },
      "withdrawGelatoBalance(uint256,address)": {
        "notice": "withdraw gelato fees accrued, only gelato executors can call. Frequency of withdrawals configured with gelatoWithdrawBPS, alterable by manager."
      },
      "withdrawManagerBalance(uint256,address)": {
        "notice": "withdraw manager fees accrued, only gelato executors can call. Target account to receive fees is managerTreasury, alterable by manager. Frequency of withdrawals configured with gelatoWithdrawBPS, alterable by manager."
      }
    },
    "version": 1
  },
  "storageLayout": {
    "storage": [
      {
        "astId": 5,
        "contract": "contracts/GUniPool.sol:GUniPool",
        "label": "_initialized",
        "offset": 0,
        "slot": "0",
        "type": "t_bool"
      },
      {
        "astId": 8,
        "contract": "contracts/GUniPool.sol:GUniPool",
        "label": "_initializing",
        "offset": 1,
        "slot": "0",
        "type": "t_bool"
      },
      {
        "astId": 784,
        "contract": "contracts/GUniPool.sol:GUniPool",
        "label": "__gap",
        "offset": 0,
        "slot": "1",
        "type": "t_array(t_uint256)50_storage"
      },
      {
        "astId": 122,
        "contract": "contracts/GUniPool.sol:GUniPool",
        "label": "_balances",
        "offset": 0,
        "slot": "51",
        "type": "t_mapping(t_address,t_uint256)"
      },
      {
        "astId": 128,
        "contract": "contracts/GUniPool.sol:GUniPool",
        "label": "_allowances",
        "offset": 0,
        "slot": "52",
        "type": "t_mapping(t_address,t_mapping(t_address,t_uint256))"
      },
      {
        "astId": 130,
        "contract": "contracts/GUniPool.sol:GUniPool",
        "label": "_totalSupply",
        "offset": 0,
        "slot": "53",
        "type": "t_uint256"
      },
      {
        "astId": 132,
        "contract": "contracts/GUniPool.sol:GUniPool",
        "label": "_name",
        "offset": 0,
        "slot": "54",
        "type": "t_string_storage"
      },
      {
        "astId": 134,
        "contract": "contracts/GUniPool.sol:GUniPool",
        "label": "_symbol",
        "offset": 0,
        "slot": "55",
        "type": "t_string_storage"
      },
      {
        "astId": 636,
        "contract": "contracts/GUniPool.sol:GUniPool",
        "label": "__gap",
        "offset": 0,
        "slot": "56",
        "type": "t_array(t_uint256)45_storage"
      },
      {
        "astId": 59,
        "contract": "contracts/GUniPool.sol:GUniPool",
        "label": "_status",
        "offset": 0,
        "slot": "101",
        "type": "t_uint256"
      },
      {
        "astId": 102,
        "contract": "contracts/GUniPool.sol:GUniPool",
        "label": "__gap",
        "offset": 0,
        "slot": "102",
        "type": "t_array(t_uint256)49_storage"
      },
      {
        "astId": 6311,
        "contract": "contracts/GUniPool.sol:GUniPool",
        "label": "_manager",
        "offset": 0,
        "slot": "151",
        "type": "t_address"
      },
      {
        "astId": 5901,
        "contract": "contracts/GUniPool.sol:GUniPool",
        "label": "lowerTick",
        "offset": 20,
        "slot": "151",
        "type": "t_int24"
      },
      {
        "astId": 5903,
        "contract": "contracts/GUniPool.sol:GUniPool",
        "label": "upperTick",
        "offset": 23,
        "slot": "151",
        "type": "t_int24"
      },
      {
        "astId": 5905,
        "contract": "contracts/GUniPool.sol:GUniPool",
        "label": "gelatoRebalanceBPS",
        "offset": 26,
        "slot": "151",
        "type": "t_uint16"
      },
      {
        "astId": 5907,
        "contract": "contracts/GUniPool.sol:GUniPool",
        "label": "gelatoWithdrawBPS",
        "offset": 28,
        "slot": "151",
        "type": "t_uint16"
      },
      {
        "astId": 5909,
        "contract": "contracts/GUniPool.sol:GUniPool",
        "label": "gelatoSlippageBPS",
        "offset": 30,
        "slot": "151",
        "type": "t_uint16"
      },
      {
        "astId": 5911,
        "contract": "contracts/GUniPool.sol:GUniPool",
        "label": "gelatoSlippageInterval",
        "offset": 0,
        "slot": "152",
        "type": "t_uint32"
      },
      {
        "astId": 5913,
        "contract": "contracts/GUniPool.sol:GUniPool",
        "label": "managerFeeBPS",
        "offset": 4,
        "slot": "152",
        "type": "t_uint16"
      },
      {
        "astId": 5915,
        "contract": "contracts/GUniPool.sol:GUniPool",
        "label": "managerTreasury",
        "offset": 6,
        "slot": "152",
        "type": "t_address"
      },
      {
        "astId": 5917,
        "contract": "contracts/GUniPool.sol:GUniPool",
        "label": "managerBalance0",
        "offset": 0,
        "slot": "153",
        "type": "t_uint256"
      },
      {
        "astId": 5919,
        "contract": "contracts/GUniPool.sol:GUniPool",
        "label": "managerBalance1",
        "offset": 0,
        "slot": "154",
        "type": "t_uint256"
      },
      {
        "astId": 5921,
        "contract": "contracts/GUniPool.sol:GUniPool",
        "label": "gelatoBalance0",
        "offset": 0,
        "slot": "155",
        "type": "t_uint256"
      },
      {
        "astId": 5923,
        "contract": "contracts/GUniPool.sol:GUniPool",
        "label": "gelatoBalance1",
        "offset": 0,
        "slot": "156",
        "type": "t_uint256"
      },
      {
        "astId": 5926,
        "contract": "contracts/GUniPool.sol:GUniPool",
        "label": "pool",
        "offset": 0,
        "slot": "157",
        "type": "t_contract(IUniswapV3Pool)2339"
      },
      {
        "astId": 5929,
        "contract": "contracts/GUniPool.sol:GUniPool",
        "label": "token0",
        "offset": 0,
        "slot": "158",
        "type": "t_contract(IERC20)863"
      },
      {
        "astId": 5932,
        "contract": "contracts/GUniPool.sol:GUniPool",
        "label": "token1",
        "offset": 0,
        "slot": "159",
        "type": "t_contract(IERC20)863"
      }
    ],
    "types": {
      "t_address": {
        "encoding": "inplace",
        "label": "address",
        "numberOfBytes": "20"
      },
      "t_array(t_uint256)45_storage": {
        "base": "t_uint256",
        "encoding": "inplace",
        "label": "uint256[45]",
        "numberOfBytes": "1440"
      },
      "t_array(t_uint256)49_storage": {
        "base": "t_uint256",
        "encoding": "inplace",
        "label": "uint256[49]",
        "numberOfBytes": "1568"
      },
      "t_array(t_uint256)50_storage": {
        "base": "t_uint256",
        "encoding": "inplace",
        "label": "uint256[50]",
        "numberOfBytes": "1600"
      },
      "t_bool": {
        "encoding": "inplace",
        "label": "bool",
        "numberOfBytes": "1"
      },
      "t_contract(IERC20)863": {
        "encoding": "inplace",
        "label": "contract IERC20",
        "numberOfBytes": "20"
      },
      "t_contract(IUniswapV3Pool)2339": {
        "encoding": "inplace",
        "label": "contract IUniswapV3Pool",
        "numberOfBytes": "20"
      },
      "t_int24": {
        "encoding": "inplace",
        "label": "int24",
        "numberOfBytes": "3"
      },
      "t_mapping(t_address,t_mapping(t_address,t_uint256))": {
        "encoding": "mapping",
        "key": "t_address",
        "label": "mapping(address => mapping(address => uint256))",
        "numberOfBytes": "32",
        "value": "t_mapping(t_address,t_uint256)"
      },
      "t_mapping(t_address,t_uint256)": {
        "encoding": "mapping",
        "key": "t_address",
        "label": "mapping(address => uint256)",
        "numberOfBytes": "32",
        "value": "t_uint256"
      },
      "t_string_storage": {
        "encoding": "bytes",
        "label": "string",
        "numberOfBytes": "32"
      },
      "t_uint16": {
        "encoding": "inplace",
        "label": "uint16",
        "numberOfBytes": "2"
      },
      "t_uint256": {
        "encoding": "inplace",
        "label": "uint256",
        "numberOfBytes": "32"
      },
      "t_uint32": {
        "encoding": "inplace",
        "label": "uint32",
        "numberOfBytes": "4"
      }
    }
  }
}