{
  "address": "0x40637e26ACA023289ACca7737b99A395f4679B19",
  "abi": [
    {
      "inputs": [
        {
          "internalType": "address",
          "name": "_uniswapV3Factory",
          "type": "address"
        }
      ],
      "stateMutability": "nonpayable",
      "type": "constructor"
    },
    {
      "anonymous": false,
      "inputs": [
        {
          "indexed": true,
          "internalType": "address",
          "name": "previousManager",
          "type": "address"
        },
        {
          "indexed": true,
          "internalType": "address",
          "name": "newManager",
          "type": "address"
        }
      ],
      "name": "OwnershipTransferred",
      "type": "event"
    },
    {
      "anonymous": false,
      "inputs": [
        {
          "indexed": true,
          "internalType": "address",
          "name": "uniPool",
          "type": "address"
        },
        {
          "indexed": true,
          "internalType": "address",
          "name": "manager",
          "type": "address"
        },
        {
          "indexed": true,
          "internalType": "address",
          "name": "pool",
          "type": "address"
        }
      ],
      "name": "PoolCreated",
      "type": "event"
    },
    {
      "anonymous": false,
      "inputs": [
        {
          "indexed": false,
          "internalType": "address",
          "name": "previosGelatoDeployer",
          "type": "address"
        },
        {
          "indexed": false,
          "internalType": "address",
          "name": "newGelatoDeployer",
          "type": "address"
        }
      ],
      "name": "UpdateGelatoDeployer",
      "type": "event"
    },
    {
      "anonymous": false,
      "inputs": [
        {
          "indexed": false,
          "internalType": "address",
          "name": "previousImplementation",
          "type": "address"
        },
        {
          "indexed": false,
          "internalType": "address",
          "name": "newImplementation",
          "type": "address"
        }
      ],
      "name": "UpdatePoolImplementation",
      "type": "event"
    },
    {
      "inputs": [
        {
          "internalType": "address",
          "name": "tokenA",
          "type": "address"
        },
        {
          "internalType": "address",
          "name": "tokenB",
          "type": "address"
        },
        {
          "internalType": "uint24",
          "name": "uniFee",
          "type": "uint24"
        },
        {
          "internalType": "uint16",
          "name": "managerFee",
          "type": "uint16"
        },
        {
          "internalType": "int24",
          "name": "lowerTick",
          "type": "int24"
        },
        {
          "internalType": "int24",
          "name": "upperTick",
          "type": "int24"
        }
      ],
      "name": "createPool",
      "outputs": [
        {
          "internalType": "address",
          "name": "pool",
          "type": "address"
        }
      ],
      "stateMutability": "nonpayable",
      "type": "function"
    },
    {
      "inputs": [],
      "name": "factory",
      "outputs": [
        {
          "internalType": "address",
          "name": "",
          "type": "address"
        }
      ],
      "stateMutability": "view",
      "type": "function"
    },
    {
      "inputs": [],
      "name": "gelatoDeployer",
      "outputs": [
        {
          "internalType": "address",
          "name": "",
          "type": "address"
        }
      ],
      "stateMutability": "view",
      "type": "function"
    },
    {
      "inputs": [],
      "name": "getDeployers",
      "outputs": [
        {
          "internalType": "address[]",
          "name": "",
          "type": "address[]"
        }
      ],
      "stateMutability": "view",
      "type": "function"
    },
    {
      "inputs": [],
      "name": "getGelatoPools",
      "outputs": [
        {
          "internalType": "address[]",
          "name": "",
          "type": "address[]"
        }
      ],
      "stateMutability": "view",
      "type": "function"
    },
    {
      "inputs": [
        {
          "internalType": "address",
          "name": "deployer",
          "type": "address"
        }
      ],
      "name": "getPools",
      "outputs": [
        {
          "internalType": "address[]",
          "name": "",
          "type": "address[]"
        }
      ],
      "stateMutability": "view",
      "type": "function"
    },
    {
      "inputs": [
        {
          "internalType": "address",
          "name": "pool",
          "type": "address"
        }
      ],
      "name": "getProxyAdmin",
      "outputs": [
        {
          "internalType": "address",
          "name": "",
          "type": "address"
        }
      ],
      "stateMutability": "view",
      "type": "function"
    },
    {
      "inputs": [
        {
          "internalType": "address",
          "name": "token0",
          "type": "address"
        },
        {
          "internalType": "address",
          "name": "token1",
          "type": "address"
        }
      ],
      "name": "getTokenName",
      "outputs": [
        {
          "internalType": "string",
          "name": "",
          "type": "string"
        }
      ],
      "stateMutability": "view",
      "type": "function"
    },
    {
      "inputs": [
        {
          "internalType": "address",
          "name": "_implementation",
          "type": "address"
        },
        {
          "internalType": "address",
          "name": "_gelatoDeployer",
          "type": "address"
        },
        {
          "internalType": "address",
          "name": "_manager_",
          "type": "address"
        }
      ],
      "name": "initialize",
      "outputs": [],
      "stateMutability": "nonpayable",
      "type": "function"
    },
    {
      "inputs": [
        {
          "internalType": "address",
          "name": "pool",
          "type": "address"
        }
      ],
      "name": "isPoolImmutable",
      "outputs": [
        {
          "internalType": "bool",
          "name": "",
          "type": "bool"
        }
      ],
      "stateMutability": "view",
      "type": "function"
    },
    {
      "inputs": [
        {
          "internalType": "address[]",
          "name": "pools",
          "type": "address[]"
        }
      ],
      "name": "makePoolsImmutable",
      "outputs": [],
      "stateMutability": "nonpayable",
      "type": "function"
    },
    {
      "inputs": [],
      "name": "manager",
      "outputs": [
        {
          "internalType": "address",
          "name": "",
          "type": "address"
        }
      ],
      "stateMutability": "view",
      "type": "function"
    },
    {
      "inputs": [],
      "name": "numDeployers",
      "outputs": [
        {
          "internalType": "uint256",
          "name": "",
          "type": "uint256"
        }
      ],
      "stateMutability": "view",
      "type": "function"
    },
    {
      "inputs": [],
      "name": "numPools",
      "outputs": [
        {
          "internalType": "uint256",
          "name": "result",
          "type": "uint256"
        }
      ],
      "stateMutability": "view",
      "type": "function"
    },
    {
      "inputs": [
        {
          "internalType": "address",
          "name": "deployer",
          "type": "address"
        }
      ],
      "name": "numPools",
      "outputs": [
        {
          "internalType": "uint256",
          "name": "",
          "type": "uint256"
        }
      ],
      "stateMutability": "view",
      "type": "function"
    },
    {
      "inputs": [],
      "name": "poolImplementation",
      "outputs": [
        {
          "internalType": "address",
          "name": "",
          "type": "address"
        }
      ],
      "stateMutability": "view",
      "type": "function"
    },
    {
      "inputs": [],
      "name": "renounceOwnership",
      "outputs": [],
      "stateMutability": "nonpayable",
      "type": "function"
    },
    {
      "inputs": [
        {
          "internalType": "address",
          "name": "nextGelatoDeployer",
          "type": "address"
        }
      ],
      "name": "setGelatoDeployer",
      "outputs": [],
      "stateMutability": "nonpayable",
      "type": "function"
    },
    {
      "inputs": [
        {
          "internalType": "address",
          "name": "nextImplementation",
          "type": "address"
        }
      ],
      "name": "setPoolImplementation",
      "outputs": [],
      "stateMutability": "nonpayable",
      "type": "function"
    },
    {
      "inputs": [
        {
          "internalType": "address",
          "name": "newOwner",
          "type": "address"
        }
      ],
      "name": "transferOwnership",
      "outputs": [],
      "stateMutability": "nonpayable",
      "type": "function"
    },
    {
      "inputs": [
        {
          "internalType": "address[]",
          "name": "pools",
          "type": "address[]"
        }
      ],
      "name": "upgradePools",
      "outputs": [],
      "stateMutability": "nonpayable",
      "type": "function"
    },
    {
      "inputs": [
        {
          "internalType": "address[]",
          "name": "pools",
          "type": "address[]"
        },
        {
          "internalType": "bytes[]",
          "name": "datas",
          "type": "bytes[]"
        }
      ],
      "name": "upgradePoolsAndCall",
      "outputs": [],
      "stateMutability": "nonpayable",
      "type": "function"
    },
    {
      "inputs": [],
      "name": "version",
      "outputs": [
        {
          "internalType": "string",
          "name": "",
          "type": "string"
        }
      ],
      "stateMutability": "view",
      "type": "function"
    }
  ],
  "transactionHash": "0x3d5d85d7e3a5e5c82166c7f093a3186842e6705c2a9901c2f336591f8ad4f3d0",
  "args": [
    "0x1F98431c8aD98523631AE4a59f267346ea31F984"
  ],
  "solcInputHash": "869261aeb304b707d80e5edda679e3aa",
  "bytecode": "0x60a060405234801561001057600080fd5b506040516125c23803806125c283398101604081905261002f91610044565b60601b6001600160601b031916608052610072565b600060208284031215610055578081fd5b81516001600160a01b038116811461006b578182fd5b9392505050565b60805160601c61252b610097600039600081816102ef0152610981015261252b6000f3fe60806040523480156200001157600080fd5b5060043610620001365760003560e01c806308893328146200013b578063098eddb114620001545780630dfc574b1462000171578063260fc2b8146200018857806335c62bc2146200019f57806340aee04114620001a957806342f5de9914620001c0578063481c6a7514620001d7578063483248ca14620001f057806354fd4d501462000207578063562b8103146200023b5780635c39f4671462000254578063607c12b5146200026b578063715018a6146200027557806386238765146200027f57806395d807f11462000293578063bd30dfb914620002bb578063c0c53b8b14620002d2578063c45a015514620002e9578063cefa77991462000311578063d6f748981462000325578063f2fde38b146200033c578063f3b7dead1462000353575b600080fd5b620001526200014c3660046200150b565b6200036a565b005b6200015e62000412565b6040519081526020015b60405180910390f35b6200015262000182366004620016a8565b62000425565b62000152620001993660046200166a565b620005a5565b6200015e6200068b565b62000152620001ba3660046200166a565b62000702565b6200015e620001d13660046200150b565b620007ec565b620001e162000815565b60405162000168919062001880565b620001e162000201366004620015d7565b62000824565b6200022c604051806040016040528060058152602001640312e302e360dc1b81525081565b6040516200016891906200193d565b6200024562000b40565b604051620001689190620018ee565b62000245620002653660046200150b565b62000b55565b6200024562000c2a565b6200015262000cfc565b600254620001e1906001600160a01b031681565b620002aa620002a43660046200150b565b62000d69565b604051901515815260200162000168565b6200022c620002cc36600462001549565b62000d86565b62000152620002e336600462001586565b62000ef5565b620001e17f000000000000000000000000000000000000000000000000000000000000000081565b600154620001e1906001600160a01b031681565b62000152620003363660046200150b565b62000fff565b620001526200034d3660046200150b565b6200109e565b620001e1620003643660046200150b565b62001185565b336200037562000815565b6001600160a01b031614620003a75760405162461bcd60e51b81526004016200039e90620019c7565b60405180910390fd5b6002546040517fb316078581b0eaf0714b47d13192560506acc3e23b5bf3b72d27248f173c908591620003e8916001600160a01b0390911690849062001894565b60405180910390a1600280546001600160a01b0319166001600160a01b0392909216919091179055565b6000620004206003620011fc565b905090565b336200043062000815565b6001600160a01b031614620004595760405162461bcd60e51b81526004016200039e90620019c7565b82518114620004a65760405162461bcd60e51b81526020600482015260186024820152770dad2e6dac2e8c6d0d2dcce40c2e4e4c2f240d8cadccee8d60431b60448201526064016200039e565b60005b83518110156200059f57838181518110620004d457634e487b7160e01b600052603260045260246000fd5b60200260200101516001600160a01b0316634f1ef286600160009054906101000a90046001600160a01b03168585858181106200052157634e487b7160e01b600052603260045260246000fd5b905060200281019062000535919062001a09565b6040518463ffffffff1660e01b81526004016200055593929190620018ae565b600060405180830381600087803b1580156200057057600080fd5b505af115801562000585573d6000803e3d6000fd5b505050508080620005969062001acd565b915050620004a9565b50505050565b33620005b062000815565b6001600160a01b031614620005d95760405162461bcd60e51b81526004016200039e90620019c7565b60005b815181101562000687578181815181106200060757634e487b7160e01b600052603260045260246000fd5b60200260200101516001600160a01b0316638356ca4f60006040518263ffffffff1660e01b81526004016200063d919062001880565b600060405180830381600087803b1580156200065857600080fd5b505af11580156200066d573d6000803e3d6000fd5b5050505080806200067e9062001acd565b915050620005dc565b5050565b6000806200069862000c2a565b905060005b8151811015620006fd57620006da828281518110620006cc57634e487b7160e01b600052603260045260246000fd5b6020026020010151620007ec565b620006e6908462001a83565b925080620006f48162001acd565b9150506200069d565b505090565b336200070d62000815565b6001600160a01b031614620007365760405162461bcd60e51b81526004016200039e90620019c7565b60005b815181101562000687578181815181106200076457634e487b7160e01b600052603260045260246000fd5b6020908102919091010151600154604051631b2ce7f360e11b81526001600160a01b0392831692633659cfe692620007a29291169060040162001880565b600060405180830381600087803b158015620007bd57600080fd5b505af1158015620007d2573d6000803e3d6000fd5b505050508080620007e39062001acd565b91505062000739565b6001600160a01b03811660009081526005602052604081206200080f90620011fc565b92915050565b6000546001600160a01b031690565b600080600062000835898962001207565b6001546040519294509092506001600160a01b031690309062000858906200144f565b6001600160a01b03928316815291166020820152606060408201819052600090820152608001604051809103906000f0801580156200089b573d6000803e3d6000fd5b506040805180820182526011815270047656c61746f20556e6973776170204c5607c1b6020820152905163bd30dfb960e01b815291945090309063bd30dfb990620008ed908690869060040162001894565b60006040518083038186803b1580156200090657600080fd5b505afa9250505080156200093e57506040513d6000823e601f3d908101601f191682016040526200093b919081019062001743565b60015b62000949576200094c565b90505b604051630b4c774160e11b81526001600160a01b038481166004830152838116602483015262ffffff8a1660448301526000917f000000000000000000000000000000000000000000000000000000000000000090911690631698ee829060640160206040518083038186803b158015620009c657600080fd5b505afa158015620009db573d6000803e3d6000fd5b505050506040513d601f19601f8201168201806040525081019062000a0191906200152a565b90506001600160a01b03811662000a595760405162461bcd60e51b815260206004820152601b60248201527a1d5b9a5cddd85c081c1bdbdb08191bd95cc81b9bdd08195e1a5cdd602a1b60448201526064016200039e565b60405163e25e15e360e01b81526001600160a01b0386169063e25e15e39062000a9190859085908d908d908d90339060040162001952565b600060405180830381600087803b15801562000aac57600080fd5b505af115801562000ac1573d6000803e3d6000fd5b5050505062000adb336003620012d690919063ffffffff16565b5033600090815260056020526040902062000af79086620012d6565b506040516001600160a01b038087169133918416907f9c5d829b9b23efc461f9aeef91979ec04bb903feb3bee4f26d22114abfc7335b90600090a4505050509695505050505050565b60025460609062000420906001600160a01b03165b6060600062000b6483620007ec565b90506000816001600160401b0381111562000b8f57634e487b7160e01b600052604160045260246000fd5b60405190808252806020026020018201604052801562000bb9578160200160208202803683370190505b50905060005b8281101562000c225762000bd48582620012f4565b82828151811062000bf557634e487b7160e01b600052603260045260246000fd5b6001600160a01b03909216602092830291909101909101528062000c198162001acd565b91505062000bbf565b509392505050565b6060600062000c3862000412565b90506000816001600160401b0381111562000c6357634e487b7160e01b600052604160045260246000fd5b60405190808252806020026020018201604052801562000c8d578160200160208202803683370190505b50905060005b8281101562000cf55762000ca78162001318565b82828151811062000cc857634e487b7160e01b600052603260045260246000fd5b6001600160a01b03909216602092830291909101909101528062000cec8162001acd565b91505062000c93565b5092915050565b3362000d0762000815565b6001600160a01b03161462000d305760405162461bcd60e51b81526004016200039e90620019c7565b600080546040516001600160a01b0390911690600080516020620024d6833981519152908390a3600080546001600160a01b0319169055565b600062000d768262001185565b6001600160a01b03161592915050565b60606000836001600160a01b03166395d89b416040518163ffffffff1660e01b815260040160006040518083038186803b15801562000dc457600080fd5b505afa15801562000dd9573d6000803e3d6000fd5b505050506040513d6000823e601f3d908101601f1916820160405262000e03919081019062001743565b90506000836001600160a01b03166395d89b416040518163ffffffff1660e01b815260040160006040518083038186803b15801562000e4157600080fd5b505afa15801562000e56573d6000803e3d6000fd5b505050506040513d6000823e601f3d908101601f1916820160405262000e80919081019062001743565b905062000eec6040518060400160405280600f81526020016e023b2b630ba37902ab734b9bbb0b81608d1b81525083604051806040016040528060018152602001602f60f81b81525084604051806040016040528060038152602001620204c560ec1b81525062001327565b95945050505050565b600054600160a81b900460ff168062000f185750600054600160a01b900460ff16155b62000f7d5760405162461bcd60e51b815260206004820152602e60248201527f496e697469616c697a61626c653a20636f6e747261637420697320616c72656160448201526d191e481a5b9a5d1a585b1a5e995960921b60648201526084016200039e565b600054600160a81b900460ff1615801562000fa8576000805461ffff60a01b191661010160a01b1790555b600180546001600160a01b038087166001600160a01b03199283161790925560028054868416908316179055600080549285169290911691909117905580156200059f576000805460ff60a81b1916905550505050565b336200100a62000815565b6001600160a01b031614620010335760405162461bcd60e51b81526004016200039e90620019c7565b6001546040517f0617fd31aa5ab95ec80eefc1eb61a2c477aa419d1d761b4e46f5f077e47852aa9162001074916001600160a01b0390911690849062001894565b60405180910390a1600180546001600160a01b0319166001600160a01b0392909216919091179055565b33620010a962000815565b6001600160a01b031614620010d25760405162461bcd60e51b81526004016200039e90620019c7565b6001600160a01b0381166200113b5760405162461bcd60e51b815260206004820152602860248201527f4f776e61626c653a206e6577206d616e6167657220697320746865207a65726f604482015267206164647265737360c01b60648201526084016200039e565b600080546040516001600160a01b0380851693921691600080516020620024d683398151915291a3600080546001600160a01b0319166001600160a01b0392909216919091179055565b6000816001600160a01b0316633e47158c6040518163ffffffff1660e01b815260040160206040518083038186803b158015620011c157600080fd5b505afa158015620011d6573d6000803e3d6000fd5b505050506040513d601f19601f820116820180604052508101906200080f91906200152a565b60006200080f825490565b600080826001600160a01b0316846001600160a01b031614156200125b5760405162461bcd60e51b815260206004820152600a60248201526939b0b6b2903a37b5b2b760b11b60448201526064016200039e565b826001600160a01b0316846001600160a01b0316106200127d57828462001280565b83835b90925090506001600160a01b038216620012cf5760405162461bcd60e51b815260206004820152600f60248201526e6e6f2061646472657373207a65726f60881b60448201526064016200039e565b9250929050565b6000620012ed836001600160a01b0384166200135e565b9392505050565b6001600160a01b0382166000908152600560205260408120620012ed9083620013b0565b60006200080f600383620013b0565b60608585858585604051602001620013449594939291906200180b565b604051602081830303815290604052905095945050505050565b6000818152600183016020526040812054620013a7575081546001818101845560008481526020808220909301849055845484825282860190935260409020919091556200080f565b5060006200080f565b6000620012ed838381546000908210620014185760405162461bcd60e51b815260206004820152602260248201527f456e756d657261626c655365743a20696e646578206f7574206f6620626f756e604482015261647360f01b60648201526084016200039e565b8260000182815481106200143c57634e487b7160e01b600052603260045260246000fd5b9060005260206000200154905092915050565b6109a58062001b3183390190565b600082601f8301126200146e578081fd5b813560206001600160401b038211156200148c576200148c62001b01565b8160051b6200149d82820162001a50565b838152828101908684018388018501891015620014b8578687fd5b8693505b85841015620014e7578035620014d28162001b17565b835260019390930192918401918401620014bc565b50979650505050505050565b8035600281900b81146200150657600080fd5b919050565b6000602082840312156200151d578081fd5b8135620012ed8162001b17565b6000602082840312156200153c578081fd5b8151620012ed8162001b17565b600080604083850312156200155c578081fd5b8235620015698162001b17565b915060208301356200157b8162001b17565b809150509250929050565b6000806000606084860312156200159b578081fd5b8335620015a88162001b17565b92506020840135620015ba8162001b17565b91506040840135620015cc8162001b17565b809150509250925092565b60008060008060008060c08789031215620015f0578182fd5b8635620015fd8162001b17565b955060208701356200160f8162001b17565b9450604087013562ffffff8116811462001627578283fd5b9350606087013561ffff811681146200163e578283fd5b92506200164e60808801620014f3565b91506200165e60a08801620014f3565b90509295509295509295565b6000602082840312156200167c578081fd5b81356001600160401b0381111562001692578182fd5b620016a0848285016200145d565b949350505050565b600080600060408486031215620016bd578283fd5b83356001600160401b0380821115620016d4578485fd5b620016e2878388016200145d565b94506020860135915080821115620016f8578384fd5b818601915086601f8301126200170c578384fd5b8135818111156200171b578485fd5b8760208260051b850101111562001730578485fd5b6020830194508093505050509250925092565b60006020828403121562001755578081fd5b81516001600160401b03808211156200176c578283fd5b818401915084601f83011262001780578283fd5b81518181111562001795576200179562001b01565b620017aa601f8201601f191660200162001a50565b9150808252856020828501011115620017c1578384fd5b620017d481602084016020860162001a9e565b50949350505050565b60008151808452620017f781602086016020860162001a9e565b601f01601f19169290920160200192915050565b600086516200181f818460208b0162001a9e565b86519083019062001835818360208b0162001a9e565b86519101906200184a818360208a0162001a9e565b85519101906200185f81836020890162001a9e565b84519101906200187481836020880162001a9e565b01979650505050505050565b6001600160a01b0391909116815260200190565b6001600160a01b0392831681529116602082015260400190565b6001600160a01b03841681526040602082018190528101829052818360608301376000818301606090810191909152601f909201601f1916010192915050565b6020808252825182820181905260009190848201906040850190845b81811015620019315783516001600160a01b0316835292840192918401916001016200190a565b50909695505050505050565b602081526000620012ed6020830184620017dd565b60e0815260006200196760e0830189620017dd565b82810360208401526005815264472d554e4960d81b60208201526040810191505060018060a01b03808816604084015261ffff871660608401528560020b60808401528460020b60a084015280841660c084015250979650505050505050565b60208082526022908201527f4f776e61626c653a2063616c6c6572206973206e6f7420746865206d616e616760408201526132b960f11b606082015260800190565b6000808335601e1984360301811262001a20578283fd5b8301803591506001600160401b0382111562001a3a578283fd5b602001915036819003821315620012cf57600080fd5b604051601f8201601f191681016001600160401b038111828210171562001a7b5762001a7b62001b01565b604052919050565b6000821982111562001a995762001a9962001aeb565b500190565b60005b8381101562001abb57818101518382015260200162001aa1565b838111156200059f5750506000910152565b600060001982141562001ae45762001ae462001aeb565b5060010190565b634e487b7160e01b600052601160045260246000fd5b634e487b7160e01b600052604160045260246000fd5b6001600160a01b038116811462001b2d57600080fd5b5056fe60806040526040516109a53803806109a5833981016040819052610022916101a4565b61002c838261003d565b61003582610119565b5050506102ce565b7f360894a13ba1a3210667c828492db98dca3e2076cc3735a920a3ca505d382bbc8054908390556040516001600160a01b0380851691908316907f5570d70a002632a7b0b3c9304cc89efb62d8da9eca0dbd7752c83b737906829690600090a3815115610114576000836001600160a01b0316836040516100be9190610270565b600060405180830381855af49150503d80600081146100f9576040519150601f19603f3d011682016040523d82523d6000602084013e6100fe565b606091505b5050905080610112573d806000803e806000fd5b505b505050565b60006101316000805160206109858339815191525490565b90508160008051602061098583398151915255816001600160a01b0316816001600160a01b03167fdf435d422321da6b195902d70fc417c06a32f88379c20dd8f2a8da07088cec2960405160405180910390a35050565b80516001600160a01b038116811461019f57600080fd5b919050565b6000806000606084860312156101b8578283fd5b6101c184610188565b92506101cf60208501610188565b60408501519092506001600160401b03808211156101eb578283fd5b818601915086601f8301126101fe578283fd5b815181811115610210576102106102b8565b604051601f8201601f19908116603f01168101908382118183101715610238576102386102b8565b81604052828152896020848701011115610250578586fd5b61026183602083016020880161028c565b80955050505050509250925092565b6000825161028281846020870161028c565b9190910192915050565b60005b838110156102a757818101518382015260200161028f565b838111156101125750506000910152565b634e487b7160e01b600052604160045260246000fd5b6106a8806102dd6000396000f3fe60806040526004361061004e5760003560e01c806301ffc9a71461009b5780633659cfe6146100d05780633e47158c146100f05780634f1ef2861461011d5780638356ca4f1461013057610091565b366100915760405162461bcd60e51b815260206004820152600e60248201526d115512115497d491529150d5115160921b60448201526064015b60405180910390fd5b610099610150565b005b3480156100a757600080fd5b506100bb6100b63660046105a9565b610189565b60405190151581526020015b60405180910390f35b3480156100dc57600080fd5b506100996100eb3660046104f2565b61027e565b3480156100fc57600080fd5b506101056102d2565b6040516001600160a01b0390911681526020016100c7565b61009961012b36600461050c565b6102e1565b34801561013c57600080fd5b5061009961014b3660046104f2565b61035e565b6000805160206106538339815191525460003681823780813683855af491503d8082833e82801561017f578183f35b8183fd5b50505050565b60006301ffc9a760e01b6001600160e01b0319831614806101ba57506307f5828d60e41b6001600160e01b03198316145b156101c757506001919050565b6001600160e01b031980831614156101e157506000919050565b600080516020610653833981519152546040516301ffc9a760e01b81526001600160e01b0319841660048201526001600160a01b038216906301ffc9a79060240160206040518083038186803b15801561023a57600080fd5b505afa92505050801561026a575060408051601f3d908101601f1916820190925261026791810190610589565b60015b6102775750600092915050565b9392505050565b61028661039f565b6001600160a01b0316336001600160a01b0316146102b65760405162461bcd60e51b81526004016100889061060a565b6102cf81604051806020016040528060008152506103b2565b50565b60006102dc61039f565b905090565b6102e961039f565b6001600160a01b0316336001600160a01b0316146103195760405162461bcd60e51b81526004016100889061060a565b6103598383838080601f0160208091040260200160405190810160405280939291908181526020018383808284376000920191909152506103b292505050565b505050565b61036661039f565b6001600160a01b0316336001600160a01b0316146103965760405162461bcd60e51b81526004016100889061060a565b6102cf81610475565b6000805160206106338339815191525490565b6000805160206106538339815191528054908390556040516001600160a01b0380851691908316907f5570d70a002632a7b0b3c9304cc89efb62d8da9eca0dbd7752c83b737906829690600090a3815115610359576000836001600160a01b03168360405161042191906105d1565b600060405180830381855af49150503d806000811461045c576040519150601f19603f3d011682016040523d82523d6000602084013e610461565b606091505b5050905080610183573d806000803e806000fd5b600061047f61039f565b90508160008051602061063383398151915255816001600160a01b0316816001600160a01b03167fdf435d422321da6b195902d70fc417c06a32f88379c20dd8f2a8da07088cec2960405160405180910390a35050565b80356001600160a01b03811681146104ed57600080fd5b919050565b600060208284031215610503578081fd5b610277826104d6565b600080600060408486031215610520578182fd5b610529846104d6565b925060208401356001600160401b0380821115610544578384fd5b818601915086601f830112610557578384fd5b813581811115610565578485fd5b876020828501011115610576578485fd5b6020830194508093505050509250925092565b60006020828403121561059a578081fd5b81518015158114610277578182fd5b6000602082840312156105ba578081fd5b81356001600160e01b031981168114610277578182fd5b60008251815b818110156105f157602081860181015185830152016105d7565b818111156105ff5782828501525b509190910192915050565b6020808252600e908201526d1393d517d055551213d49256915160921b60408201526060019056feb53127684a568b3173ae13b9f8a6016e243e63b6e8ee1178d6a717850b5d6103360894a13ba1a3210667c828492db98dca3e2076cc3735a920a3ca505d382bbca2646970667358221220730effc08e7ae1c19f69ae08dd52de483b649ded49db9428e4ced9875431474364736f6c63430008040033b53127684a568b3173ae13b9f8a6016e243e63b6e8ee1178d6a717850b5d61038be0079c531659141344cd1fd0a4f28419497f9722a3daafe3b4186f6b6457e0a2646970667358221220fd0e5804e7aefeeb0f059ca3dc4c86f4da48cbb855b0820c8aa0c217e946778964736f6c63430008040033",
  "devdoc": {
    "kind": "dev",
    "methods": {
      "createPool(address,address,uint24,uint16,int24,int24)": {
        "params": {
          "lowerTick": "initial lower bound of the Uniswap V3 position",
          "managerFee": "proportion of earned fees that go to pool manager in Basis Points",
          "tokenA": "one of the tokens in the uniswap pair",
          "tokenB": "the other token in the uniswap pair",
          "uniFee": "fee tier of the uniswap pair",
          "upperTick": "initial upper bound of the Uniswap V3 position"
        },
        "returns": {
          "pool": "the address of the newly created G-UNI pool (proxy)"
        }
      },
      "getDeployers()": {
        "returns": {
          "_0": "deployers the list of deployer addresses"
        }
      },
      "getGelatoPools()": {
        "returns": {
          "_0": "list of Gelato managed G-UNI pool addresses"
        }
      },
      "getPools(address)": {
        "params": {
          "deployer": "address that has potentially deployed G-UNI pools (can return empty array)"
        },
        "returns": {
          "_0": "pools the list of G-UNI pool addresses deployed by `deployer`"
        }
      },
      "getProxyAdmin(address)": {
        "params": {
          "pool": "address of the G-UNI pool"
        },
        "returns": {
          "_0": "address that controls the G-UNI implementation (has power to upgrade it)"
        }
      },
      "isPoolImmutable(address)": {
        "params": {
          "pool": "address of the G-UNI pool"
        },
        "returns": {
          "_0": "bool signaling if pool is immutable (true) or not (false)"
        }
      },
      "manager()": {
        "details": "Returns the address of the current manager."
      },
      "numDeployers()": {
        "returns": {
          "_0": "total number of G-UNI pool deployer addresses"
        }
      },
      "numPools()": {
        "returns": {
          "result": "total number of G-UNI pools deployed"
        }
      },
      "numPools(address)": {
        "params": {
          "deployer": "deployer address"
        },
        "returns": {
          "_0": "total number of G-UNI pools deployed by `deployer`"
        }
      },
      "renounceOwnership()": {
        "details": "Leaves the contract without manager. It will not be possible to call `onlyManager` functions anymore. Can only be called by the current manager. NOTE: Renouncing ownership will leave the contract without an manager, thereby removing any functionality that is only available to the manager."
      },
      "transferOwnership(address)": {
        "details": "Transfers ownership of the contract to a new account (`newOwner`). Can only be called by the current manager."
      }
    },
    "version": 1
  },
  "userdoc": {
    "kind": "user",
    "methods": {
      "createPool(address,address,uint24,uint16,int24,int24)": {
        "notice": "createPool creates a new instance of a G-UNI token on a specified UniswapV3 pool. The msg.sender is the initial manager of the pool and will forever be associated with the G-UNI pool as it's `deployer`"
      },
      "getDeployers()": {
        "notice": "getDeployers fetches all addresses that have deployed a G-UNI pool"
      },
      "getGelatoPools()": {
        "notice": "getGelatoPools gets all the G-UNI pools deployed by Gelato's default deployer address (since anyone can deploy and manage G-UNI pools)"
      },
      "getPools(address)": {
        "notice": "getPools fetches all the G-UNI pool addresses deployed by `deployer`"
      },
      "getProxyAdmin(address)": {
        "notice": "getProxyAdmin gets the current address who controls the underlying implementation of a G-UNI pool. For most all pools either this contract address or the zero address will be the proxyAdmin. If the admin is the zero address the pool's implementation is naturally no longer upgradable (no one owns the zero address)."
      },
      "isPoolImmutable(address)": {
        "notice": "isPoolImmutable checks if a certain G-UNI pool is \"immutable\" i.e. that the proxyAdmin is the zero address and thus the underlying implementation cannot be upgraded"
      },
      "numDeployers()": {
        "notice": "numDeployers counts the total number of G-UNI pool deployer addresses"
      },
      "numPools()": {
        "notice": "numPools counts the total number of G-UNI pools in existence"
      },
      "numPools(address)": {
        "notice": "numPools counts the total number of G-UNI pools deployed by `deployer`"
      }
    },
    "version": 1
  },
  "storageLayout": {
    "storage": [
      {
        "astId": 6311,
        "contract": "contracts/GUniFactory.sol:GUniFactory",
        "label": "_manager",
        "offset": 0,
        "slot": "0",
        "type": "t_address"
      },
      {
        "astId": 5,
        "contract": "contracts/GUniFactory.sol:GUniFactory",
        "label": "_initialized",
        "offset": 20,
        "slot": "0",
        "type": "t_bool"
      },
      {
        "astId": 8,
        "contract": "contracts/GUniFactory.sol:GUniFactory",
        "label": "_initializing",
        "offset": 21,
        "slot": "0",
        "type": "t_bool"
      },
      {
        "astId": 5779,
        "contract": "contracts/GUniFactory.sol:GUniFactory",
        "label": "poolImplementation",
        "offset": 0,
        "slot": "1",
        "type": "t_address"
      },
      {
        "astId": 5781,
        "contract": "contracts/GUniFactory.sol:GUniFactory",
        "label": "gelatoDeployer",
        "offset": 0,
        "slot": "2",
        "type": "t_address"
      },
      {
        "astId": 5784,
        "contract": "contracts/GUniFactory.sol:GUniFactory",
        "label": "_deployers",
        "offset": 0,
        "slot": "3",
        "type": "t_struct(AddressSet)2007_storage"
      },
      {
        "astId": 5789,
        "contract": "contracts/GUniFactory.sol:GUniFactory",
        "label": "_pools",
        "offset": 0,
        "slot": "5",
        "type": "t_mapping(t_address,t_struct(AddressSet)2007_storage)"
      }
    ],
    "types": {
      "t_address": {
        "encoding": "inplace",
        "label": "address",
        "numberOfBytes": "20"
      },
      "t_array(t_bytes32)dyn_storage": {
        "base": "t_bytes32",
        "encoding": "dynamic_array",
        "label": "bytes32[]",
        "numberOfBytes": "32"
      },
      "t_bool": {
        "encoding": "inplace",
        "label": "bool",
        "numberOfBytes": "1"
      },
      "t_bytes32": {
        "encoding": "inplace",
        "label": "bytes32",
        "numberOfBytes": "32"
      },
      "t_mapping(t_address,t_struct(AddressSet)2007_storage)": {
        "encoding": "mapping",
        "key": "t_address",
        "label": "mapping(address => struct EnumerableSet.AddressSet)",
        "numberOfBytes": "32",
        "value": "t_struct(AddressSet)2007_storage"
      },
      "t_mapping(t_bytes32,t_uint256)": {
        "encoding": "mapping",
        "key": "t_bytes32",
        "label": "mapping(bytes32 => uint256)",
        "numberOfBytes": "32",
        "value": "t_uint256"
      },
      "t_struct(AddressSet)2007_storage": {
        "encoding": "inplace",
        "label": "struct EnumerableSet.AddressSet",
        "members": [
          {
            "astId": 2006,
            "contract": "contracts/GUniFactory.sol:GUniFactory",
            "label": "_inner",
            "offset": 0,
            "slot": "0",
            "type": "t_struct(Set)1732_storage"
          }
        ],
        "numberOfBytes": "64"
      },
      "t_struct(Set)1732_storage": {
        "encoding": "inplace",
        "label": "struct EnumerableSet.Set",
        "members": [
          {
            "astId": 1727,
            "contract": "contracts/GUniFactory.sol:GUniFactory",
            "label": "_values",
            "offset": 0,
            "slot": "0",
            "type": "t_array(t_bytes32)dyn_storage"
          },
          {
            "astId": 1731,
            "contract": "contracts/GUniFactory.sol:GUniFactory",
            "label": "_indexes",
            "offset": 0,
            "slot": "1",
            "type": "t_mapping(t_bytes32,t_uint256)"
          }
        ],
        "numberOfBytes": "64"
      },
      "t_uint256": {
        "encoding": "inplace",
        "label": "uint256",
        "numberOfBytes": "32"
      }
    }
  }
}