{
  "address": "0x399cFce1F3f5AB74C46d9F0361BE18f87c23FCC3",
  "abi": [
    {
      "inputs": [
        {
          "internalType": "address",
          "name": "implementationAddress",
          "type": "address"
        },
        {
          "internalType": "address",
          "name": "ownerAddress",
          "type": "address"
        },
        {
          "internalType": "bytes",
          "name": "data",
          "type": "bytes"
        }
      ],
      "stateMutability": "payable",
      "type": "constructor"
    },
    {
      "anonymous": false,
      "inputs": [
        {
          "indexed": true,
          "internalType": "address",
          "name": "previousAdmin",
          "type": "address"
        },
        {
          "indexed": true,
          "internalType": "address",
          "name": "newAdmin",
          "type": "address"
        }
      ],
      "name": "ProxyAdminTransferred",
      "type": "event"
    },
    {
      "anonymous": false,
      "inputs": [
        {
          "indexed": true,
          "internalType": "address",
          "name": "previousImplementation",
          "type": "address"
        },
        {
          "indexed": true,
          "internalType": "address",
          "name": "newImplementation",
          "type": "address"
        }
      ],
      "name": "ProxyImplementationUpdated",
      "type": "event"
    },
    {
      "stateMutability": "payable",
      "type": "fallback"
    },
    {
      "inputs": [],
      "name": "proxyAdmin",
      "outputs": [
        {
          "internalType": "address",
          "name": "",
          "type": "address"
        }
      ],
      "stateMutability": "view",
      "type": "function"
    },
    {
      "inputs": [
        {
          "internalType": "bytes4",
          "name": "id",
          "type": "bytes4"
        }
      ],
      "name": "supportsInterface",
      "outputs": [
        {
          "internalType": "bool",
          "name": "",
          "type": "bool"
        }
      ],
      "stateMutability": "view",
      "type": "function"
    },
    {
      "inputs": [
        {
          "internalType": "address",
          "name": "newAdmin",
          "type": "address"
        }
      ],
      "name": "transferProxyAdmin",
      "outputs": [],
      "stateMutability": "nonpayable",
      "type": "function"
    },
    {
      "inputs": [
        {
          "internalType": "address",
          "name": "newImplementation",
          "type": "address"
        }
      ],
      "name": "upgradeTo",
      "outputs": [],
      "stateMutability": "nonpayable",
      "type": "function"
    },
    {
      "inputs": [
        {
          "internalType": "address",
          "name": "newImplementation",
          "type": "address"
        },
        {
          "internalType": "bytes",
          "name": "data",
          "type": "bytes"
        }
      ],
      "name": "upgradeToAndCall",
      "outputs": [],
      "stateMutability": "payable",
      "type": "function"
    },
    {
      "stateMutability": "payable",
      "type": "receive"
    }
  ],
  "transactionHash": "0xa570d7471be911c90418ac42d008e3740d7c987df8566c14e13cdb00b85be56b",
  "args": [
    "0x40637e26ACA023289ACca7737b99A395f4679B19",
    "0x4B5BaD436CcA8df3bD39A095b84991fAc9A226F1",
    "0x"
  ],
  "solcInputHash": "869261aeb304b707d80e5edda679e3aa",
  "bytecode": "0x6080604052604051610978380380610978833981016040819052610022916101aa565b82828261002f8382610043565b6100388261011f565b5050505050506102d4565b7f360894a13ba1a3210667c828492db98dca3e2076cc3735a920a3ca505d382bbc8054908390556040516001600160a01b0380851691908316907f5570d70a002632a7b0b3c9304cc89efb62d8da9eca0dbd7752c83b737906829690600090a381511561011a576000836001600160a01b0316836040516100c49190610276565b600060405180830381855af49150503d80600081146100ff576040519150601f19603f3d011682016040523d82523d6000602084013e610104565b606091505b5050905080610118573d806000803e806000fd5b505b505050565b60006101376000805160206109588339815191525490565b90508160008051602061095883398151915255816001600160a01b0316816001600160a01b03167fdf435d422321da6b195902d70fc417c06a32f88379c20dd8f2a8da07088cec2960405160405180910390a35050565b80516001600160a01b03811681146101a557600080fd5b919050565b6000806000606084860312156101be578283fd5b6101c78461018e565b92506101d56020850161018e565b60408501519092506001600160401b03808211156101f1578283fd5b818601915086601f830112610204578283fd5b815181811115610216576102166102be565b604051601f8201601f19908116603f0116810190838211818310171561023e5761023e6102be565b81604052828152896020848701011115610256578586fd5b610267836020830160208801610292565b80955050505050509250925092565b60008251610288818460208701610292565b9190910192915050565b60005b838110156102ad578181015183820152602001610295565b838111156101185750506000910152565b634e487b7160e01b600052604160045260246000fd5b610675806102e36000396000f3fe60806040526004361061004e5760003560e01c806301ffc9a71461005f5780633659cfe6146100945780633e47158c146100b45780634f1ef286146100e15780638356ca4f146100f457610055565b3661005557005b61005d610114565b005b34801561006b57600080fd5b5061007f61007a366004610576565b61014d565b60405190151581526020015b60405180910390f35b3480156100a057600080fd5b5061005d6100af3660046104bf565b610242565b3480156100c057600080fd5b506100c961029f565b6040516001600160a01b03909116815260200161008b565b61005d6100ef3660046104d9565b6102ae565b34801561010057600080fd5b5061005d61010f3660046104bf565b61032b565b6000805160206106208339815191525460003681823780813683855af491503d8082833e828015610143578183f35b8183fd5b50505050565b60006301ffc9a760e01b6001600160e01b03198316148061017e57506307f5828d60e41b6001600160e01b03198316145b1561018b57506001919050565b6001600160e01b031980831614156101a557506000919050565b600080516020610620833981519152546040516301ffc9a760e01b81526001600160e01b0319841660048201526001600160a01b038216906301ffc9a79060240160206040518083038186803b1580156101fe57600080fd5b505afa92505050801561022e575060408051601f3d908101601f1916820190925261022b91810190610556565b60015b61023b5750600092915050565b9392505050565b61024a61036c565b6001600160a01b0316336001600160a01b0316146102835760405162461bcd60e51b815260040161027a906105d7565b60405180910390fd5b61029c816040518060200160405280600081525061037f565b50565b60006102a961036c565b905090565b6102b661036c565b6001600160a01b0316336001600160a01b0316146102e65760405162461bcd60e51b815260040161027a906105d7565b6103268383838080601f01602080910402602001604051908101604052809392919081815260200183838082843760009201919091525061037f92505050565b505050565b61033361036c565b6001600160a01b0316336001600160a01b0316146103635760405162461bcd60e51b815260040161027a906105d7565b61029c81610442565b6000805160206106008339815191525490565b6000805160206106208339815191528054908390556040516001600160a01b0380851691908316907f5570d70a002632a7b0b3c9304cc89efb62d8da9eca0dbd7752c83b737906829690600090a3815115610326576000836001600160a01b0316836040516103ee919061059e565b600060405180830381855af49150503d8060008114610429576040519150601f19603f3d011682016040523d82523d6000602084013e61042e565b606091505b5050905080610147573d806000803e806000fd5b600061044c61036c565b90508160008051602061060083398151915255816001600160a01b0316816001600160a01b03167fdf435d422321da6b195902d70fc417c06a32f88379c20dd8f2a8da07088cec2960405160405180910390a35050565b80356001600160a01b03811681146104ba57600080fd5b919050565b6000602082840312156104d0578081fd5b61023b826104a3565b6000806000604084860312156104ed578182fd5b6104f6846104a3565b925060208401356001600160401b0380821115610511578384fd5b818601915086601f830112610524578384fd5b813581811115610532578485fd5b876020828501011115610543578485fd5b6020830194508093505050509250925092565b600060208284031215610567578081fd5b8151801515811461023b578182fd5b600060208284031215610587578081fd5b81356001600160e01b03198116811461023b578182fd5b60008251815b818110156105be57602081860181015185830152016105a4565b818111156105cc5782828501525b509190910192915050565b6020808252600e908201526d1393d517d055551213d49256915160921b60408201526060019056feb53127684a568b3173ae13b9f8a6016e243e63b6e8ee1178d6a717850b5d6103360894a13ba1a3210667c828492db98dca3e2076cc3735a920a3ca505d382bbca2646970667358221220b98e06a95fa86acb89692e6d911ca1aec63357dba2aa77647751548c0ff4a4b764736f6c63430008040033b53127684a568b3173ae13b9f8a6016e243e63b6e8ee1178d6a717850b5d6103",
  "devdoc": {
    "kind": "dev",
    "methods": {},
    "version": 1
  },
  "userdoc": {
    "kind": "user",
    "methods": {},
    "notice": "Proxy implementing EIP173 for ownership management that accept ETH via receive",
    "version": 1
  },
  "storageLayout": {
    "storage": [],
    "types": null
  }
}